:04000000A5EF01F077
:100008005E82F2A20AEF00F00CEF00F015EF00F0AC
:10001800F2A811EF00F013EF00F015EF00F094ECE8
:1000280008F09EAC1AEF00F01CEF00F025EF00F08E
:100038009DAC21EF00F023EF00F025EF00F096ECE7
:1000480008F0F2A42AEF00F02CEF00F035EF00F0F2
:10005800F2AA31EF00F033EF00F035EF00F087EC53
:1000680008F09EA03AEF00F03CEF00F045EF00F0FA
:100078009DA041EF00F043EF00F045EF00F081EC68
:1000880008F0F0A04AEF00F04CEF00F055EF00F058
:10009800F0A651EF00F053EF00F055EF00F092ECAE
:1000A80008F0F0A25AEF00F05CEF00F065EF00F006
:1000B800F0A861EF00F063EF00F065EF00F090EC5E
:1000C80008F0F2A06AEF00F06CEF00F087EF00F0A4
:1000D800F2A671EF00F073EF00F087EF00F07DA853
:1000E80078EF00F07AEF00F087EF00F081A87FEF5B
:1000F80000F081EF00F087EF00F0010E286E010E8E
:100108006EEC08F0286AF2A08CEF00F08EEF00F099
:10011800B0EF00F0F2A693EF00F095EF00F0B0EF2B
:1001280000F07DA89AEF00F09CEF00F0B0EF00F02F
:1001380081B8A1EF00F0A3EF00F0B0EF00F0285075
:10014800D8A4A9EF00F0ABEF00F0B0EF00F0000E7C
:100158006EEC08F0010E286EF2A0B5EF00F0B7EFD4
:1001680000F0D8EF00F0F2A6BCEF00F0BEEF00F010
:10017800D8EF00F07DAAC3EF00F0C5EF00F0D8EF8C
:1001880000F081AACAEF00F0CCEF00F0D8EF00F041
:100198002704D8A4D2EF00F0D4EF00F0D8EF00F095
:1001A800010E61EC08F0276AF2A0DDEF00F0DFEF46
:1001B80000F001EF01F0F2A6E4EF00F0E6EF00F046
:1001C80001EF01F07DAAEBEF00F0EDEF00F001EF99
:1001D80001F081BAF2EF00F0F4EF00F001EF01F066
:1001E8002750D8A4FAEF00F0FCEF00F001EF01F07F
:1001F800000E61EC08F0010E276EF2A006EF01F088
:1002080008EF01F029EF01F0F2A60DEF01F00FEF72
:1002180001F029EF01F07DAC14EF01F016EF01F0C9
:1002280029EF01F081AC1BEF01F01DEF01F029EF80
:1002380001F02604D8A423EF01F025EF01F029EFFF
:1002480001F0010E54EC08F0266AF2A02EEF01F03E
:1002580030EF01F052EF01F0F2A635EF01F037EF81
:1002680001F052EF01F07DAC3CEF01F03EEF01F000
:1002780052EF01F081BC43EF01F045EF01F052EF7E
:1002880001F02650D8A44BEF01F04DEF01F052EFEA
:1002980001F0000E54EC08F0010E266EF2A057EFA4
:1002A80001F059EF01F07AEF01F0F2A65EEF01F0EC
:1002B80060EF01F07AEF01F07DAE65EF01F067EFD6
:1002C80001F07AEF01F081AE6CEF01F06EEF01F012
:1002D8007AEF01F02504D8A474EF01F076EF01F06D
:1002E8007AEF01F0010E47EC08F0256AF2A07FEFE3
:1002F80001F081EF01F0A3EF01F0F2A686EF01F023
:1003080088EF01F0A3EF01F07DAE8DEF01F08FEFE4
:1003180001F0A3EF01F081BE94EF01F096EF01F038
:10032800A3EF01F02550D8A49CEF01F09EEF01F057
:10033800A3EF01F0000E47EC08F0010E256E5E9267
:0603480011000BEF08F0AC
:10100000003738392F3435362A3132332D43303DCD
:051010002B2569000022
:10101600580EF66E100EF76E000EF86E00EE01F02A
:1010260010EE36F00900F5CFEEFFE550E150FAE19B
:1010360000EE60F0110EEE6AE806FDE100EE37F014
:10104600260EEE6AE806FDE15E905E9200017BEFF9
:1010560008F0890F8A0F8B0F8C0F8D0F800F810F71
:10106600820F830F840F920F930F940F950F960F95
:1010760000010100426001010101416149595154D9
:101086004C446858504840015D6EF2905D04D8A407
:101096004FEF08F051EF08F053EF08F053EF08F068
:1010A60012005D6EF2905D04D8A45CEF08F05EEF6E
:1010B60008F060EF08F060EF08F012005D6EF29045
:1010C6005D04D8A469EF08F06BEF08F06DEF08F047
:1010D6006DEF08F012005D6EF2905D04D8A476EF15
:1010E60008F078EF08F07AEF08F07AEF08F01200CF
:1010F6008DEC08F07DEF08F0A5EF01F09E903E50D4
:10110600CF6E3DC0CEFF1200F2944250D76E41C062
:10111600D6FF120098EC08F01200F0921200F09040
:0C1126001200F29212009E9C12001200B7
:020000040030CA
:0E000000FF02091EFF8181FF0FC00FE00F40BD
:00000001FF
