:040000002BEF02F0F0
:100008005F82F2A20AEF00F00CEF00F015EF00F0AB
:10001800F2A811EF00F013EF00F015EF00F0B6ECC6
:1000280008F09EA41AEF00F01CEF00F025EF00F096
:100038009DA421EF00F023EF00F025EF00F0C2ECC3
:1000480008F09EA62AEF00F02CEF00F035EF00F044
:100058009DA631EF00F033EF00F035EF00F0B8EC7B
:1000680008F0A1A63AEF00F03CEF00F045EF00F0F1
:10007800A0A641EF00F043EF00F045EF00F0BAEC26
:1000880008F09EA84AEF00F04CEF00F055EF00F0A2
:100098009DA851EF00F053EF00F055EF00F0BCECD5
:1000A80008F09EAA5AEF00F05CEF00F065EF00F050
:1000B8009DAA61EF00F063EF00F065EF00F0BEEC81
:1000C80008F09EAC6AEF00F06CEF00F075EF00F0FE
:1000D8009DAC71EF00F073EF00F075EF00F0C4EC29
:1000E80008F0A1A07AEF00F07CEF00F085EF00F0B7
:1000F800A0A081EF00F083EF00F085EF00F0C0ECE6
:1001080008F0F2A48AEF00F08CEF00F095EF00F011
:10011800F2AA91EF00F093EF00F095EF00F0A5EC54
:1001280008F09EA09AEF00F09CEF00F0A5EF00F019
:100138009DA0A1EF00F0A3EF00F0A5EF00F09FEC69
:1001480008F09EA2AAEF00F0ACEF00F0B5EF00F0C7
:100158009DA2B1EF00F0B3EF00F0B5EF00F0ABEC0B
:1001680008F0A1A2BAEF00F0BCEF00F0C5EF00F074
:10017800A0A2C1EF00F0C3EF00F0C5EF00F099ECCA
:1001880008F0F0A0CAEF00F0CCEF00F0D5EF00F0D7
:10019800F0A6D1EF00F0D3EF00F0D5EF00F0B4EC0B
:1001A80008F0F0A2DAEF00F0DCEF00F0E5EF00F085
:1001B800F0A8E1EF00F0E3EF00F0E5EF00F0B2ECBB
:1001C80008F0F2A0EAEF00F0ECEF00F00DEF01F01C
:1001D800F2A6F1EF00F0F3EF00F00DEF01F07DA8CB
:1001E800F8EF00F0FAEF00F00DEF01F081A8FFEF53
:1001F80000F001EF01F00DEF01F04504D8A407EF7E
:1002080001F009EF01F00DEF01F0010E86EC08F0A6
:10021800456AF2A012EF01F014EF01F036EF01F099
:10022800F2A619EF01F01BEF01F036EF01F07DA8FF
:1002380020EF01F022EF01F036EF01F081B827EF4F
:1002480001F029EF01F036EF01F04550D8A42FEF67
:1002580001F031EF01F036EF01F0000E86EC08F006
:10026800010E456EF2A03BEF01F03DEF01F05EEFAD
:1002780001F0F2A642EF01F044EF01F05EEF01F069
:100288007DAA49EF01F04BEF01F05EEF01F081AA82
:1002980050EF01F052EF01F05EEF01F04404D8A4F2
:1002A80058EF01F05AEF01F05EEF01F0010E79EC22
:1002B80008F0446AF2A063EF01F065EF01F087EF00
:1002C80001F0F2A66AEF01F06CEF01F087EF01F0A0
:1002D8007DAA71EF01F073EF01F087EF01F081BAA9
:1002E80078EF01F07AEF01F087EF01F04450D8A4DD
:1002F80080EF01F082EF01F087EF01F0000E79EC5A
:1003080008F0010E446EF2A08CEF01F08EEF01F0C0
:10031800AFEF01F0F2A693EF01F095EF01F0AFEF28
:1003280001F07DAC9AEF01F09CEF01F0AFEF01F026
:1003380081ACA1EF01F0A3EF01F0AFEF01F04304AE
:10034800D8A4A9EF01F0ABEF01F0AFEF01F0010E77
:100358006CEC08F0436AF2A0B4EF01F0B6EF01F0DC
:10036800D8EF01F0F2A6BBEF01F0BDEF01F0D8EF36
:1003780001F07DACC2EF01F0C4EF01F0D8EF01F05D
:1003880081BCC9EF01F0CBEF01F0D8EF01F0435089
:10039800D8A4D1EF01F0D3EF01F0D8EF01F0000EAF
:1003A8006CEC08F0010E436EF2A0DDEF01F0DFEF18
:1003B80001F000EF02F0F2A6E4EF01F0E6EF01F041
:1003C80000EF02F07DAEEBEF01F0EDEF01F000EF92
:1003D80002F081AEF2EF01F0F4EF01F000EF02F06D
:1003E8004204D8A4FAEF01F0FCEF01F000EF02F0AC
:1003F800010E5FEC08F0426AF2A005EF02F007EF89
:1004080002F029EF02F0F2A60CEF02F00EEF02F074
:1004180029EF02F07DAE13EF02F015EF02F029EF9D
:1004280002F081BE1AEF02F01CEF02F029EF02F091
:100438004250D8A422EF02F024EF02F029EF02F094
:10044800000E5FEC08F0010E426E5F9211000BEF98
:0204580008F0AA
:10100000003738392F3435362A3132332D43303DCD
:051010002B2569000022
:101016009C0EF66E100EF76E000EF86E00EE60F087
:1010260010EE22F00900F5CFEEFFE550E150FAE1AF
:10103600780EF66E100EF76E000EF86E00EE3AF0B1
:1010460010EE24F00900F5CFEEFFE550E150FAE18D
:1010560000EE82F0170EEE6AE806FDE100EE01F002
:10106600390EEE6AE806FDE15F905F92000193EFAC
:1010760008F0424260685A1A2A6201010101625A66
:101086007A720A120A124A524161495951544C4421
:10109600685850484001890F8A0F8B0F8C0F8D0FAF
:1010A600800F810F820F830F840F920F930F940F7F
:1010B600950F960F000101005E6EF2905E04D8A4B3
:1010C60067EF08F069EF08F06BEF08F06BEF08F0D8
:1010D60012005E6EF2905E04D8A474EF08F076EF0C
:1010E60008F078EF08F078EF08F012005E6EF290E4
:1010F6005E04D8A481EF08F083EF08F085EF08F0CE
:1011060085EF08F012005E6EF2905E04D8A48EEFB2
:1011160008F090EF08F092EF08F092EF08F0120056
:10112600AFEC08F095EF08F02BEF02F0A192045017
:10113600B36E03C0B2FF12009E900A50CF6E09C074
:10114600CEFF1200F2940E50D76E0DC0D6FF1200DD
:101156009E9239C0CCFF1200C6EC08F01200F09245
:101166001200F0901200F29212009E961200A196C2
:1011760012009D9812009D981200A19012009E9454
:0811860012009E9C12001200F1
:020000040030CA
:0E000000FF02091EFF8181FF0FC00FE00F40BD
:00000001FF
