:04000000FEEF7FF0A0
:101000000000010E2A6E2450D8B409EF08F00BEF4F
:1010100008F01BEF08F02450D96EDA6ADF30E832AE
:10102000E832070B256E070E256419EF08F01BEF59
:1010300008F071EF08F02A6A87EF08F02450D96EA3
:10104000DA6ADF30E832E832070B256E010E266ED1
:10105000252A2DEF08F0D8902636252E2BEF08F004
:101060002650FF0A276E2450D96EDA6ADF50070B2C
:10107000020DF350150FD96EDA6ADECF28F0DDCFFE
:1010800029F028C0D9FF29C0DAFF2750DF1687EFE3
:1010900008F02450D96EDA6ADF30E832E832070B04
:1010A000256E010E266E252A58EF08F0D8902636B8
:1010B000252E56EF08F02450D96EDA6ADF50070B60
:1010C000020DF350150FD96EDA6ADECF27F0DDCFAF
:1010D00028F027C0D9FF28C0DAFF2650DF1287EF9B
:1010E00008F02450D96EDA6ADFBC79EF08F07CEFA3
:1010F00008F0010E7DEF08F0000E000AD8B41EEFD4
:1011000008F0010AD8B449EF08F01BEF08F02A50A4
:101110001200010E2B6E2450D8B491EF08F093EF1B
:1011200008F0A3EF08F02450D96EDA6ADF30E83215
:10113000E832070B266E070E2664A1EF08F0A3EF36
:1011400008F0F9EF08F02B6A0EEF09F02450D96E81
:10115000DA6ADF30E832E832070B266E010E276EBE
:10116000262AB5EF08F0D8902736262EB3EF08F0E0
:101170002750FF0A286E2450D96EDA6ADF50070B19
:10118000020DF350010FD96EDA6ADECF29F0DDCF00
:101190002AF029C0D9FF2AC0DAFF2850DF160EEF47
:1011A00009F02450D96EDA6ADF30E832E832070BF2
:1011B000266E010E276E262AE0EF08F0D89027361B
:1011C000262EDEEF08F02450D96EDA6ADF50070BC6
:1011D000020DF350010FD96EDA6ADECF28F0DDCFB1
:1011E00029F028C0D9FF29C0DAFF2750DF120EEFFF
:1011F00009F02550266E276A2750000AD8B403EF5D
:1012000009F0A3EF08F02650000AD8B4A6EF08F0C2
:10121000010AD8B4D1EF08F0A3EF08F02B50120068
:10122000010E2A6E2450D8B418EF09F01AEF09F015
:1012300032EF09F02450D96EDA6ADF30E832E83252
:10124000070B266E080E266028EF09F02AEF09F03A
:1012500032EF09F02550D8A430EF09F032EF09F051
:1012600035EF09F02A6A5FEF09F02550D96EDA6A86
:101270002450E16EE26AE730E832E832070B266E6E
:101280002450E16EE26AE750070B020DF3500B0F9A
:10129000E16EE26AE6CF27F0E5CF28F027C0E1FF54
:1012A00028C0E2FFE750296E262A59EF09F0D890AE
:1012B0002932262E57EF09F02950010BDF6E2A50F4
:1012C000120052EC0AF0200E2B6E330E2C6E20EC26
:1012D0000AF01F6E050E326E0F0E316EF10EE82E03
:1012E000FED7312EFCD7322EFAD700003304D8A413
:1012F0007CEF09F07EEF09F083EF09F0230E2A6EF0
:10130000A1EC0AF01F6E0B0E326E260E316E5E0ED1
:10131000E82EFED7312EFCD7322EFAD7220E2C6EB5
:101320007BEC0AF01F6E210E2C6E67EC0AF01F6E2C
:10133000290E326E960E316E7F0EE82EFED7312EBC
:10134000FCD7322EFAD70000200E2A6EA1EC0AF04C
:101350001F6E63EF09F0FEEF7FF0010E296E24503F
:10136000D8B4B5EF09F0B7EF09F0C7EF09F0245092
:10137000D96EDA6ADF30E832E832070B256E070EE5
:101380002564C5EF09F0C7EF09F0CAEF09F0296A33
:10139000F0EF09F02450D96EDA6ADF30E832E83233
:1013A000070B256E010E266E252AD9EF09F0D8907D
:1013B0002636252ED7EF09F02450D96EDA6ADF5091
:1013C000070B020DF350010FD96EDA6ADECF27F05A
:1013D000DDCF28F027C0D9FF28C0DAFF2650DF1A5A
:1013E000295012002C50D8B4F8EF09F0FAEF09F0A8
:1013F0000AEF0AF02C50D96EDA6ADF30E832E832B0
:10140000070B2D6E070E2D6408EF0AF00AEF0AF0A5
:101410000DEF0AF02E6A1EEF0AF02CC024F001EC4A
:1014200008F02E6E2CC024F02C50D96EDA6A000E13
:10143000DFBE010E256E89EC08F02E6E2E501200D4
:101440002B50D8B426EF0AF028EF0AF030EF0AF05C
:101450002C50D8A42EEF0AF030EF0AF033EF0AF048
:101460002D6A3AEF0AF02BC024F02CC025F010ECC6
:1014700009F02D6E2D501200660EF66E150EF76EE9
:10148000000EF86E00EE01F010EE23F00900F5CF2B
:10149000EEFFE550E150FAE1336A000EF86E00010C
:1014A00061EF09F0230E2F6E8FEC0AF01F6E220EF3
:1014B0002F6E8FEC0AF01F6E210E2F6E8FEC0AF04C
:1014C0001F6E200E2F6E8FEC0AF01F6E12002C5034
:1014D000D8A46DEF0AF06FEF0AF072EF0AF02D6AF0
:1014E00079EF0AF02CC024F0010E256E89EC08F08B
:1014F0002D6E2D5012002C50D8A481EF0AF083EFEE
:101500000AF086EF0AF02D6A8DEF0AF02CC024F065
:10151000000E256E89EC08F02D6E2D5012002F5014
:10152000D8A495EF0AF097EF0AF09AEF0AF0306A24
:101530009FEF0AF02FC02CF0F2EC09F0306E305023
:1015400012002A50D8A4A7EF0AF0A9EF0AF0ACEFD6
:101550000AF02B6AB1EF0AF02AC024F0ADEC09F0D2
:101560002B6E2B501200890F8A0F8B0F8C0F8D0F53
:10157000800F810F820F830F840F920F930F940FB0
:09158000950F960F019A128A02E0
:04FFFC003CEF0AF0DC
:020000040030CA
:0E000000FF02091EFF8181FF0FC00FE00F40BD
:00000001FF
