:04000000FEEF7FF0A0
:101000000000010E2E6E2850D8B409EF08F00BEF47
:1010100008F01BEF08F02850D96EDA6ADF30E832AA
:10102000E832070B296E070E296419EF08F01BEF51
:1010300008F071EF08F02E6A87EF08F02850D96E9B
:10104000DA6ADF30E832E832070B296E010E2A6EC9
:10105000292A2DEF08F0D8902A36292E2BEF08F0F8
:101060002A50FF0A2B6E2850D96EDA6ADF50070B20
:10107000020DF350150FD96EDA6ADECF2CF0DDCFFA
:101080002DF02CC0D9FF2DC0DAFF2B50DF1687EFD3
:1010900008F02850D96EDA6ADF30E832E832070B00
:1010A000296E010E2A6E292A58EF08F0D8902A36A8
:1010B000292E56EF08F02850D96EDA6ADF50070B58
:1010C000020DF350150FD96EDA6ADECF2BF0DDCFAB
:1010D0002CF02BC0D9FF2CC0DAFF2A50DF1287EF8B
:1010E00008F02850D96EDA6ADFBC79EF08F07CEF9F
:1010F00008F0010E7DEF08F0000E000AD8B41EEFD4
:1011000008F0010AD8B449EF08F01BEF08F02E50A0
:101110001200010E2F6E2850D8B491EF08F093EF13
:1011200008F0A3EF08F02850D96EDA6ADF30E83211
:10113000E832070B2A6E070E2A64A1EF08F0A3EF2E
:1011400008F0F9EF08F02F6A0EEF09F02850D96E79
:10115000DA6ADF30E832E832070B2A6E010E2B6EB6
:101160002A2AB5EF08F0D8902B362A2EB3EF08F0D4
:101170002B50FF0A2C6E2850D96EDA6ADF50070B0D
:10118000020DF350010FD96EDA6ADECF2DF0DDCFFC
:101190002EF02DC0D9FF2EC0DAFF2C50DF160EEF37
:1011A00009F02850D96EDA6ADF30E832E832070BEE
:1011B0002A6E010E2B6E2A2AE0EF08F0D8902B360B
:1011C0002A2EDEEF08F02850D96EDA6ADF50070BBE
:1011D000020DF350010FD96EDA6ADECF2CF0DDCFAD
:1011E0002DF02CC0D9FF2DC0DAFF2B50DF120EEFEF
:1011F00009F029502A6E2B6A2B50000AD8B403EF4D
:1012000009F0A3EF08F02A50000AD8B4A6EF08F0BE
:10121000010AD8B4D1EF08F0A3EF08F02F50120064
:101220002F50D8B416EF09F018EF09F020EF09F0AD
:101230003050D8A41EEF09F020EF09F023EF09F099
:10124000336A77EF09F02FC028F0340E296E79EC5D
:1012500009F0336E5DEF09F03404D8A432EF09F0E1
:1012600034EF09F03BEF09F03050D96EDA6A010E25
:10127000DF6E77EF09F03450D8A441EF09F043EF67
:1012800009F020EF09F03050D96EDA6ADF6A77EFA3
:1012900009F03404D8A44FEF09F051EF09F053EFEF
:1012A00009F043EF09F03450D8A459EF09F05BEF8F
:1012B00009F020EF09F034EF09F02F50D96EDA6A07
:1012C000020ED926DF50316E326A3250000AD8B48D
:1012D0006CEF09F020EF09F03150000AD8B449EF63
:1012E00009F0010AD8B42CEF09F020EF09F03350CF
:1012F0001200010E2E6E2850D8B481EF09F083EF52
:1013000009F09BEF09F02850D96EDA6ADF30E83235
:10131000E832070B2A6E080E2A6091EF09F093EF6E
:1013200009F09BEF09F02950D8A499EF09F09BEF41
:1013300009F09EEF09F02E6AC8EF09F02950D96E26
:10134000DA6A2850E16EE26AE730E832E832070BE9
:101350002A6E2850E16EE26AE750070B020DF35047
:101360000B0FE16EE26AE6CF2BF0E5CF2CF02BC03D
:10137000E1FF2CC0E2FFE7502D6E2A2AC2EF09F0F0
:10138000D8902D322A2EC0EF09F02D50010BDF6EC0
:101390002E50120061EC0AF0230E2F6E3F0E306EBD
:1013A00010EC09F01F6E200E2F6E3E0E306E10EC0A
:1013B00009F01F6E3F04D8A4E0EF09F0E2EF09F056
:1013C000FAEF09F0010E3526000E362237223822B8
:1013D000385037100BE1F40E355C010E3658D8A0AA
:1013E000F4EF09F0F6EF09F003EF0AF0010E3C6E9E
:1013F00003EF0AF0000E356E000E366E000E376EEB
:10140000000E386E3C6A3C50D8B409EF0AF00BEF7E
:101410000AF0CCEF09F03C04D8A411EF0AF013EF66
:101420000AF0CCEF09F0392ACCEF09F0FEEF7FF09B
:101430003050D8B41EEF0AF020EF0AF030EF0AF077
:101440003050D96EDA6ADF30E832E832070B316E9D
:10145000070E31642EEF0AF030EF0AF033EF0AF096
:10146000326A44EF0AF030C028F001EC08F0326E26
:1014700030C028F03050D96EDA6A000EDFBE010E9F
:10148000296E89EC08F0326E32501200EC0EF66EC6
:10149000140EF76E000EF86E00EE01F010EE27F05D
:1014A0000900F5CFEEFFE550E150FAE100EE35F02E
:1014B0000B0EEE6AE806FDE1000EF86E0001CAEFC1
:1014C00009F0270E336E8AEC0AF01F6E260E336E7B
:1014D0008AEC0AF01F6E230E2F6E9CEC0AF01F6E32
:1014E000200E2F6E9CEC0AF01F6E1200890F8A0FDF
:1014F0008B0F8C0F8D0F800F810F820F830F840F46
:10150000920F930F940F950F960F01C30000520096
:03151000010A02CB
:101514003350D8A490EF0AF092EF0AF095EF0AF056
:10152400346A9AEF0AF033C030F018EC0AF0346EE3
:10153400345012002F50D8A4A2EF0AF0A4EF0AF0FE
:10154400A7EF0AF0306AACEF0AF02FC028F001ECE4
:0815540008F0306E3050120067
:04FFFC0046EF0AF0D2
:020000040030CA
:0E000000FF02091EFF8181FF0FC00FE00F40BD
:00000001FF
