:040000001BEF02F000
:100008005F82F2A20AEF00F00CEF00F015EF00F0AB
:10001800F2A811EF00F013EF00F015EF00F0B7ECC5
:1000280008F09EA41AEF00F01CEF00F025EF00F096
:100038009DA421EF00F023EF00F025EF00F0BFECC6
:1000480008F09EA82AEF00F02CEF00F035EF00F042
:100058009DA831EF00F033EF00F035EF00F0B9EC78
:1000680008F09EAA3AEF00F03CEF00F045EF00F0F0
:100078009DAA41EF00F043EF00F045EF00F0BBEC24
:1000880008F09EAC4AEF00F04CEF00F055EF00F09E
:100098009DAC51EF00F053EF00F055EF00F0C1ECCC
:1000A80008F09EA65AEF00F05CEF00F065EF00F054
:1000B8009DA661EF00F063EF00F065EF00F0B1EC92
:1000C80008F0A1A06AEF00F06CEF00F075EF00F007
:1000D800A0A071EF00F073EF00F075EF00F0BDEC39
:1000E80008F0F2A47AEF00F07CEF00F085EF00F062
:1000F800F2AA81EF00F083EF00F085EF00F0A4ECA6
:1001080008F09EA08AEF00F08CEF00F095EF00F069
:100118009DA091EF00F093EF00F095EF00F09EECBA
:1001280008F09EA29AEF00F09CEF00F0A5EF00F017
:100138009DA2A1EF00F0A3EF00F0A5EF00F0AAEC5C
:1001480008F0A1A2AAEF00F0ACEF00F0B5EF00F0C4
:10015800A0A2B1EF00F0B3EF00F0B5EF00F098EC1B
:1001680008F0F0A0BAEF00F0BCEF00F0C5EF00F027
:10017800F0A6C1EF00F0C3EF00F0C5EF00F0B5EC5A
:1001880008F0F0A2CAEF00F0CCEF00F0D5EF00F0D5
:10019800F0A8D1EF00F0D3EF00F0D5EF00F0B3EC0A
:1001A80008F0F2A0DAEF00F0DCEF00F0FDEF00F06D
:1001B800F2A6E1EF00F0E3EF00F0FDEF00F07DA81C
:1001C800E8EF00F0EAEF00F0FDEF00F081A8EFEFB4
:1001D80000F0F1EF00F0FDEF00F04704D8A4F7EFCE
:1001E80000F0F9EF00F0FDEF00F0010E85EC08F0EB
:1001F800476AF2A002EF01F004EF01F026EF01F0E8
:10020800F2A609EF01F00BEF01F026EF01F07DA84F
:1002180010EF01F012EF01F026EF01F081B817EFAF
:1002280001F019EF01F026EF01F04750D8A41FEFB5
:1002380001F021EF01F026EF01F0000E85EC08F047
:10024800010E476EF2A02BEF01F02DEF01F04EEFFB
:1002580001F0F2A632EF01F034EF01F04EEF01F0B9
:100268007DAA39EF01F03BEF01F04EEF01F081AAD2
:1002780040EF01F042EF01F04EEF01F04604D8A440
:1002880048EF01F04AEF01F04EEF01F0010E78EC73
:1002980008F0466AF2A053EF01F055EF01F077EF4E
:1002A80001F0F2A65AEF01F05CEF01F077EF01F0F0
:1002B8007DAA61EF01F063EF01F077EF01F081BAF9
:1002C80068EF01F06AEF01F077EF01F04650D8A42B
:1002D80070EF01F072EF01F077EF01F0000E78ECAB
:1002E80008F0010E466EF2A07CEF01F07EEF01F0FF
:1002F8009FEF01F0F2A683EF01F085EF01F09FEF89
:1003080001F07DAC8AEF01F08CEF01F09FEF01F076
:1003180081AC91EF01F093EF01F09FEF01F04504FC
:10032800D8A499EF01F09BEF01F09FEF01F0010EC7
:100338006BEC08F0456AF2A0A4EF01F0A6EF01F01B
:10034800C8EF01F0F2A6ABEF01F0ADEF01F0C8EF96
:1003580001F07DACB2EF01F0B4EF01F0C8EF01F0AD
:1003680081BCB9EF01F0BBEF01F0C8EF01F04550D7
:10037800D8A4C1EF01F0C3EF01F0C8EF01F0000EFF
:100388006BEC08F0010E456EF2A0CDEF01F0CFEF57
:1003980001F0F0EF01F0F2A6D4EF01F0D6EF01F092
:1003A800F0EF01F07DAEDBEF01F0DDEF01F0F0EFF3
:1003B80001F081AEE2EF01F0E4EF01F0F0EF01F0BF
:1003C8004404D8A4EAEF01F0ECEF01F0F0EF01F0FB
:1003D800010E5EEC08F0446AF2A0F5EF01F0F7EFC9
:1003E80001F019EF02F0F2A6FCEF01F0FEEF01F0C8
:1003F80019EF02F07DAE03EF02F005EF02F019EFFE
:1004080002F081BE0AEF02F00CEF02F019EF02F0E1
:100418004450D8A412EF02F014EF02F019EF02F0E2
:10042800000E5EEC08F0010E446E5F9211000BEFB7
:0204380008F0CA
:10100000003738392F3435362A3132332D43303DCD
:051010002B2569000022
:101016009E0EF66E100EF76E000EF86E00EE60F085
:1010260010EE1EF00900F5CFEEFFE550E150FAE1B3
:10103600780EF66E100EF76E000EF86E00EE38F0B3
:1010460010EE26F00900F5CFEEFFE550E150FAE18B
:1010560000EE7EF0150EEE6AE806FDE100EE01F008
:10106600370EEE6AE806FDE15F905F92000192EFAF
:1010760008F000010100424260685A1A2A62010122
:1010860001017A720A120A124A52416149595154AF
:101096004C44685850484001890F8A0F8B0F8C0FBB
:1010A6008D0F800F810F820F830F840F920F930F86
:1010B600940F950F960F5E6EF2905E04D8A466EFBD
:1010C60008F068EF08F06AEF08F06AEF08F012001F
:1010D6005E6EF2905E04D8A473EF08F075EF08F028
:1010E60077EF08F077EF08F012005E6EF2905E047C
:1010F600D8A480EF08F082EF08F084EF08F084EFC0
:1011060008F012005E6EF2905E04D8A48DEF08F02F
:101116008FEF08F091EF08F091EF08F01200AEECB7
:1011260008F094EF08F01BEF02F0A1920450B36EA2
:1011360003C0B2FF12009E900A50CF6E09C0CEFFC8
:101146001200F2940E50D76E0DC0D6FF12009E927A
:1011560037C0CCFF1200C3EC08F012009E961200B6
:10116600F0921200F0901200F29212009D98120076
:101176009D981200A19012009E9412009E9C12004F
:02118600120055
:020000040030CA
:0E000000FF02091EFF8181FF0FC00FE00F40BD
:00000001FF
