:04000000FEEF7FF0A0
:101000000000010E326E2C50D8B409EF08F00BEF3F
:1010100008F01BEF08F02C50D96EDA6ADF30E832A6
:10102000E832070B2D6E070E2D6419EF08F01BEF49
:1010300008F071EF08F0326A87EF08F02C50D96E93
:10104000DA6ADF30E832E832070B2D6E010E2E6EC1
:101050002D2A2DEF08F0D8902E362D2E2BEF08F0EC
:101060002E50FF0A2F6E2C50D96EDA6ADF50070B14
:10107000020DF350150FD96EDA6ADECF30F0DDCFF6
:1010800031F030C0D9FF31C0DAFF2F50DF1687EFC3
:1010900008F02C50D96EDA6ADF30E832E832070BFC
:1010A0002D6E010E2E6E2D2A58EF08F0D8902E3698
:1010B0002D2E56EF08F02C50D96EDA6ADF50070B50
:1010C000020DF350150FD96EDA6ADECF2FF0DDCFA7
:1010D00030F02FC0D9FF30C0DAFF2E50DF1287EF7B
:1010E00008F02C50D96EDA6ADFBC79EF08F07CEF9B
:1010F00008F0010E7DEF08F0000E000AD8B41EEFD4
:1011000008F0010AD8B449EF08F01BEF08F032509C
:101110001200010E336E2C50D8B491EF08F093EF0B
:1011200008F0A3EF08F02C50D96EDA6ADF30E8320D
:10113000E832070B2E6E070E2E64A1EF08F0A3EF26
:1011400008F0F9EF08F0336A0EEF09F02C50D96E71
:10115000DA6ADF30E832E832070B2E6E010E2F6EAE
:101160002E2AB5EF08F0D8902F362E2EB3EF08F0C8
:101170002F50FF0A306E2C50D96EDA6ADF50070B01
:10118000020DF350010FD96EDA6ADECF31F0DDCFF8
:1011900032F031C0D9FF32C0DAFF3050DF160EEF27
:1011A00009F02C50D96EDA6ADF30E832E832070BEA
:1011B0002E6E010E2F6E2E2AE0EF08F0D8902F36FB
:1011C0002E2EDEEF08F02C50D96EDA6ADF50070BB6
:1011D000020DF350010FD96EDA6ADECF30F0DDCFA9
:1011E00031F030C0D9FF31C0DAFF2F50DF120EEFDF
:1011F00009F02D502E6E2F6A2F50000AD8B403EF3D
:1012000009F0A3EF08F02E50000AD8B4A6EF08F0BA
:10121000010AD8B4D1EF08F0A3EF08F03350120060
:1012200086EC0BF03B6A2A0E2C6E010E2D6E89ECBB
:1012300008F0246E250E346E23C02CF02D6A000EAB
:101240002F6E0A0E2E6EE7EC09F02C50356ED8EC9E
:101250000AF0246E250E336E3F0E346E8FEC0AF0CA
:10126000246E1A0E3A6EF80EE82EFED73A2EFCD7F0
:1012700000F000F02A0E2C6E000E2D6E89EC08F0A6
:10128000246E2B0E2C6E010E2D6E89EC08F0246E50
:10129000250E346E23C02CF02D6A000E2F6E0A0E20
:1012A0002E6E86EC09F02C50356ED8EC0AF0246EC8
:1012B000250E336E3E0E346E8FEC0AF0246E1A0E3D
:1012C0003A6EF80EE82EFED73A2EFCD700F000F06A
:1012D0002B0E2C6E000E2D6E89EC08F0246E3B2A2E
:1012E000310E3B6476EF09F078EF09F013EF09F067
:1012F000232A630E23647FEF09F081EF09F012EFD8
:1013000009F0236A12EF09F0FEEF7FF0316A2FBE79
:101310008EEF09F08CEF09F094EF09F02E6C2F1E80
:10132000D8B02F2A010E316E2DBE9BEF09F099EF38
:1013300009F0A1EF09F02C6C2D1ED8B02D2A010E5A
:10134000311A000E336E000E326E2E502F10D8B4AC
:10135000ACEF09F0AEEF09F0D6EF09F0010E306EF8
:10136000B6EF09F0D8902E362F36302A2FAEBBEFCD
:1013700009F0BDEF09F0B2EF09F0D89032363336FC
:101380002E502C5C2F502D58D8A0C9EF09F0CBEF70
:1013900009F0D0EF09F02E502C5E2F502D5A3280DC
:1013A000D8902F322E32302EBDEF09F03150D8B404
:1013B000DCEF09F0DEEF09F0E2EF09F0326C331EEA
:1013C000D8B0332A32C02CF033C02DF01200316A6D
:1013D0002DBEEFEF09F0EDEF09F0F5EF09F02C6C01
:1013E0002D1ED8B02D2A010E316E2FBEFCEF09F054
:1013F000FAEF09F000EF0AF02E6C2F1ED8B02F2A5A
:101400002E502F10D8B407EF0AF009EF0AF02DEF95
:101410000AF0010E306E11EF0AF0D8902E362F36FA
:10142000302A2FAE16EF0AF018EF0AF00DEF0AF08F
:101430002E502C5C2F502D58D8A021EF0AF023EF0E
:101440000AF027EF0AF02E502C5E2F502D5AD8901C
:101450002F322E32302E18EF0AF03150D8B433EF3D
:101460000AF035EF0AF039EF0AF02C6C2D1ED8B0D7
:101470002D2A2CC02CF02DC02DF01200010E326E42
:101480002C50D8B446EF0AF048EF0AF060EF0AF0AB
:101490002C50D96EDA6ADF30E832E832070B2E6E54
:1014A000080E2E6056EF0AF058EF0AF060EF0AF0CF
:1014B0002D50D8A45EEF0AF060EF0AF063EF0AF057
:1014C000326A8DEF0AF02D50D96EDA6A2C50E16E37
:1014D000E26AE730E832E832070B2E6E2C50E16EFC
:1014E000E26AE750070B020DF3500B0FE16EE26A60
:1014F000E6CF2FF0E5CF30F02FC0E1FF30C0E2FFA4
:10150000E750316E2E2A87EF0AF0D89031322E2E16
:1015100085EF0AF03150010BDF6E3250120033506C
:10152000D8B495EF0AF097EF0AF09FEF0AF0345025
:10153000D8A49DEF0AF09FEF0AF0A2EF0AF0376AF5
:10154000D6EF0AF03450D96EDA6ADF6A396A33505E
:1015500039242C6E380E2D6E3EEC0AF0376E39C0F1
:1015600035F038C036F0352AB8EF0AF0D890363664
:10157000352EB6EF0AF03450D96EDA6A3650DF12E3
:10158000392A030E3964C7EF0AF0C9EF0AF0A7EF52
:101590000AF03450D96EDA6A090EDF64D2EF0AF02D
:1015A000D4EF0AF0D6EF0AF09FEF0AF0375012009E
:1015B0003450D8B4DEEF0AF0E0EF0AF0E8EF0AF0BA
:1015C000090E3564E6EF0AF0E8EF0AF0EBEF0AF0F7
:1015D000386A0AEF0BF0396A345039242C6E39C05E
:1015E00036F035C037F0362AF8EF0AF0D8903732A7
:1015F000362EF6EF0AF03750010B2D6E89EC08F00D
:10160000386E392A030E396408EF0BF00AEF0BF03D
:10161000ECEF0AF0385012003450D8B412EF0BF04F
:1016200014EF0BF024EF0BF03450D96EDA6ADF3090
:10163000E832E832070B356E070E356422EF0BF007
:1016400024EF0BF027EF0BF0366A38EF0BF034C0C5
:101650002CF001EC08F0366E34C02CF03450D96E0A
:10166000DA6A000EDFBE010E2D6E89EC08F0366ED0
:10167000365012003750D8A440EF0BF042EF0BF079
:1016800045EF0BF0386A55EF0BF0396A37503924C3
:10169000346E0CEC0BF0386E392A030E396453EFBC
:1016A0000BF055EF0BF046EF0BF038501200E00E48
:1016B000F66E160EF76E000EF86E00EE01F010EEEC
:1016C0002BF00900F5CFEEFFE550E150FAE13F6A5B
:1016D0003E6A3D6A3C6A000EF86E000110EF09F0A8
:1016E000890F8A0F8B0F8C0F8D0F800F810F820F48
:1016F000830F840F920F930F940F950F960F000195
:0B17000001002001020A121A010B0375
:10170C00250E376E3AEC0BF0246E2B0E346E0CEC6F
:10171C000BF0246E2A0E346E0CEC0BF0246E1200BF
:04FFFC0057EF0BF0C0
:020000040030CA
:0E000000FF02091EFF8181FF0FC00FE00F40BD
:00000001FF
