:04000000FEEF7FF0A0
:101000000000010E2E6E2850D8B409EF08F00BEF47
:1010100008F01BEF08F02850D96EDA6ADF30E832AA
:10102000E832070B296E070E296419EF08F01BEF51
:1010300008F071EF08F02E6A87EF08F02850D96E9B
:10104000DA6ADF30E832E832070B296E010E2A6EC9
:10105000292A2DEF08F0D8902A36292E2BEF08F0F8
:101060002A50FF0A2B6E2850D96EDA6ADF50070B20
:10107000020DF350150FD96EDA6ADECF2CF0DDCFFA
:101080002DF02CC0D9FF2DC0DAFF2B50DF1687EFD3
:1010900008F02850D96EDA6ADF30E832E832070B00
:1010A000296E010E2A6E292A58EF08F0D8902A36A8
:1010B000292E56EF08F02850D96EDA6ADF50070B58
:1010C000020DF350150FD96EDA6ADECF2BF0DDCFAB
:1010D0002CF02BC0D9FF2CC0DAFF2A50DF1287EF8B
:1010E00008F02850D96EDA6ADFBC79EF08F07CEF9F
:1010F00008F0010E7DEF08F0000E000AD8B41EEFD4
:1011000008F0010AD8B449EF08F01BEF08F02E50A0
:101110001200010E2F6E2850D8B491EF08F093EF13
:1011200008F0A3EF08F02850D96EDA6ADF30E83211
:10113000E832070B2A6E070E2A64A1EF08F0A3EF2E
:1011400008F0F9EF08F02F6A0EEF09F02850D96E79
:10115000DA6ADF30E832E832070B2A6E010E2B6EB6
:101160002A2AB5EF08F0D8902B362A2EB3EF08F0D4
:101170002B50FF0A2C6E2850D96EDA6ADF50070B0D
:10118000020DF350010FD96EDA6ADECF2DF0DDCFFC
:101190002EF02DC0D9FF2EC0DAFF2C50DF160EEF37
:1011A00009F02850D96EDA6ADF30E832E832070BEE
:1011B0002A6E010E2B6E2A2AE0EF08F0D8902B360B
:1011C0002A2EDEEF08F02850D96EDA6ADF50070BBE
:1011D000020DF350010FD96EDA6ADECF2CF0DDCFAD
:1011E0002DF02CC0D9FF2DC0DAFF2B50DF120EEFEF
:1011F00009F029502A6E2B6A2B50000AD8B403EF4D
:1012000009F0A3EF08F02A50000AD8B4A6EF08F0BE
:10121000010AD8B4D1EF08F0A3EF08F02F50120064
:1012200045EC0BF0260E306EADEC0AF0236E240E6A
:10123000306E86EC0AF0236E260E2F6E3D0E306E59
:1012400085EC09F0236E240E2F6E3C0E306E85EC7B
:1012500009F0236E150E396E4B0E386EBE0EE82E59
:10126000FED7382EFCD7392EFAD700F000F0260E24
:10127000356E5EEC0AF0236E240E356E5EEC0AF0DD
:10128000236E260E2F6E3D0E306E85EC09F0236E18
:10129000240E2F6E3C0E306E85EC09F0236E150E79
:1012A000396E4B0E386EBE0EE82EFED7382EFCD7A8
:1012B000392EFAD700F000F0260E306ED4EC0AF08A
:1012C000236E240E306ED4EC0AF0236E260E2F6EA1
:1012D0003D0E306E85EC09F0236E240E2F6E3C0E11
:1012E000306E85EC09F0236E150E396E4B0E386E9C
:1012F000BE0EE82EFED7382EFCD7392EFAD700F0D6
:1013000000F012EF09F0FEEF7FF02F50D8B48BEF12
:1013100009F08DEF09F095EF09F03050D8A493EF64
:1013200009F095EF09F098EF09F0316ADDEF09F067
:10133000346A2F503424286E3450320F296EDFEC7B
:1013400009F0316E342A010E3464A9EF09F0ABEFD5
:1013500009F099EF09F03204D8A4B1EF09F0B3EF26
:1013600009F0C2EF09F03350D8A4B9EF09F0BBEF90
:1013700009F0C2EF09F03050D96EDA6A010EDF6E63
:10138000DDEF09F03250D8A4C8EF09F0CAEF09F038
:10139000D9EF09F03304D8A4D0EF09F0D2EF09F067
:1013A000D9EF09F03050D96EDA6A020EDF6EDDEF48
:1013B00009F03050D96EDA6ADF6A31501200010E3E
:1013C0002E6E2850D8B4E7EF09F0E9EF09F001EFED
:1013D0000AF02850D96EDA6ADF30E832E832070BBB
:1013E0002A6E080E2A60F7EF09F0F9EF09F001EF15
:1013F0000AF02950D8A4FFEF09F001EF0AF004EF3A
:101400000AF02E6A2EEF0AF02950D96EDA6A2850B7
:10141000E16EE26AE730E832E832070B2A6E2850C4
:10142000E16EE26AE750070B020DF3500B0FE16E1D
:10143000E26AE6CF2BF0E5CF2CF02BC0E1FF2CC009
:10144000E2FFE7502D6E2A2A28EF0AF0D8902D32BD
:101450002A2E26EF0AF02D50010BDF6E2E501200BF
:101460003050D8B436EF0AF038EF0AF048EF0AF0FF
:101470003050D96EDA6ADF30E832E832070B316E6D
:10148000070E316446EF0AF048EF0AF04BEF0AF01E
:10149000326A5CEF0AF030C028F001EC08F0326EDE
:1014A00030C028F03050D96EDA6A000EDFBE010E6F
:1014B000296E89EC08F0326E325012003550D8A4F3
:1014C00064EF0AF066EF0AF069EF0AF0366A84EF1B
:1014D0000AF0376A35C02FF0370E306E85EC09F010
:1014E0003704D8A476EF0AF078EF0AF07FEF0AF01D
:1014F00035C030F086EC0AF0366E84EF0AF035C065
:1015000030F0ADEC0AF0366E365012003050D8A4F0
:101510008CEF0AF08EEF0AF091EF0AF0336AABEF2E
:101520000AF01FC031F020C032F0346A3050342449
:10153000286E3450310FD96EDA6ADF50296E89EC8B
:1015400008F0336E342A010E3464A9EF0AF0ABEFD1
:101550000AF096EF0AF0335012003050D8A4B3EFDF
:101560000AF0B5EF0AF0B8EF0AF0336AD2EF0AF0EA
:1015700021C031F022C032F0346A30503424286E59
:101580003450310FD96EDA6ADF50296E89EC08F0D9
:10159000336E342A010E3464D0EF0AF0D2EF0AF031
:1015A000BDEF0AF0335012003050D8A4DAEF0AF041
:1015B000DCEF0AF0DFEF0AF0336AF9EF0AF0000E11
:1015C000326E000E316E346A30503424286E34503E
:1015D000310FD96EDA6ADF50296E89EC08F0336E6C
:1015E000342A010E3464F7EF0AF0F9EF0AF0E4EF61
:1015F0000AF0335012003350D8A401EF0BF003EF80
:101600000BF006EF0BF0346A16EF0BF0356A33502F
:101610003524306E30EC0AF0346E352A010E356414
:1016200014EF0BF016EF0BF007EF0BF03450120035
:10163000620EF66E160EF76E000EF86E00EE01F0FA
:1016400010EE27F00900F5CFEEFFE550E150FAE18A
:101650003D6A3C6A3B6A3A6A000EF86E000110EF80
:1016600009F0890F8A0F8B0F8C0F8D0F800F810F60
:10167000820F830F840F920F930F940F950F960F85
:091680000001010001121A020A26
:10168A00260E336EFBEC0AF0236E240E336EFBEC4F
:06169A000AF0236E1200AD
:04FFFC0018EF0BF0FF
:020000040030CA
:0E000000FF02091EFF8181FF0FC00FE00F40BD
:00000001FF
