:04000000FEEF7FF0A0
:10100000003738392F3435362A3132332D43303DCD
:101010002B000A1511110A0400000A1511110E0403
:1010200000000A15111F0E0400000A151F1F0E04F0
:1010300000000A1F1F1F0E04000E1F111111111FA7
:10104000000E1F1111111F1F000E1F11111F1F1F56
:10105000000E1F111F1F1F1F000E1F1F1F1F1F1F0E
:051060000025690000FD
:10106600010E316E2B50D8B43BEF08F03DEF08F07F
:101076004DEF08F02B50D96EDA6ADF30E832E832ED
:10108600070B2C6E070E2C644BEF08F04DEF08F0A3
:10109600A3EF08F0316AB9EF08F02B50D96EDA6A7F
:1010A600DF30E832E832070B2C6E010E2D6E2C2A4B
:1010B6005FEF08F0D8902D362C2E5DEF08F02D50FE
:1010C600FF0A2E6E2B50D96EDA6ADF50070B020D1F
:1010D600F350150FD96EDA6ADECF2FF0DDCF30F080
:1010E6002FC0D9FF30C0DAFF2E50DF16B9EF08F057
:1010F6002B50D96EDA6ADF30E832E832070B2C6EF5
:10110600010E2D6E2C2A8AEF08F0D8902D362C2E43
:1011160088EF08F02B50D96EDA6ADF50070B020D04
:10112600F350150FD96EDA6ADECF2EF0DDCF2FF031
:101136002EC0D9FF2FC0DAFF2D50DF12B9EF08F00D
:101146002B50D96EDA6ADFBCABEF08F0AEEF08F0D1
:10115600010EAFEF08F0000E000AD8B450EF08F009
:10116600010AD8B47BEF08F04DEF08F031501200B9
:10117600010E326E2B50D8B4C3EF08F0C5EF08F05D
:10118600D5EF08F02B50D96EDA6ADF30E832E83254
:10119600070B2D6E070E2D64D3EF08F0D5EF08F080
:1011A6002BEF09F0326A40EF09F02B50D96EDA6A5C
:1011B600DF30E832E832070B2D6E010E2E6E2D2A37
:1011C600E7EF08F0D8902E362D2EE5EF08F02E50DA
:1011D600FF0A2F6E2B50D96EDA6ADF50070B020D0D
:1011E600F350010FD96EDA6ADECF30F0DDCF31F081
:1011F60030C0D9FF31C0DAFF2F50DF1640EF09F0BB
:101206002B50D96EDA6ADF30E832E832070B2D6EE2
:10121600010E2E6E2D2A12EF09F0D8902E362D2EA5
:1012260010EF09F02B50D96EDA6ADF50070B020D6A
:10123600F350010FD96EDA6ADECF2FF0DDCF30F032
:101246002FC0D9FF30C0DAFF2E50DF1240EF09F071
:101256002C502D6E2E6A2E50000AD8B435EF09F0A8
:10126600D5EF08F02D50000AD8B4D8EF08F0010ADF
:10127600D8B403EF09F0D5EF08F0325012003B5016
:10128600D8A448EF09F04AEF09F04DEF09F03E6A9D
:10129600B5EF09F03BC033F05DEC0CF03E6E3B2839
:1012A600336E5DEC0CF03E6E3B50020F336E5DEC20
:1012B6000CF03E6E3D6A3B503D24030F336E5DECF1
:1012C6000CF03D2A070E3D646BEF09F06DEF09F057
:1012D6005EEF09F0340E3C6EF20EE82EFED73C2E81
:1012E600FCD73BC035F0380E366E08EC0BF00D0E11
:1012F6003C6EFC0EE82EFED73C2EFCD73BC035F0EC
:10130600380E366E08EC0BF0640EE82EFED73BC0A6
:1013160035F0380E366E08EC0BF03BC035F0010E9A
:10132600366E08EC0BF03BC035F0020E366E08EC5C
:101336000BF03BC035F0060E366E08EC0BF03BC0EA
:1013460035F00C0E366E08EC0BF03BC035F0380E5F
:10135600366E08EC0BF03BC035F0800E366E08ECAE
:101366000BF03E6E3E5012003C50D8A4BDEF09F083
:10137600BFEF09F0C2EF09F03F6A2AEF0AF03CC05E
:1013860033F05DEC0CF03F6E3C28336E5DEC0CF0F8
:101396003F6E3C50020F336E5DEC0CF03F6E3E6AC2
:1013A6003C503E24030F336E5DEC0CF03E2A030ED8
:1013B6003E64E0EF09F0E2EF09F0D3EF09F0340EF6
:1013C6003D6EF20EE82EFED73D2EFCD73CC039F01E
:1013D600380E3A6EF5EC0BF00D0E3D6EFC0EE82E57
:1013E600FED73D2EFCD73CC039F0380E3A6EF5ECF0
:1013F6000BF0640EE82EFED73CC039F0380E3A6E7C
:10140600F5EC0BF03CC039F0010E3A6EF5EC0BF042
:101416003CC039F0020E3A6EF5EC0BF03CC039F0E8
:10142600060E3A6EF5EC0BF03CC039F00C0E3A6E37
:10143600F5EC0BF03CC039F0280E3A6EF5EC0BF0EB
:101446003CC039F0800E3A6EF5EC0BF03F6E3F5023
:1014560012003B50D8A432EF0AF034EF0AF037EF0F
:101466000AF03E6A75EF0AF03D0662EF0AF03BC0ED
:1014760035F03D50800F366E08EC0BF03E6E75EF82
:101486000AF03BC035F03D50C00F366E08EC0BF04D
:101496003E6E75EF0AF03BC035F03D50940F366E48
:1014A60008EC0BF03E6E75EF0AF03BC035F03D5090
:1014B600D40F366E08EC0BF03E6E75EF0AF03C501A
:1014C600010AD8B43AEF0AF0030AD8B444EF0AF096
:1014D600010AD8B44EEF0AF0070AD8B458EF0AF05A
:1014E60034EF0AF03E5012003C50D8A47DEF0AF0CB
:1014F6007FEF0AF082EF0AF03F6AC0EF0AF03E067D
:10150600ADEF0AF03CC039F03E50800F3A6EF5EC74
:101516000BF03F6EC0EF0AF03CC039F03E50C00FF2
:101526003A6EF5EC0BF03F6EC0EF0AF03CC039F0B6
:101536003E50940F3A6EF5EC0BF03F6EC0EF0AF09A
:101546003CC039F03E50D40F3A6EF5EC0BF03F6ECE
:10155600C0EF0AF03D50010AD8B485EF0AF0030A3D
:10156600D8B48FEF0AF0010AD8B499EF0AF0070A47
:10157600D8B4A3EF0AF07FEF0AF03F5012004450B0
:10158600D8B4C8EF0AF0CAEF0AF0DAEF0AF045500D
:10159600D8B4D0EF0AF0D2EF0AF0DAEF0AF0070E6D
:1015A6004864D8EF0AF0DAEF0AF0DCEF0AF007EF4A
:1015B6000BF044C035F04850080DF350400F366E1E
:1015C60008EC0BF04A6A44C035F045504A24496E8F
:1015D60049C0F6FF100EF76E0800F5CF36F047EC5F
:1015E6000BF04A2A070E4A64FBEF0AF0FDEF0AF0F9
:1015F600E6EF0AF044C03FF048C040F046C041F074
:1016060047C042F01FEC0DF012003550D8A40EEF83
:101616000BF010EF0BF013EF0BF0396A45EF0BF000
:1016260035C02BF0000E2C6EBBEC08F0396E352859
:101636002B6E000E2C6EBBEC08F0396E3A6A3550F4
:101646003A24030F2B6E3AC037F036C038F0372AEB
:101656002FEF0BF0D8903832372E2DEF0BF0385095
:10166600010B2C6EBBEC08F03A2A070E3A643EEFEB
:101676000BF040EF0BF022EF0BF035C033F0DFEC50
:101686000CF0396E395012003550D8A44DEF0BF0DE
:101696004FEF0BF052EF0BF0396A84EF0BF035C0C9
:1016A6002BF0010E2C6EBBEC08F0396E35282B6E34
:1016B600000E2C6EBBEC08F0396E3A6A35503A24AF
:1016C600030F2B6E3AC037F036C038F0372A6EEF6C
:1016D6000BF0D8903832372E6CEF0BF03850010BE8
:1016E6002C6EBBEC08F03A2A070E3A647DEF0BF03D
:1016F6007FEF0BF061EF0BF035C033F0DFEC0CF051
:10170600396E395012007DEC0DF04E6A600E446E53
:101716004E50080DF350390F456E010E466E140EED
:10172600476E000E486EC2EC0AF0240E456E4E500F
:10173600080DF350110F466E010E476E140E486EDB
:10174600000E496EBFEC0BF0030E4D6E8A0E4C6E0A
:10175600560EE82EFED74C2EFCD74D2EFAD74E2A23
:10176600040E4E64B9EF0BF0BBEF0BF089EF0BF0F4
:1017760088EF0BF0FEEF7FF04550D8A4C5EF0BF0D5
:10178600C7EF0BF0C9EF0BF0F4EF0BF045C039F0E3
:101796004950080DF350400F3A6EF5EC0BF04B6ACA
:1017A60045C039F046504B244A6E4AC0F6FF100E2B
:1017B600F76E0800F5CF3AF029EC0CF04B2A070E2D
:1017C6004B64E8EF0BF0EAEF0BF0D3EF0BF045C0FC
:1017D60040F049C041F047C042F048C043F03CECFD
:1017E6000DF012003950D8A4FBEF0BF0FDEF0BF013
:1017F60000EF0CF03B6A27EF0CF039C02BF0000E1F
:101806002C6EBBEC08F03B6E39282B6E000E2C6E4E
:10181600BBEC08F03B6E39C033F03A380F0B346E30
:101826008BEC0CF03B6E39C033F0FFEC0CF03B6EEA
:1018360039C033F03AC034F08BEC0CF03B6E39C053
:1018460033F0FFEC0CF03B6E3B5012003950D8A43D
:101856002FEF0CF031EF0CF034EF0CF03B6A5BEF3E
:101866000CF039C02BF0010E2C6EBBEC08F03B6E71
:1018760039282B6E000E2C6EBBEC08F03B6E39C07F
:1018860033F03A380F0B346E8BEC0CF03B6E39C0EC
:1018960033F0FFEC0CF03B6E39C033F03AC034F055
:1018A6008BEC0CF03B6E39C033F0FFEC0CF03B6E6A
:1018B6003B5012003350D8B463EF0CF065EF0CF0D8
:1018C60075EF0CF03350D96EDA6ADF30E832E83261
:1018D600070B346E070E346473EF0CF075EF0CF0E3
:1018E60078EF0CF0356A89EF0CF033C02BF033EC4F
:1018F60008F0356E33C02BF03350D96EDA6A000E1D
:10190600DFBE010E2C6EBBEC08F0356E35501200B2
:101916003350D8A491EF0CF093EF0CF096EF0CF047
:10192600376AB6EF0CF0386A33503824030F2B6E43
:1019360038C035F034C036F0352AA4EF0CF0D89014
:101946003632352EA2EF0CF03650010B2C6EBBEC66
:1019560008F0376E382A030E3864B4EF0CF0B6EF91
:101966000CF097EF0CF037501200EE0EF66E1A0ED2
:10197600F76E000EF86E00EE60F010EE0BF0090048
:10198600F5CFEEFFE550E150FAE1B20EF66E1A0E13
:10199600F76E000EF86E00EE01F010EE2AF0090068
:1019A600F5CFEEFFE550E150FAE1506A4F6A000EBE
:1019B600F86E000186EF0BF03350D8A4E5EF0CF07B
:1019C600E7EF0CF0EAEF0CF0346AFDEF0CF0335061
:1019D600020F2B6E010E2C6EBBEC08F0030EE82EE8
:1019E600FED700003350020F2B6E000E2C6EBBECA0
:1019F60008F0346E345012003350D8A405EF0DF0C1
:101A060007EF0DF00AEF0DF0346A1DEF0DF03350BD
:101A1600020F2B6E010E2C6EBBEC08F0030EE82EA7
:101A2600FED700003350020F2B6E000E2C6EBBEC5F
:101A360008F0346E345012003F50D8A425EF0DF054
:101A460027EF0DF02AEF0DF0436A3AEF0DF03FC095
:101A56003BF041C03CF042C03DF02CEC0AF0436E36
:101A66003FC035F040C036F047EC0BF0436E4350B4
:101A760012004050D8A442EF0DF044EF0DF047EFAE
:101A86000DF0446A57EF0DF040C03CF042C03DF007
:101A960043C03EF077EC0AF0446E40C039F041C0D6
:101AA6003AF029EC0CF0446E44501200890F8A0F6C
:101AB6008B0F8C0F8D0F800F810F820F830F840F7A
:101AC600920F930F940F950F960F000101000101DD
:101AD6000911020A121A240E3C6EB7EC09F0600EC8
:101AE6003B6E42EC09F01200192129030B131B234C
:031AF6002B333B54
:061AFA006EEC0DF012007D
:04FFFC00B8EF0CF05E
:020000040030CA
:0E000000FF02091EFF8181FF0FC00FE00F40BD
:00000001FF
