:100000000C9434000C9403020C9403020C9403022D
:100010000C9403020C9403020C9403020C9403024C
:100020000C9403020C9403020C9403020C9403023C
:100030000C9403020C9403020C9403020C9403022C
:100040000C9403020C9403020C9403020C9403021C
:100050000C9403020060007D000414007D007E808B
:10006000007E00810004310011241FBECFE5D8E0DE
:10007000DEBFCDBFE4E5F0E040E017C0B591A5914B
:1000800035912591059107FD0CC095918591EF0162
:10009000F92FE82F05900D92A217B307D9F7FE01AB
:1000A00004C01D92A217B307E1F7E736F40731F752
:0C00B0000E945E000C94F801F894FFCF51
:1000BC0088E790E00E94CD0180E890E00E94E50185
:1000CC008FE790E00E94E501CDECD5E061E08FE791
:1000DC0090E00E94FB0060917E006C9F812D1124AA
:1000EC00869586958695880F982F990F990F890F6D
:1000FC00681B88E790E00E947D016DE770E088E75F
:10010C0090E00E943D012FEF83ED90E32150804061
:10011C009040E1F700C00000D0937D0060E08FE7D5
:10012C0090E00E94FB0061E080E890E00E94FB0000
:10013C0060917E006C9F612D112466956695669585
:10014C0088E790E00E947D012FEF87EA91E621502D
:0C015C0080409040E1F700C00000B8CFE8
:10016800FC01892B09F43FC0808186958695869588
:100178008770908196FB222720F996FF03C02130D3
:10018800D1F033C0E081E770F0E0EE0FFF1FE059D7
:10019800FF4F0190F081E02D408121E030E0B9016E
:1001A80002C0660F771F8A95E2F7CB0180958423FA
:1001B800808381E00895E081E770F0E0EE0FFF1F93
:1001C800E059FF4F0190F081E02D408121E030E0BF
:1001D800B90102C0660F771F8A95E2F7CB01842B1D
:0E01E800808381E0089580E0089580E008950E
:1001F600FC01892BD9F190819695969596959770E5
:10020600662319F06130D1F033C0E081E770F0E089
:10021600EE0FFF1FE05AFF4F0190F081E02D408165
:1002260021E030E0B90102C0660F771F9A95E2F728
:10023600CB0180958423808381E00895E081E77077
:10024600F0E0EE0FFF1FE05AFF4F0190F081E02D26
:10025600408121E030E0B90102C0660F771F9A9510
:10026600E2F7CB01842B808381E0089580E0089536
:0402760080E0089587
:10027A00CF92DF92EF92FF920F931F93CF93DF9368
:10028A000F92CDB7DEB7009731F16115710529F1EB
:10029A008B017C01C12CD12CBE016F5F7F4FC7013E
:1002AA008C0D9D1D0E94A801298130E00C2C02C0F2
:1002BA00220F331F0A94E2F7F8019081292B208339
:1002CA00FFEFCF1ADF0A94E0C916D10429F72A30C2
:1002DA0028F080E003C080E001C080E00F90DF9149
:1002EA00CF911F910F91FF90EF90DF90CF900895DB
:1002FA00EF92FF920F931F93CF93DF930097C9F06A
:10030A006A30C8F47C01C0E0D0E0062F10E0B801E2
:10031A000C2E02C0759567950A94E2F76170C701C1
:10032A008C0F9D1F0E94FB002196C430D10579F7DE
:10033A0003C080E001C080E0DF91CF911F910F914F
:06034A00FF90EF90089502
:100350000097F9F061157105F1F0DC012C912695FB
:10036000269526952770EC91E770F0E0EE0FFF1FC1
:10037000E859FF4F0190F081E02D808190E002C0AC
:10038000959587952A95E2F78170FB01808381E03E
:0A039000089580E0089580E00895CC
:10039A000F931F93CF93DF93009761F0EC018C01C9
:1003AA000C5F1F4FCE010E94E50121960C171D0715
:1003BA00C9F701C080E0DF91CF911F910F91089595
:1003CA00CF93DF93009759F0EC010E94B400688143
:1003DA0067FB662760F9CE010E94FB0001C080E03E
:0603EA00DF91CF910895A0
:1003F000EC010E9408020E940702CE010E9409023D
:06040000CE010E9405027E
:040406000C94000052
:04040A000E945C00F0
:02040E0008954F
:0204100008954D
:0204120008954B
:080414003B0038003500320006
:08041C00390036003300300006
:080424003A00370034003100FA
:05042C00424A525A0192
:0104310019B1
:010432000BBE
:010433004385
:00000001FF
