:100000000C9430000C94FC020C9420030C944403D8
:100010000C946D040C946D040C946D040C946D049C
:100020000C946D040C946D040C946D040C946D048C
:100030000C946D040C946D040C946D040C946D047C
:100040000C946D040C946D040C946D040C946D046C
:100050000C946D040060009A0008E8009A00A080EB
:1000600011241FBECFE5D8E0DEBFCDBFE4E5F0E050
:1000700040E017C0B591A59135912591059107FDF7
:100080000CC095918591EF01F92FE82F05900D9205
:10009000A217B307D9F7FE0104C01D92A217B30738
:1000A000E1F7E036F40731F70E94C2030C944304F1
:0400B000F894FFCFF2
:1000B400CF93DF93009709F4A2C0EC010E94A5033B
:1000C400CE010E9488038B81813051F120F082306F
:1000D40009F44BC056C08C81811107C085B78E7F4F
:1000E40085BF85B78D7F85BF4CC0813039F485B716
:1000F400816085BF85B78D7F85BF43C0823039F469
:1001040085B78E7F85BF85B7826085BF3AC083304F
:10011400C1F585B7816085BF85B7826085BF31C071
:100124008C81811107C085B78B7F85BF85B7877F99
:1001340085BF27C0813039F485B7846085BF85B712
:10014400877F85BF1EC0823039F485B78B7F85BF1A
:1001540085B7886085BF15C0833099F485B78460FE
:1001640085BF85B7886085BF0CC08C81823021F43F
:1001740084B78F7B84BF05C0833019F484B780644F
:1001840084BFCE0102960E94C8018B81813069F040
:1001940018F0823099F01BC0888199810097E9F0AA
:1001A40090939F0080939E0018C088819981009746
:1001B400D1F090939D0080939C0015C08881998113
:1001C4000097B9F090939B0080939A0012C08130FD
:1001D40051F018F08230A9F40CC078948BB7806485
:1001E4008BBF81E00FC078948BB780688BBF81E0B0
:1001F40009C078948BB780628BBF81E003C080E034
:0A02040001C080E0DF91CF91089562
:10020E00EF92FF920F931F93CF93DF93009709F412
:10021E0052C08C010E940F04C80101960E940F0467
:10022E00C80102960E940F04E801239678012BE084
:10023E00E20EF11CCE010E940F042196CE15DF05B1
:10024E00C9F78FEF99EF20E0815090402040E1F701
:10025E0000C0000068E3C8010E9451028FE19EE4D5
:10026E000197F1F700C0000068E3C8010E94510237
:10027E0087E592E00197F1F700C0000068E3C8013E
:10028E000E94510261E0C8010E94510262E0C80161
:10029E000E94510266E0C8010E9451026CE0C80142
:1002AE000E94510268E3C8010E94510260E8C80131
:1002BE000E94510201C080E0DF91CF911F910F91FA
:0602CE00FF90EF9008957F
:1002D400CF93DF93009709F455C0EC010E940F04FB
:1002E400CE0101960E940F04CE0102960E940F04D3
:1002F400CE0103960E940F04CE0104960E940F04BF
:10030400CE0105960E940F04CE0106960E940F04AA
:100314002FEF89EF90E0215080409040E1F700C03A
:10032400000068E3CE010E94D7028FE19EE40197AA
:10033400F1F700C0000068E3CE010E94D70287E510
:1003440092E00197F1F700C0000068E3CE010E943B
:10035400D70261E0CE010E94D70262E0CE010E9482
:10036400D70266E0CE010E94D7026CE0CE010E9463
:10037400D70268E2CE010E94D70260E8CE010E9453
:0C038400D70201C080E0DF91CF91089506
:10039000FC01892B09F43FC080818695869586955E
:1003A0008770908196FB222720F996FF03C02130A9
:1003B000D1F033C0E081E770F0E0EE0FFF1FED58A1
:1003C000FF4F0190F081E02D408121E030E0B90144
:1003D00002C0660F771F8A95E2F7CB0180958423D0
:1003E000808381E00895E081E770F0E0EE0FFF1F69
:1003F000ED58FF4F0190F081E02D408121E030E089
:10040000B90102C0660F771F8A95E2F7CB01842BF2
:0E041000808381E0089580E0089580E00895E3
:10041E00FC01892BD9F190819695969596959770BA
:10042E00662319F06130D1F033C0E081E770F0E05F
:10043E00EE0FFF1FE559FF4F0190F081E02D408137
:10044E0021E030E0B90102C0660F771F9A95E2F7FE
:10045E00CB0180958423808381E00895E081E7704D
:10046E00F0E0EE0FFF1FE559FF4F0190F081E02DF8
:10047E00408121E030E0B90102C0660F771F9A95E6
:10048E00E2F7CB01842B808381E0089580E008950C
:04049E0080E008955D
:1004A200EF92FF920F931F93CF93DF93009719F16F
:1004B200E62E8C0160E00E940F0260E0C801019606
:1004C2000E940F02C0E0D0E0F12CB7010C2E02C056
:1004D200759567950A94E2F76170CE010396800FD5
:1004E200911F0E940F022196C830D10571F7C801F1
:1004F2000E94F60301C080E0DF91CF911F910F911E
:06050200FF90EF90089548
:100508001F93CF93DF93009709F1EC010E94C80174
:100518008A81882319F0813039F013C089818130AC
:1005280049F0882349F00DC08981813039F088234A
:1005380039F007C010E005C011E003C011E001C0A8
:1005480010E0612FCE010E940F0201C080E0DF9110
:06055800CF911F910895F0
:10055E00EF92FF920F931F93CF93DF930097C1F00B
:10056E007C01C0E0D0E0062F10E0B8010C2E02C0D6
:10057E00759567950A94E2F76170CE0103968E0D1C
:10058E009F1D0E940F022196C430D10571F701C044
:10059E0080E0DF91CF911F910F91FF90EF90089522
:1005AE001F93CF93DF930097D9F0162FEC0160E0E5
:1005BE000E940F0260E0CE0101960E940F02612F91
:1005CE0062956F70CE010E94AF02CE010E94DD03D4
:1005DE00612FCE010E94AF02CE010E94DD0301C049
:0A05EE0080E0DF91CF911F91089586
:1005F8001F920F920FB60F9211242F933F934F9390
:100608005F936F937F938F939F93AF93BF93EF9372
:10061800FF930E942204FF91EF91BF91AF919F91A8
:100628008F917F916F915F914F913F912F910F9093
:080638000FBE0F901F901895F2
:100640001F920F920FB60F9211242F933F934F9347
:100650005F936F937F938F939F93AF93BF93EF932A
:10066000FF930E942D04FF91EF91BF91AF919F9155
:100670008F917F916F915F914F913F912F910F904B
:080680000FBE0F901F901895AA
:100688001F920F920FB60F9211242F933F934F93FF
:100698005F936F937F938F939F93AF93BF93EF93E2
:1006A800FF930E943804FF91EF91BF91AF919F9102
:1006B8008F917F916F915F914F913F912F910F9003
:0806C8000FBE0F901F90189562
:1006D0000097E1F0DC012C91269526952695277050
:1006E000EC91E770F0E0EE0FFF1FE559FF4F01902E
:1006F000F081E02D308181E090E002C0880F991FE9
:100700002A95E2F78327808381E0089580E00895A9
:100710000097B9F0FC018381813049F018F08230F4
:1007200059F011C08AB780648ABF81E008958AB702
:1007300080688ABF81E008958AB780628ABF81E0BD
:0A074000089580E0089580E0089518
:10074A000097B9F0FC018381813049F018F08230BA
:10075A0059F011C08BB78F7B8BBF81E008958BB79F
:10076A008F778BBF81E008958BB78F7D8BBF81E038
:0A077A00089580E0089580E00895DE
:100784000E944E0487E990E00E94840284E990E08C
:100794000E94840281E990E00E9484028CE890E047
:1007A4000E945A0087E890E00E945A0082E890E094
:0607B4000E945A00FFCF75
:1007BA00CF93DF93009789F0EC01229661E0CE0196
:1007CA000E940F0283E393E00197F1F700C0000053
:1007DA0060E0CE010E940F0201C080E0DF91CF915C
:0207EA00089570
:1007EC00CF93DF93009789F0EC01229661E0CE0164
:1007FC000E940F0283E393E00197F1F700C0000021
:10080C0060E0CE010E940F0201C080E0DF91CF9129
:02081C0008953D
:10081E00CF93DF93009759F0EC010E94C8016881D5
:10082E0067FB662760F9CE010E940F0201C080E0CF
:06083E00DF91CF91089547
:100844008AB780648ABFE0919E00F0919F00309740
:0608540009F0099508956A
:10085A008AB780688ABFE0919C00F0919D0030972A
:06086A0009F00995089554
:100870008AB780628ABFE0919A00F0919B0030971E
:0608800009F0099508953E
:10088600EC010E9472040E947104CE010E9473045E
:06089600CE010E946F0478
:10089C008BE790E00E946A0180E690E00E940701DD
:0208AC000895AD
:0E08AE00009719F00E946803089580E00895F5
:0A08BC0087E990E00E9457040895B8
:0A08C60084E990E00E9457040895B1
:0A08D00081E990E00E9457040895AA
:0408DA000C9400007A
:0408DE000E9458001C
:0208E200089577
:0208E400089575
:0208E600089573
:0B08E800596169434B535B636B737BEA
:0808F3003B0038003500320023
:0808FB003A003700340031001F
:07090300414951424A525ADA
:05090A00680411020366
:05090F0063041B010060
:050914005E0413000168
:0309190052000188
:03091C004A00018D
:03091F0042000192
:00000001FF
