:100000000C9430000C940F030C9433030C9457039E
:100010000C949B040C9477040C9453040C940B04E0
:100020000C942F040C94E7030C94C3030C949F03CB
:100030000C94CF050C94CF050C94CF050C94CF05F0
:100040000C947B030C94CF050C94CF050C94CF0536
:100050000C94CF0500600088000BAE0088009A80E9
:1000600011241FBECFE5D8E0DEBFCDBFE4E5F0E050
:1000700040E017C0B591A59135912591059107FDF7
:100080000CC095918591EF01F92FE82F05900D9205
:10009000A217B307D9F7FE0104C01D92A217B30738
:1000A000E1F7E036F40731F70E94DE020C94BB055D
:0400B000F894FFCFF2
:1000B400009709F47DC0FC012081213001F130F06A
:1000C4002230F1F1233009F45BC074C0FC01838158
:1000D400811105C083B78F7C83BF81E0089582308E
:1000E40031F483B78F7C806283BF81E008958330CD
:1000F40009F062C083B7806383BF81E00895FC0187
:100104008381811105C08FB58F738FBD81E0089500
:10011400813031F48FB58F7780648FBD81E008958D
:10012400823031F48FB58F7380688FBD81E008957C
:10013400833009F043C08FB5806C8FBD81E0089592
:10014400FC018381811105C08FB58F7C8FBD81E057
:100154000895813031F48FB58F7D80618FBD81E04A
:100164000895823031F48FB58F7C80628FBD81E039
:100174000895833029F58FB580638FBD81E008959C
:10018400FC018381811105C085B58F7C85BD81E02B
:100194000895823031F485B58F7C806285BD81E01D
:1001A4000895833079F485B5806385BD81E0089531
:1001B40080E0089580E0089580E0089580E0089547
:0801C40080E0089580E0089539
:1001CC00009709F46BC0FC012181222319F0213026
:1001DC00A1F166C0FC012081211106C083B7877F85
:1001EC00806483BF81E008953FEF320F3230E8F432
:1001FC002EB5277E2EBDFC018281811106C08FB5E4
:10020C008D7F81608FBD81E00895813031F48FB591
:10021C008C7F82608FBD81E00895823009F042C0EE
:10022C008FB583608FBD81E008952330E9F585B5E6
:10023C00877F806485BD81E00895FC0120812111B8
:10024C0005C083B7886483BF81E008953FEF320F08
:10025C003230E8F42EB52F7E28602EBDFC01828151
:10026C00811106C08FB58D7F81608FBD81E00895AF
:10027C00813031F48FB58C7F82608FBD81E0089521
:10028C008230A1F48FB583608FBD81E00895233057
:10029C0079F485B5886485BD81E0089580E0089582
:1002AC0080E0089580E0089580E0089580E008954E
:0402BC0080E0089541
:1002C000FC01892B09F458C09081913079F030F00D
:1002D000923061F1933009F448C050C06F3F71050E
:1002E00011F008F04DC06CBF81E00895828181114A
:1002F00009C06F3F710511F008F044C07BBD6ABDB5
:1003000081E00895813041F4611582E07807E0F5DD
:100310007BBD6ABD81E008958230C1F5611584E03E
:100320007807B0F57BBD6ABD81E0089582818111B7
:1003300008C06F3F710509F068F579BD68BD81E0BF
:100340000895813041F4611582E0780728F579BD80
:1003500068BD81E00895823009F5611584E0780771
:10036000F8F479BD68BD81E008956F3F710509F02B
:10037000C8F463BD81E0089580E0089580E00895A9
:1003800080E0089580E0089580E0089580E0089579
:1003900080E0089580E0089580E0089580E0089569
:0803A00080E0089580E008955B
:1003A8000097E9F1FC012081233018F4213020F076
:1003B80016C0233039F135C0FC0184819FEF980FB6
:1003C800923030F0843021F09AEF980F923058F53F
:1003D80093B7987F8770892B83BF81E00895FC01CC
:1003E80084819FEF980F923030F0843021F09AEF9B
:1003F800980F9230D0F49EB5987F8770892B8EBD68
:1004080081E00895FC0184819FEF980F973078F47C
:1004180095B5987F8770892B85BD81E0089580E028
:10042800089580E0089580E0089580E0089580E0D0
:02043800089525
:10043A00FC01892B09F43FC08081869586958695B3
:10044A008770908196FB222720F996FF03C02130FE
:10045A00D1F033C0E081E770F0E0EE0FFF1FE859FA
:10046A00FF4F0190F081E02D408121E030E0B90199
:10047A0002C0660F771F8A95E2F7CB018095842325
:10048A00808381E00895E081E770F0E0EE0FFF1FBE
:10049A00E859FF4F0190F081E02D408121E030E0E2
:1004AA00B90102C0660F771F8A95E2F7CB01842B48
:0E04BA00808381E0089580E0089580E0089539
:1004C800FC01892BD9F19081969596959695977010
:1004D800662319F06130D1F033C0E081E770F0E0B5
:1004E800EE0FFF1FE05AFF4F0190F081E02D408191
:1004F80021E030E0B90102C0660F771F9A95E2F754
:10050800CB0180958423808381E00895E081E770A2
:10051800F0E0EE0FFF1FE05AFF4F0190F081E02D51
:10052800408121E030E0B90102C0660F771F9A953B
:10053800E2F7CB01842B808381E0089580E0089561
:0405480080E00895B2
:10054C00CF93DF930F92CDB7DEB7009751F1FC013B
:10055C008081813071F028F0823099F08330C9F0BD
:10056C0022C0809184008983CE0101960E942305CC
:10057C001BC0809185008983CE0101960E942305C2
:10058C0013C0809186008983CE0101960E942305B9
:10059C000BC0809187008983CE0101960E942305B0
:1005AC0003C080E001C080E00F90DF91CF910895EF
:1005BC000E9410058FE790E00E94DE048AE790E02D
:1005CC000E94DE0485E790E00E94DE0480E790E064
:1005DC000E94DE0410E0C12FD0E0BE018FE790E056
:1005EC000E946001BE018AE790E00E946001BE019A
:1005FC0085E790E00E946001BE0180E790E00E94D8
:10060C0060018FE99FE00197F1F700C000001B5FCC
:02061C00E2CF2B
:10061E001F920F920FB60F9211242F933F934F9369
:10062E005F936F937F938F939F93AF93BF93EF934C
:10063E00FF930E946305FF91EF91BF91AF919F9140
:10064E008F917F916F915F914F913F912F910F906D
:08065E000FBE0F901F901895CC
:100666001F920F920FB60F9211242F933F934F9321
:100676005F936F937F938F939F93AF93BF93EF9304
:10068600FF930E946E05FF91EF91BF91AF919F91ED
:100696008F917F916F915F914F913F912F910F9025
:0806A6000FBE0F901F90189584
:1006AE001F920F920FB60F9211242F933F934F93D9
:1006BE005F936F937F938F939F93AF93BF93EF93BC
:1006CE00FF930E947905FF91EF91BF91AF919F919A
:1006DE008F917F916F915F914F913F912F910F90DD
:0806EE000FBE0F901F9018953C
:1006F6001F920F920FB60F9211242F933F934F9391
:100706005F936F937F938F939F93AF93BF93EF9373
:10071600FF930E94C605FF91EF91BF91AF919F9104
:100726008F917F916F915F914F913F912F910F9094
:080736000FBE0F901F901895F3
:10073E001F920F920FB60F9211242F933F934F9348
:10074E005F936F937F938F939F93AF93BF93EF932B
:10075E00FF930E944705FF91EF91BF91AF919F913B
:10076E008F917F916F915F914F913F912F910F904C
:08077E000FBE0F901F901895AB
:100786001F920F920FB60F9211242F933F934F9300
:100796005F936F937F938F939F93AF93BF93EF93E3
:1007A600FF930E948405FF91EF91BF91AF919F91B6
:1007B6008F917F916F915F914F913F912F910F9004
:0807C6000FBE0F901F90189563
:1007CE001F920F920FB60F9211242F933F934F93B8
:1007DE005F936F937F938F939F93AF93BF93EF939B
:1007EE00FF930E943605FF91EF91BF91AF919F91BC
:1007FE008F917F916F915F914F913F912F910F90BC
:08080E000FBE0F901F9018951A
:100816001F920F920FB60F9211242F933F934F936F
:100826005F936F937F938F939F93AF93BF93EF9352
:10083600FF930E948F05FF91EF91BF91AF919F911A
:100846008F917F916F915F914F913F912F910F9073
:080856000FBE0F901F901895D2
:10085E001F920F920FB60F9211242F933F934F9327
:10086E005F936F937F938F939F93AF93BF93EF930A
:10087E00FF930E949A05FF91EF91BF91AF919F91C7
:10088E008F917F916F915F914F913F912F910F902B
:08089E000FBE0F901F9018958A
:1008A6001F920F920FB60F9211242F933F934F93DF
:1008B6005F936F937F938F939F93AF93BF93EF93C2
:1008C600FF930E94A505FF91EF91BF91AF919F9174
:1008D6008F917F916F915F914F913F912F910F90E3
:0808E6000FBE0F901F90189542
:1008EE001F920F920FB60F9211242F933F934F9397
:1008FE005F936F937F938F939F93AF93BF93EF937A
:10090E00FF930E945505FF91EF91BF91AF919F917B
:10091E008F917F916F915F914F913F912F910F909A
:08092E000FBE0F901F901895F9
:100936001F920F920FB60F9211242F933F934F934E
:100946005F936F937F938F939F93AF93BF93EF9331
:10095600FF930E94B005FF91EF91BF91AF919F91D8
:100966008F917F916F915F914F913F912F910F9052
:080976000FBE0F901F901895B1
:10097E000097C9F0FC018081833018F4813020F09B
:10098E0008C0833059F011C083B7887F83BF81E0E0
:10099E0008958EB5887F8EBD81E0089585B5887FD8
:0E09AE0085BD81E0089580E0089580E0089501
:1009BC000097A1F0FC018081833018F4813020F085
:1009CC0006C0833041F00CC012BE81E008951DBCFE
:1009DC001CBC81E0089514BC81E0089580E008956A
:0409EC0080E008950A
:1009F000CF93DF93009781F0EC010E94BF04CE01FA
:100A00000E94E600CE010E945A00CE010E94A6027A
:100A1000CE010E94D40101C080E0DF91CF91089502
:100A20000E94D3058FE790E00E94F8048AE790E0E7
:100A30000E94F80485E790E00E94F80480E790E0C7
:060A40000E94F804089575
:100A4600CF93DF93009759F0EC010E941D02688155
:100A560067FB662760F9CE010E94640201C080E050
:060A6600DF91CF9108951D
:100A6C0088B7846088BF80919400909195009DBD5B
:100A7C008CBDE0919200F0919300309709F00995AC
:020A8C000895CB
:100A8E0088B7816088BF8091980082BFE091900006
:0C0A9E00F0919100309709F0099508953F
:100AAA0088B7806488BF8091990084BDE0919600E0
:0C0ABA00F0919700309709F0099508951D
:100AC6008AB780648ABFE0918E00F0918F003097DC
:060AD60009F009950895E6
:100ADC008AB780688ABFE0918C00F0918D003097C6
:060AEC0009F009950895D0
:100AF2008AB780628ABFE0918A00F0918B003097BA
:060B020009F009950895B9
:100B080088B7826088BFE0919000F091910030979B
:060B180009F009950895A3
:100B1E0088B7806188BFE0919200F0919300309782
:060B2E0009F0099508958D
:100B340088B7886088BFE0919200F0919300309765
:060B440009F00995089577
:100B4A0088B7806288BFE0919200F0919300309755
:060B5A0009F00995089561
:100B600088B7806888BFE0919600F0919700309731
:060B700009F0099508954B
:100B7600EC010E94D5050E94D405CE010E94D6053F
:060B8600CE010E94D10522
:100B8C00349AE0918800F0918900309709F009952A
:020B9C000895BA
:040B9E000C940000B3
:040BA2000E94580055
:020BA6000895B0
:020BA8000895AE
:020BAA000895AC
:020BAC000895AA
:080BAE003B0038003500320065
:080BB6003A0037003400310061
:050BBE0003010002012B
:050BC300020100020127
:050BC800010100020123
:050BCD0000010002011F
:040BD200596B637B7D
:00000001FF
