:100000000C9433000C94190A0C943D0A0C94610A68
:100010000C94A50B0C94810B0C945D0B0C94150B9C
:100020000C94390B0C94F10A0C94CD0A0C94A90A87
:100030000C94350C0C94110C0C94ED0B0C94C90B16
:100040000C94850A0C94B80E0C94B80E0C94B80E4F
:100050000C94B80E00600062800062008C001D8469
:10006000008C00AC800011241FBECFE5D8E0DEBFBD
:10007000CDBFE4E5F0E040E017C0B591A591359122
:100080002591059107FD0CC095918591EF01F92F00
:10009000E82F05900D92A217B307D9F7FE0104C00F
:1000A0001D92A217B307E1F7E536F40731F70E9476
:0A00B000860D0C943A0EF894FFCF71
:1000BA00A2E2B0E0E3E6F0E00C94E00C29833A8394
:1000CA004B835C8329013A01E89477F8411451047F
:1000DA006104710409F4FFC569877A878B879C8755
:1000EA004B015C016115710500E880070FE3900779
:1000FA0009F4F1C56B017C01E894F7F811E0C11627
:10010A00D10410E8E1061FE7F1060CF0DFC5A1E013
:10011A004A165104A0E86A06AFE77A060CF0D6C57B
:10012A0097FF42C041145104B0E86B06BBE47B065A
:10013A00ECF541145104E0E86E06EFE37E060CF498
:10014A0059C05301420117E1B594A7949794879433
:10015A001A95D1F7FFE78F1A9108A108B108E7E1CC
:10016A00F0E0E819F909530142010E2E04C0B594D2
:10017A00A794979487940A94D2F78D829E82AF822D
:10018A00B88604C0880C991CAA1CBB1CEA95D2F735
:10019A00481459046A047B0469F5ED81E170B2E000
:1001AA009B2E9E1A9D8227C01D8202C002E00D83EB
:1001BA004114510410E861061FE77106E1F4C11405
:1001CA00D10480E8E8068FE3F80609F484C54CF008
:1001DA0089809A80AB80BC80B7FC82C5CA01B9010C
:1001EA0082C5E980FA800B811C8117FF79C5CA0193
:1001FA00B9017FC01D822D8B3E8B4F8B588F4B01CF
:10020A005C014114510400E860060FE3700679F4BA
:10021A00E980FA800B811C8117FF65C59B01AC013F
:10022A0060E070E080E89FE30E94AD0E5CC5098142
:10023A001A812B813C8101151105210540E43407FF
:10024A0029F49B01AC010E94B10E4DC589819A81A6
:10025A00AB81BC810097A105BF4359F409851A8572
:10026A002B853C8537FD05C0C501B4010E947C067B
:10027A003AC5C501B4010E94BA0EC114D104E10401
:10028A00F10449F01FE3B1228114910420E8A20687
:10029A002FE3B20681F589809A80AB80BC80B7FED5
:1002AA0008C09B01AC0160E070E080E89FE30E9417
:1002BA00AD0E89849A84AB84BC84B7FE14C500E869
:1002CA00E01A0FE3F00A1D81C12AC114D104E10426
:1002DA00F10459F481E290E0909361008093600008
:1002EA006FEF7FEF8FEF9FE7FEC40D81013009F0BA
:1002FA00FAC49058F8C489849A84AB84BC84B7FE43
:10030A0010C09D80992031F3092D013051F4812CC0
:10031A00912CA12CA0E8BA2E89869A86AB86BC8637
:10032A0004C019861A861B861C8601E040165104F1
:10033A0061040DE470060CF488C018EFC1161FEFB3
:10034A00D1061FE7E1061FE3F1063CF489809A8093
:10035A00AB80BC80B7FE41C317C308E0C016D10406
:10036A0000E8E0060FE3F0065CF089809A80AB8033
:10037A00BC80181419041A041B040CF405C32DC3F9
:10038A0020E030E040E85FE30E94810E6B017C01CF
:10039A0020E03AEA48EB5FE30E94B10E4B015C01B0
:1003AA0020E735EA4CEE56E3C701B6010E94B10ECA
:1003BA0069837A838B839C8320E030E040E85EE3A4
:1003CA00C701B6010E94B10E9B01AC016BEA7AEA41
:1003DA008AEA9EE30E94810EA70196010E94B10E4D
:1003EA009B01AC0160E070E080E09FE30E94810E17
:1003FA002B013C01A7019601C701B6010E94B10E6B
:10040A009B01AC01C301B2010E94B10E2BE33AEA8F
:10041A0048EB5FE30E94B10E9B01AC0169817A81CE
:10042A008B819C810E94810E6B017C019B01AC0136
:10043A00C501B4010E94820E6627707F6D837E8398
:10044A008F839887A501940120C2C114D10400E8C2
:10045A00E006F1046CF420E030E040E85BE40E943E
:10046A00B10E6B017C0148EE5FEF6FEF7FEF03C0C7
:10047A0040E050E0BA01D701C601F7E1B595A7956A
:10048A0097958795FA95D1F78F579109A109B109DF
:10049A004C015D01840E951EA61EB71E898A9A8A92
:1004AA00AB8ABC8AE894E7F8FF24460157016894AE
:1004BA00A7F80FE3B02A12E7C11614ECD1061CE123
:1004CA00E106F104B4F027EDC21623EBD2062DE5BE
:1004DA00E206F1049CF089899A89AB89BC89019664
:1004EA00A11DB11D898B9A8BAB8BBC8B90E8A91A85
:1004FA00B1081D821E821F82188608C0E12CF12CC9
:10050A008701E394ED82FE820F8318870D811E8195
:10051A00000F111F000F111F1AA309A3F801EC57AE
:10052A00FF4FE080F18002811381ED86FE860F87FE
:10053A00188BA8019701C501B4010E94810E698F29
:10054A007A8F8B8F9C8FA8019701C501B4010E94F5
:10055A00820E9B01AC0160E070E080E89FE30E949C
:10056A00AD0E6D8F7E8F8F8F98A39B01AC01698D25
:10057A007A8D8B8D9C8D0E94B10E69837A838B83D1
:10058A009C8349805A806B807C80442400EF5022EF
:10059A0075016401F594E794D794C794CC2410EFBD
:1005AA00D122E894F5F86894F5F8D701C601A05C61
:1005BA00BF4FCD80DE80EF80F88475E1CC0CDD1C66
:1005CA00EE1CFF1C7A95D1F7C80ED91EEA1EFB1E37
:1005DA00A7019601C301B2010E94B10E9B01AC01B1
:1005EA00698D7A8D8B8D9C8D0E94810E6D837E83A1
:1005FA008F8398872D853E854F855889C701B60117
:10060A000E94810E9B01AC01C501B4010E94810EBA
:10061A00A30192010E94B10E9B01AC016D817E8102
:10062A008F8198850E94810E2D8D3E8D4F8D58A108
:10063A000E94B10E6D837E838F83988729813A81C8
:10064A004B815C81CA01B9010E94B10E6B017C0128
:10065A0022E431EF43E55EE30E94B10E25E532E381
:10066A004CE65EE30E94820EA70196010E94B10E3B
:10067A0025E033EA4BE85EE30E94820EA701960169
:10068A000E94B10E2BEA3AEA4AEA5EE30E94820E1F
:10069A00A70196010E94B10E27EB3DE64BED5EE302
:1006AA000E94820EA70196010E94B10E2AE939E939
:1006BA0049E15FE30E94820E4B015C01A7019601AA
:1006CA00C701B6010E94B10E9B01AC01C501B4017C
:1006DA000E94B10E6B017C01A301920169817A81AA
:1006EA008B819C810E94820E2D813E814F8158858B
:1006FA000E94B10EA70196010E94820E6B017C0135
:10070A00A3019201C301B2010E94B10E6D877E87D7
:10071A008F87988B20E030E040E450E40E94820EFC
:10072A00A70196010E94820E4B015C01882420EFEA
:10073A009222A5019401C301B2010E94B10E2B01BC
:10074A003C0120E030E040E450E4C501B4010E94DD
:10075A00810E2D853E854F8558890E94810E9B0109
:10076A00AC01C701B6010E94810E29813A814B81F1
:10077A005C810E94B10E6B017C01A50194016D811F
:10078A007E818F8198850E94B10E9B01AC01C701C1
:10079A00B6010E94820E4B015C019B01AC01C301B0
:1007AA00B2010E94820E6B017C01CC2430EFD3226D
:1007BA0020E030E446E75FE3C701B6010E94B10ECC
:1007CA0069837A838B839C83A3019201C701B60153
:1007DA000E94810E9B01AC01C501B4010E94810EE9
:1007EA002FE438E346E75FE30E94B10E4B015C0158
:1007FA0026EC33E246EF58EBC701B6010E94B10E70
:10080A009B01AC01C501B4010E94820EE9A1FAA1C3
:10081A00EC58FF4F20813181428153810E94820E20
:10082A006B017C0169897A898B899C890E94880974
:10083A004B015C0109A11AA104581F4FD8014D9020
:10084A005D906D907C90A701960169817A818B8178
:10085A009C810E94820EA30192010E94820EA50130
:10086A0094010E94820E6627707F6D837E838F8338
:10087A009887A50194010E94810EA30192010E940A
:10088A00810E29813A814B815C810E94810E9B01F4
:10089A00AC01C701B6010E94810E4B015C01CD88F3
:1008AA00DE88EF88F88CCC24B0EFDB22A701960112
:1008BA006D897E898F89988D0E94810E2D813E8156
:1008CA004F8158850E94B10E2B013C012D893E892A
:1008DA004F89588DC501B4010E94B10E9B01AC012C
:1008EA00C301B2010E94820E69837A838B839C833F
:1008FA00A70196016D817E818F8198850E94B10E34
:10090A00962EA72EB82E892E6D87798B182F092F30
:10091A00262F372F482F592F69817A818B819C8105
:10092A000E94820E6B017C016D837E838F83988780
:10093A0081E0C816D104E10483E4F8062CF52D8180
:10094A003E814F815885211531054105534419F5DA
:10095A002CE33AEA48E353E369817A818B819C81EB
:10096A000E94820E2B013C01292D3A2D4B2D582D28
:10097A00C701B6010E94810E9B01AC01C301B201FD
:10098A000E94A80E181674F589859A85AB85BC85D0
:10099A00A068BF6798C1D701C601BF770197A64172
:1009AA00B344DCF42D813E814F81588521153105F0
:1009BA004641534CB9F4292D3A2D4B2D582DC701D8
:1009CA00B6010E94810E9B01AC0169817A818B81FB
:1009DA009C810E94A30E18162CF069857A858B8556
:1009EA009C8581C1D701C601BF7781309105A105D8
:1009FA00EFE3BE070CF46AC037E1B595A795979562
:100A0A0087953A95D1F78E5740E050E060E870E05C
:100A1A008A019B0104C035952795179507958A95F4
:100A2A00D2F7C00ED11EE21EF31E26013701E8944A
:100A3A0077F847E175946794579447944A95D1F7A4
:100A4A001FE7411A5108610871088FEF9FEFAFE75E
:100A5A00B0E0042C04C0B595A795979587950A949C
:100A6A00D2F780959095A095B0959C01AD012C2167
:100A7A003D214E215F21E894E7F8FF246894E7F8C6
:100A8A0087E190E0841995092601370104C075941D
:100A9A006794579447948A95D2F7ED80FE800F8128
:100AAA00188517FF08C07094609450944094411CB4
:100ABA00511C611C711C692D7A2D8B2D982D0E9459
:100ACA00810E6D87798B182F092F03C0412C512C69
:100ADA00320129813A814B815C816D857989812F27
:100AEA00902F0E94820E4B015C01882420E89222FA
:100AFA0020E032E741E35FE3C501B4010E94B10E91
:100B0A006D837E838F8398872D853989412F502F56
:100B1A00C501B4010E94810E9B01AC0169817A81F1
:100B2A008B819C810E94810E28E132E741E35FE3D9
:100B3A000E94B10E6B017C012CE83EEB4FEB55E3B2
:100B4A00C501B4010E94B10E9B01AC01C701B601F7
:100B5A000E94820E4B015C019B01AC016D817E817A
:100B6A008F8198850E94820E6B017C012D813E81C6
:100B7A004F8158850E94810E9B01AC01C501B401C9
:100B8A000E94810E69837A838B839C83A7019601D5
:100B9A00C701B6010E94B10E4B015C012CE43BEB8C
:100BAA0041E353E30E94B10E2EE03AEE4DED55E3D8
:100BBA000E94810EA50194010E94B10E25E533EB36
:100BCA004AE858E30E94820EA50194010E94B10EE0
:100BDA0021E63BE046E35BE30E94810EA501940116
:100BEA000E94B10E2BEA3AEA4AE25EE30E94820EC2
:100BFA00A50194010E94B10E9B01AC01C701B60187
:100C0A000E94810E4B015C019B01AC01C701B60138
:100C1A000E94B10E6D837E838F83988720E030E037
:100C2A0040E050E4C501B4010E94810E9B01AC0171
:100C3A006D817E818F8198850E94AD0E4B015C018A
:100C4A0029813A814B815C81C701B6010E94B10EAC
:100C5A0029813A814B815C810E94820E9B01AC0101
:100C6A00C501B4010E94810EA70196010E94810E5E
:100C7A009B01AC0160E070E080E89FE30E94810E76
:100C8A005301420127E1880C991CAA1CBB1C2A9516
:100C9A00D1F7860E971EA81EB91E8114910430E85A
:100CAA00A306B10424F4A2010E94920802C0C5015D
:100CBA00B40189849A84AB84BC8486269726A826A4
:100CCA00B926D501C401BC01CD010DC060E070E0B8
:100CDA0080EC9FE708C060E070E080E89FE303C013
:0E0CEA0060E070E0CB01A296E0E10C94170DE3
:100CF800A4E0B0E0E2E8F6E00C94E00C8B019C0183
:100D0800AC0140785F776B017C0140385F4761F444
:100D1800E894E7F8FF24C114D104E104F10409F0D0
:100D2800ACC097FDAAC0AEC0E894F7F8C114D104CE
:100D3800E104F10409F4A6C097FF07C081E290E03E
:100D4800909361008093600098C0DC01CB0167E15B
:100D5800B595A795979587956A95D1F70097A105B9
:100D6800B105B9F480E090E0DC0127FD08C0000F70
:100D7800111F221F331F0196A11DB11DF6CF019728
:100D8800A109B109B095A095909581959F4FAF4F56
:100D9800BF4F8F579109A109B1092F7733272068D1
:100DA80080FF04C0000F111F221F331FAC01BD01BB
:100DB800759567955795479549835A836B837C83C7
:100DC800000F111F221F331F49E150E0812C912C85
:100DD8005401B394C12CD12C760180E090E0DC0161
:100DE8002C013D01480C591C6A1C7B1C0415150577
:100DF8002605370574F0D301C201880D991DAA1D77
:100E0800BB1D0419150926093709C80CD91CEA1C89
:100E1800FB1C000F111F221F331FB694A794979431
:100E2800879441505109E1F6011511052105310555
:100E380051F0970186010170112722273327C00E30
:100E4800D11EE21EF31EF594E794D794C79451EC93
:100E5800F51A89819A81AB81BC8127E1880F991F96
:100E6800AA1FBB1F2A95D1F78C0D9D1DAE1DBF1D56
:100E7800482F392F2A2F5B2F09C040E030E020ECA3
:100E88005FE704C0462F372F282F592F642F732F61
:0C0E9800822F952F2496E0E10C94170D9A
:100EA40010C00E948F0E58F00E94880E40F029F462
:100EB4005F3F29F00C949D0E51110C94970E0C94E5
:100EC400B50E0E947D0C68F39923B1F3552391F379
:100ED400951B550BBB27AA2762177307840738F0A5
:100EE4009F5F5F4F220F331F441FAA1FA9F335D002
:100EF4000E2E3AF0E0E832D091505040E695001CB6
:100F0400CAF72BD0FE2F29D0660F771F881FBB1F6F
:100F1400261737074807AB07B0E809F0BB0B802D4D
:100F2400BF01FF2793585F4F3AF09E3F510578F079
:100F34000C949D0E0C94970E5F3FE4F3983ED4F30B
:100F4400869577956795B795F7959F5FC9F7880F4D
:100F5400911D9695879597F90895E1E0660F771F9F
:100F6400881FBB1F621773078407BA0720F0621B30
:0E0F7400730B840BBA0BEE1F88F7E0950895FF
:100F82000FC00E94880E38F00E948F0E20F0952329
:100F920011F00C949D0E0C94B50E11240C94970E26
:100FA2000E947D0C70F3959FC1F3950F50E0551F81
:100FB200629FF001729FBB27F00DB11D639FAA27AC
:100FC200F00DB11DAA1F649F6627B00DA11D661FFB
:100FD200829F2227B00DA11D621F739FB00DA11D1C
:100FE200621F839FA00D611D221F749F3327A00DD6
:100FF200611D231F849F600D211D822F762F6A2F72
:1010020011249F5750409AF0F1F088234AF0EE0FD6
:10101200FF1FBB1F661F771F881F91505040A9F703
:101022009E3F510580F00C949D0E0C94970E5F3FED
:10103200E4F3983ED4F3869577956795B795F7953F
:10104200E7959F5FC1F7FE2B880F911D96958795B7
:0410520097F908956D
:1010560011C00E94880E38F00E948F0E20F039F4DD
:101066009F3F19F426F40C94B50E0EF4E095E7FBB9
:101076000C949D0EE92F0E947D0C58F3BA17620757
:1010860073078407950720F079F4A6F50C94960E5D
:101096000EF4E0950B2EBA2FA02D0B01B90190018D
:1010A6000C01CA01A0011124FF27591B99F0593FD1
:1010B60050F4503E68F11A16F040A22F232F342F19
:1010C6004427585FF3CF469537952795A795F04067
:1010D6005395C9F77EF41F16BA0B620B730B840B7C
:1010E600BAF09150A1F0FF0FBB1F661F771F881F34
:1010F600C2F70EC0BA0F621F731F841F48F487958C
:1011060077956795B795F7959E3F08F0B0CF93957D
:0E111600880F08F09927EE0F9795879508959A
:101124000F931F93CF93DF93EA0140385105D4F016
:1011340020E030E040E05FE70E94B10E9E012F57AF
:101144003109203831056CF120E030E040E05FE700
:101154000E94B10ECE5FD109C038D1051CF1CFE792
:10116400D0E020C042385F4FECF420E030E040E8AB
:101174005CE00E94B10E9E012A593F4F22384FEF86
:1011840034077CF420E030E040E85CE00E94B10EDB
:10119400C453DF4FC2382FEFD20724F4C2E8DFEF85
:1011A40001C0E9019E0121583F4F8901330F220BF1
:1011B400330BA9019801E7E1220F331F441F551F88
:1011C400EA95D1F70E94B10EDF91CF911F910F9153
:0211D40008957C
:1011D600CF92DF92EF92FF92009709F445C0FC018F
:1011E60022812223D1F1213009F040C0878183700A
:1011F60081B9238134814581568160E072E18AE7B5
:1012060090E00E949F0CCA01B9010E94860920E065
:1012160030E040E851E40E94810E6B017C0161B12F
:10122600637070E080E090E00E9488099B01AC0149
:1012360060E070E080E890E40E945D009B01AC01F4
:101246000E94820E9B01AC01C701B6010E94AD0E41
:101256000E94C30960B981E00AC0FC0180858E7FC7
:1012660082B9109881E003C080E001C080E0FF9061
:08127600EF90DF90CF90089586
:10127E00FC01892B09F43FC0808186958695869561
:10128E008770908196FB222720F996FF03C02130AC
:10129E00D1F033C0E081E770F0E0EE0FFF1FE459AC
:1012AE00FF4F0190F081E02D408121E030E0B90147
:1012BE0002C0660F771F8A95E2F7CB0180958423D3
:1012CE00808381E00895E081E770F0E0EE0FFF1F6C
:1012DE00E459FF4F0190F081E02D408121E030E094
:1012EE00B90102C0660F771F8A95E2F7CB01842BF6
:0E12FE00808381E0089580E0089580E00895E7
:10130C00E89409C097FB3EF4909580957095619593
:10131C007F4F8F4F9F4F9923A9F0F92F96E9BB2749
:10132C009395F695879577956795B795F111F8CFC5
:10133C00FAF4BB0F11F460FF1BC06F5F7F4F8F4F30
:10134C009F4F16C0882311F096E911C0772321F026
:10135C009EE8872F762F05C0662371F096E8862FBE
:10136C0070E060E02AF09A95660F771F881FDAF715
:0A137C00880F9695879597F908955C
:101386000E94850C88F09F5798F0B92F9927B7517E
:10139600B0F0E1F0660F771F881F991F1AF0BA9513
:1013A600C9F714C0B13091F00E94960EB1E00895CD
:1013B6000C94960E672F782F8827B85F39F0B93FBF
:1013C600CCF3869577956795B395D9F73EF49095C6
:0E13D6008095709561957F4F8F4F9F4F0895C2
:1013E400FC01892BF1F063B906B607FEFDCF96B771
:1013F400906896BF8281882369F08130A1F481B11D
:10140400887F883191F091B1987F81E0983271F0B2
:1014140080E0089591B1987F81E0983B39F080E0B5
:0E142400089580E0089580E0089581E0089525
:101432001F920F920FB60F9211242F933F934F9347
:101442005F936F937F938F939F93AF93BF93EF932A
:10145200FF930E94E20DFF91EF91BF91AF919F9197
:101462008F917F916F915F914F913F912F910F904B
:081472000FBE0F901F901895AA
:10147A001F920F920FB60F9211242F933F934F93FF
:10148A005F936F937F938F939F93AF93BF93EF93E2
:10149A00FF930E94ED0DFF91EF91BF91AF919F9144
:1014AA008F917F916F915F914F913F912F910F9003
:0814BA000FBE0F901F90189562
:1014C2001F920F920FB60F9211242F933F934F93B7
:1014D2005F936F937F938F939F93AF93BF93EF939A
:1014E200FF930E94F80DFF91EF91BF91AF919F91F1
:1014F2008F917F916F915F914F913F912F910F90BB
:081502000FBE0F901F90189519
:10150A001F920F920FB60F9211242F933F934F936E
:10151A005F936F937F938F939F93AF93BF93EF9351
:10152A00FF930E94450EFF91EF91BF91AF919F915A
:10153A008F917F916F915F914F913F912F910F9072
:08154A000FBE0F901F901895D1
:101552001F920F920FB60F9211242F933F934F9326
:101562005F936F937F938F939F93AF93BF93EF9309
:10157200FF930E94BA0DFF91EF91BF91AF919F919E
:101582008F917F916F915F914F913F912F910F902A
:081592000FBE0F901F90189589
:10159A001F920F920FB60F9211242F933F934F93DE
:1015AA005F936F937F938F939F93AF93BF93EF93C1
:1015BA00FF930E94030EFF91EF91BF91AF919F910C
:1015CA008F917F916F915F914F913F912F910F90E2
:0815DA000FBE0F901F90189541
:1015E2001F920F920FB60F9211242F933F934F9396
:1015F2005F936F937F938F939F93AF93BF93EF9379
:10160200FF930E94980DFF91EF91BF91AF919F912F
:101612008F917F916F915F914F913F912F910F9099
:081622000FBE0F901F901895F8
:10162A001F920F920FB60F9211242F933F934F934D
:10163A005F936F937F938F939F93AF93BF93EF9330
:10164A00FF930E940E0EFF91EF91BF91AF919F9170
:10165A008F917F916F915F914F913F912F910F9051
:08166A000FBE0F901F901895B0
:101672001F920F920FB60F9211242F933F934F9305
:101682005F936F937F938F939F93AF93BF93EF93E8
:10169200FF930E94190EFF91EF91BF91AF919F911D
:1016A2008F917F916F915F914F913F912F910F9009
:0816B2000FBE0F901F90189568
:1016BA001F920F920FB60F9211242F933F934F93BD
:1016CA005F936F937F938F939F93AF93BF93EF93A0
:1016DA00FF930E94240EFF91EF91BF91AF919F91CA
:1016EA008F917F916F915F914F913F912F910F90C1
:0816FA000FBE0F901F90189520
:101702001F920F920FB60F9211242F933F934F9374
:101712005F936F937F938F939F93AF93BF93EF9357
:10172200FF930E94C80DFF91EF91BF91AF919F91DE
:101732008F917F916F915F914F913F912F910F9078
:081742000FBE0F901F901895D7
:10174A001F920F920FB60F9211242F933F934F932C
:10175A005F936F937F938F939F93AF93BF93EF930F
:10176A00FF930E942F0EFF91EF91BF91AF919F912E
:10177A008F917F916F915F914F913F912F910F9030
:08178A000FBE0F901F9018958F
:101792001F920F920FB60F9211242F933F934F93E4
:1017A2005F936F937F938F939F93AF93BF93EF93C7
:1017B200FF930E94570EFF91EF91BF91AF919F91BE
:1017C2008F917F916F915F914F913F912F910F90E8
:0817D2000FBE0F901F90189547
:1017DA001F920F920FB60F9211242F933F934F939C
:1017EA005F936F937F938F939F93AF93BF93EF937F
:1017FA00FF930E94720EFF91EF91BF91AF919F915B
:10180A008F917F916F915F914F913F912F910F909F
:08181A000FBE0F901F901895FE
:101822001F920F920FB60F9211242F933F934F9353
:101832005F936F937F938F939F93AF93BF93EF9336
:10184200FF930E94480DFF91EF91BF91AF919F913D
:101852008F917F916F915F914F913F912F910F9057
:081862000FBE0F901F901895B6
:10186A001F920F920FB60F9211242F933F934F930B
:10187A005F936F937F938F939F93AF93BF93EF93EE
:10188A00FF930E944E0EFF91EF91BF91AF919F91EE
:10189A008F917F916F915F914F913F912F910F900F
:0818AA000FBE0F901F9018956E
:1018B200990F0008550FAA0BE0E8FEEF161617065F
:1018C200E807F907C0F012161306E407F50798F0C7
:1018D200621B730B840B950B39F40A2661F0232BE0
:1018E200242B252B21F408950A2609F4A140A6955C
:0818F2008FEF811D811D089597
:1018FA0057FD9058440F551F59F05F3F71F04795B7
:10190A00880F97FB991F61F09F3F79F0879508959B
:10191A00121613061406551FF2CF4695F1DF08C0BA
:10192A00161617061806991FF1CF869571056105D7
:04193A000894089570
:10193E00A1E21A2EAA1BBB1BFD010DC0AA1FBB1FC5
:10194E00EE1FFF1FA217B307E407F50720F0A21B37
:10195E00B30BE40BF50B661F771F881F991F1A94A4
:10196E0069F760957095809590959B01AC01BD01CE
:04197E00CF010895F8
:101982000F931F93CF93DF93009789F0142F062FA5
:10199200EC010E945E0D602FCE010E94F209612FC0
:1019A200CE010E94F209CE010E94D60D01C080E054
:0A19B200DF91CF911F910F9108956E
:1019BC002F923F924F925F926F927F928F929F9253
:1019CC00AF92BF92CF92DF92EF92FF920F931F9341
:1019DC00CF93DF93CDB7DEB7CA1BDB0B0FB6F894F2
:0819EC00DEBF0FBECDBF099460
:1019F400CF93DF9300D0CDB7DEB7892B71F082E0AF
:101A04008A838AE08983CE0102960E943F09CE012F
:101A140001960E943F0981E001C080E00F900F9081
:061A2400DF91CF9108954F
:101A2A002A88398848885F846E847D848C849B8464
:101A3A00AA84B984C884DF80EE80FD800C811B8172
:101A4A00AA81B981CE0FD11D0FB6F894DEBF0FBEA1
:061A5A00CDBFED0108956F
:101A6000CF93DF93009781F0EC010E94600ECE01CE
:101A70000E94EB08CE010E94FA0CCE010E94720D6A
:101A8000CE010E94690E01C080E0DF91CF910895E0
:101A9000E091A200F091A300309709F00995E09140
:101AA000A000F091A100309709F00995E0919E0007
:0C1AB000F0919F00309709F0099508950F
:101ABC00892B81F086B7806886BF86B7806286BF27
:101ACC0006B607FEFDCF91B1987F81E0983019F0F2
:081ADC0080E0089580E0089508
:101AE400FC01892B79F096B7916096BF96B7906800
:101AF40096BF7894808191819093A9008093A800E7
:081B040081E0089580E00895DE
:101B0C000E947A0E4DE460E382E690E00E94C10CE4
:101B1C002FEF82E597E0215080409040E1F700C024
:041B2C000000F0CFF6
:101B300088B7846088BF80919A0090919B009DBD7A
:101B40008CBDE0919800F0919900309709F00995CB
:021B50000895F6
:101B5200092E0394000C11F4882352F0BB0F40F4B9
:101B6200BF2B11F460FF04C06F5F7F4F8F4F9F4FF9
:021B72000895D4
:101B740088B7816088BF8091AA0082BFE0919600F7
:0C1B8400F0919700309709F00995089542
:101B900088B7806488BF8091AB0084BDE0919C00D1
:0C1BA000F0919D00309709F00995089520
:101BAC00892B41F086B7806886BF86B7806186BF77
:081BBC0081E0089580E0089526
:101BC4008AB780648ABFE0919200F09193003097C5
:061BD40009F009950895D7
:101BDA008AB780688ABFE0919000F09191003097AF
:061BEA0009F009950895C1
:101BF0008AB780628ABFE0918E00F0918F003097A3
:061C000009F009950895AA
:101C060088B7826088BFE0919600F0919700309780
:061C160009F00995089594
:101C1C0088B7806188BFE0919800F0919900309767
:061C2C0009F0099508957E
:101C320088B7886088BFE0919800F091990030974A
:061C420009F00995089568
:101C480088B7806288BFE0919800F091990030973A
:061C580009F00995089552
:101C5E0088B7806888BFE0919C00F0919D00309716
:061C6E0009F0099508953C
:101C7400EC010E94C00E0E94BF0ECE010E94C10E54
:061C8400CE010E94BC0E1F
:101C8A00349AE0918C00F0918D00309709F0099513
:021C9A000895AB
:101C9C008FB1E0919400F0919500309709F009957F
:021CAC00089599
:101CAE005E9AE091A600F091A700309709F0099591
:021CBE00089587
:101CC000892B29F086B78B7F86BF81E0089580E05D
:021CD000089575
:101CD200892B29F086B7846086BF81E0089580E071
:021CE200089563
:101CE400E091A400F091A500309709F009950895BA
:0E1CF4000E94BE0E82E690E00E94300D089520
:0E1D02005058BB27AA270E942B080C94A90D4D
:0E1D100000240A9416161706180609060895F0
:0E1D1E0000240A9412161306140605060895F2
:0E1D2C00E894BB2766277727CB0197F9089527
:0C1D3A0097F99F6780E870E060E0089572
:0A1D46000E94590C08F481E0089592
:0A1D50000E94590C08F48FEF08956B
:081D5A000E9452070C94A90D30
:081D62000E94C1070C94A90DB9
:061D6A009FEF80EC0895DC
:041D70000C940000CF
:041D74009F770895B8
:041D78000E945B006A
:021D7C000895C8
:021D7E000895C6
:021D80000895C4
:021D82000895C2
:0A1D8400000001A08601000000002D
:081D8E003A0037003400310077
:081D960000000000DCCFD13594
:081D9E000000000000C0153F29
:081DA6000000803F0000C03F77
:00000001FF
