:100000000C9430000C9440020C9440020C9440027A
:100010000C9440020C9440020C9440020C94400258
:100020000C9440020C9440020C9440020C94400248
:100030000C9440020C9440020C9440020C94400238
:100040000C9440020C9440020C9440020C94400228
:100050000C9440020060009300048E009300948092
:1000600011241FBECFE5D8E0DEBFCDBFE4E5F0E050
:1000700040E017C0B591A59135912591059107FDF7
:100080000CC095918591EF01F92FE82F05900D9205
:10009000A217B307D9F7FE0104C01D92A217B30738
:1000A000E1F7E036F40731F70E94D2010C942C02FC
:0400B000F894FFCFF2
:1000B4004F925F926F927F928F929F92AF92BF9274
:1000C400CF92DF92EF92FF920F931F93CF93DF9320
:1000D4000F92CDB7DEB7009709F44DC061157105D5
:1000E40009F44BC02B017C01C12CD12C5C0184E0B0
:1000F400A80EB11C3EC060E0C8010E9419010F5F48
:100104001F4FA016B106B9F7360161E0C7018C0D87
:100114009D1D0E941901EFE3FCE93197F1F700C03E
:10012400000000E010E0BE016F5F7F4FC80104963D
:100134008E0D9F1D0E94AD019981913071F4930140
:10014400220F331F220F331F205A3F4FF901E00FB4
:10015400F11F9081F201908305C00F5F1F4F04309F
:10016400110509F7FFEFCF1ADF0A94E0C916D1048D
:1001740029F08701C0CF80E001C080E00F90DF91BB
:10018400CF911F910F91FF90EF90DF90CF90BF9090
:10019400AF909F908F907F906F905F904F90089555
:1001A400FC01892B09F43FC080818695869586954C
:1001B4008770908196FB222720F996FF03C0213097
:1001C400D1F033C0E081E770F0E0EE0FFF1FE0589C
:1001D400FF4F0190F081E02D408121E030E0B90132
:1001E40002C0660F771F8A95E2F7CB0180958423BE
:1001F400808381E00895E081E770F0E0EE0FFF1F57
:10020400E058FF4F0190F081E02D408121E030E083
:10021400B90102C0660F771F8A95E2F7CB01842BE0
:0E022400808381E0089580E0089580E00895D1
:10023200FC01892BD9F190819695969596959770A8
:10024200662319F06130D1F033C0E081E770F0E04D
:10025200EE0FFF1FE059FF4F0190F081E02D40812A
:1002620021E030E0B90102C0660F771F9A95E2F7EC
:10027200CB0180958423808381E00895E081E7703B
:10028200F0E0EE0FFF1FE059FF4F0190F081E02DEB
:10029200408121E030E0B90102C0660F771F9A95D4
:1002A200E2F7CB01842B808381E0089580E00895FA
:0402B20080E008954B
:1002B6001F93CF93DF93009709F1EC010E94D200C0
:1002C6008A81882319F0813039F013C08981813001
:1002D60049F0882349F00DC08981813039F088239F
:1002E60039F007C010E005C011E003C011E001C0FD
:1002F60010E0612FCE010E94190101C080E0DF915C
:06030600CF911F91089544
:10030C000F931F93CF93DF930097D9F08C010E942A
:10031C001902C80101960E941902C80102960E9496
:10032C001902C80103960E941902E8012496085F7D
:10033C001F4FCE010E94D2002196C017D107C9F7DA
:0E034C0001C080E0DF91CF911F910F910895C5
:10035A000097F9F061157105F1F0DC012C912695F1
:10036A00269526952770EC91E770F0E0EE0FFF1FB7
:10037A00E858FF4F0190F081E02D808190E002C0A3
:10038A00959587952A95E2F78170FB01808381E034
:0A039A00089580E0089580E00895C2
:1003A4000E94370263E970E088E890E00E945A00F6
:1003B40080919300833329F480E990E00E94040241
:1003C400F1CF863329F480E990E00E940402EACF59
:0A03D40080E990E00E94EF01E5CF00
:1003DE00009779F0FC012281222319F0213029F0B7
:1003EE000AC061E00E941901089560E00E9419019F
:0A03FE00089580E0089580E008955E
:10040800009779F0FC012281222319F0213029F08C
:100418000AC060E00E941901089561E00E94190174
:0A042800089580E0089580E0089533
:10043200CF93DF93009759F0EC010E94D2006881BC
:1004420067FB662760F9CE010E94190101C080E0B6
:06045200DF91CF91089537
:10045800EC010E9445020E944402CE010E9446021D
:06046800CE010E944202D9
:10046E0088E890E00E94860180E990E00E945B019E
:02047E000895DF
:040480000C940000D8
:040484000E9458007A
:020488000895D5
:02048A000895D3
:02048C000895D1
:10048E003738392F3435362A3132332D43303D2B20
:08049E003B003800350032007C
:0804A60039003600330030007C
:0804AE003A0037003400310070
:0804B600424A525A222A323A4E
:0304BE00430001F7
:00000001FF
