:100000000C9436000C9495040C94B9040C94DD0403
:100010000C9421060C94FD050C94D9050C949105C3
:100020000C94B5050C946D050C9449050C942505AC
:100030000C94B1060C948D060C9469060C9445063C
:100040000C9401050C9429080C9429080C94290897
:100050000C9429080060008C001062008C009C80C9
:10006000009C009E00108E009E00AD8011241FBEDB
:10007000CFE5D8E0DEBFCDBFE4E5F0E040E017C05B
:10008000B591A59135912591059107FD0CC09591EC
:100090008591EF01F92FE82F05900D92A217B30774
:1000A000D9F7FE0104C01D92A217B307E1F7EC36A1
:1000B000F40731F70E94C1070C94B607F894FFCFFC
:1000C0000F931F93CF93DF930F92CDB7DEB70097B7
:1000D00009F48CC18C01FC018785882321F08130D3
:1000E00009F47FC0ABC080B5806880BD80B58F7BD0
:1000F00080BDF8018689811102C0589803C0813003
:1001000009F4589A80B5806880BDF801858981110D
:1001100008C080B58D7F80BD80B58B7F80BD529833
:1001200027C0813041F480B5826080BD80B58B7F6F
:1001300080BD52981DC0823041F480B58D7F80BD56
:1001400080B5846080BD529813C0833041F480B57F
:10015000826080BD80B5846080BD529809C08730C0
:1001600039F480B5826080BD80B5846080BD529ACC
:10017000F8018789813051F480B5806880BD80B5F1
:100180008F7E80BD80B5806280BD17C0823051F403
:1001900080B5806880BD80B5806180BD80B580629B
:1001A00080BD0BC0811109C080B5806880BD80B55D
:1001B0008F7E80BD80B58F7D80BDF801808D8111DF
:1001C00007C080B5806880BD80B5877F80BD36C0A0
:1001D0008130A1F580B5806880BD80B5886080BD24
:1001E0002DC080B5806880BD80B5806480BDF80179
:1001F000828D811107C080B5806880BD80B58E7FFB
:1002000080BD08C0813031F480B5806880BD80B584
:10021000816080BDF801818D813041F480919C0026
:100220008983CE0101960E940D0708C0811106C086
:1002300081E08983CE0101960E940D07F801878530
:10024000882321F0813009F44FC072C0F8018489FD
:1002500081111CC0599860897189828993890E9493
:10026000290420E030E040E851E40E9422089B018C
:10027000AC0160E074E284EF9AE40E941E0820E082
:1002800030E040E85FE30E94FC0722C08130E9F4DF
:10029000599AF80160897189828993890E94290499
:1002A00020E030E040E051E40E9422089B01AC01D4
:1002B00060E074E284EF9AE40E941E0820E030E0DF
:1002C00040E85FE30E94FC0703C060E070E0CB0100
:1002D00020B52F7720BD0E94660469B9BB27A92FDE
:1002E000982F872F80BD24C0F80160897189828989
:1002F00093890E9429049B01AC010E94FD079B0188
:10030000AC0160E074E284EF9AE40E941E0820E0F1
:1003100030E040E85FE30E94FC0720B52F7720BD66
:100320000E94660469B9BB27A92F982F872F80BD2B
:10033000F8018681813049F5539A8481813051F4E6
:100340005E9A569A7894808191819093A7008093C9
:10035000A60003C0811101C05698F8018581813043
:1003600049F4559A7894828193819093A500809363
:10037000A40003C0811101C0559880919D0089831C
:10038000CE0101960E940D0735C0811133C05398EC
:1003900031C0549AF80185858130B1F4579A789428
:1003A000878190859093A3008093A2008185928598
:1003B0009093A1008093A0008385948590939F00E3
:1003C00080939E0011E006C0811103C0579811E090
:1003D00001C010E083E08983CE0101960E94A00352
:1003E0000EC0811105C0549811E009C010E007C08B
:1003F00010E005C0F8018685813099F7CACF812FBA
:0C0400000F90DF91CF911F910F91089594
:10040C0010C00E940A0858F00E94030840F029F41A
:10041C005F3F29F00C94180851110C9412080C949D
:10042C0026080E94D50668F39923B1F3552391F35E
:10043C00951B550BBB27AA2762177307840738F047
:10044C009F5F5F4F220F331F441FAA1FA9F335D0A4
:10045C000E2E3AF0E0E832D091505040E695001C58
:10046C00CAF72BD0FE2F29D0660F771F881FBB1F12
:10047C00261737074807AB07B0E809F0BB0B802DF0
:10048C00BF01FF2793585F4F3AF09E3F510578F01C
:10049C000C9418080C9412085F3FE4F3983ED4F3C4
:1004AC00869577956795B795F7959F5FC9F7880FF0
:1004BC00911D9695879597F90895E1E0660F771F42
:1004CC00881FBB1F621773078407BA0720F0621BD3
:0E04DC00730B840BBA0BEE1F88F7E0950895A2
:1004EA000FC00E94030838F00E940A0820F09523E2
:1004FA0011F00C9418080C94260811240C94120874
:10050A000E94D50670F3959FC1F3950F50E0551FD1
:10051A00629FF001729FBB27F00DB11D639FAA274E
:10052A00F00DB11DAA1F649F6627B00DA11D661F9D
:10053A00829F2227B00DA11D621F739FB00DA11DBE
:10054A00621F839FA00D611D221F749F3327A00D78
:10055A00611D231F849F600D211D822F762F6A2F14
:10056A0011249F5750409AF0F1F088234AF0EE0F79
:10057A00FF1FBB1F661F771F881F91505040A9F7A6
:10058A009E3F510580F00C9418080C9412085F3FA6
:10059A00E4F3983ED4F3869577956795B795F795E2
:1005AA00E7959F5FC1F7FE2B880F911D969587955A
:0405BA0097F9089510
:1005BE0011C00E94030838F00E940A0820F039F496
:1005CE009F3F19F426F40C9426080EF4E095E7FBF1
:1005DE000C941808E92F0E94D50658F3BA17620733
:1005EE0073078407950720F079F4A6F50C9411088B
:1005FE000EF4E0950B2EBA2FA02D0B01B901900130
:10060E000C01CA01A0011124FF27591B99F0593F73
:10061E0050F4503E68F11A16F040A22F232F342FBB
:10062E004427585FF3CF469537952795A795F04009
:10063E005395C9F77EF41F16BA0B620B730B840B1E
:10064E00BAF09150A1F0FF0FBB1F661F771F881FD6
:10065E00C2F70EC0BA0F621F731F841F48F487952E
:10066E0077956795B795F7959E3F08F0B0CF939520
:0E067E00880F08F09927EE0F9795879508953D
:10068C00FC01892B09F452C06115710509F450C0A5
:10069C0085898230F9F028F4882341F0813081F08B
:1006AC0039C0833009F1873041F134C05F9BFECFF4
:1006BC008CB18F7190E0DB018D939C9381E02BC00A
:1006CC005F9BFECF8CB18F7390E0DB018D939C937D
:1006DC0081E021C05F9BFECF8CB18F7790E0DB0176
:1006EC008D939C9381E017C05F9BFECF8CB190E003
:1006FC00DB018D939C9381E00EC05F9BFECF8AB192
:10070C00DB0111961C921E928CB190E08D939C9300
:10071C0081E001C080E05A9904C05C9902C05B9BE7
:10072C0008C0CF010E94E50780E0089580E008959D
:04073C0080E00895BC
:10074000FC01892B09F43FC08081869586958695AA
:100750008770908196FB222720F996FF03C02130F5
:10076000D1F033C0E081E770F0E0EE0FFF1FEC57EF
:10077000FF4F0190F081E02D408121E030E0B90190
:1007800002C0660F771F8A95E2F7CB01809584231C
:10079000808381E00895E081E770F0E0EE0FFF1FB5
:1007A000EC57FF4F0190F081E02D408121E030E0D7
:1007B000B90102C0660F771F8A95E2F7CB01842B3F
:0E07C000808381E0089580E0089580E0089530
:1007CE00FC01892BD9F19081969596959695977007
:1007DE00662319F06130D1F033C0E081E770F0E0AC
:1007EE00EE0FFF1FE458FF4F0190F081E02D408186
:1007FE0021E030E0B90102C0660F771F9A95E2F74B
:10080E00CB0180958423808381E00895E081E77099
:10081E00F0E0EE0FFF1FE458FF4F0190F081E02D46
:10082E00408121E030E0B90102C0660F771F9A9532
:10083E00E2F7CB01842B808381E0089580E0089558
:04084E0080E00895A9
:10085200E89409C097FB3EF4909580957095619558
:100862007F4F8F4F9F4F9923A9F0F92F96E9BB270E
:100872009395F695879577956795B795F111F8CF8A
:10088200FAF4BB0F11F460FF1BC06F5F7F4F8F4FF5
:100892009F4F16C0882311F096E911C0772321F0EB
:1008A2009EE8872F762F05C0662371F096E8862F83
:1008B20070E060E02AF09A95660F771F881FDAF7DA
:0A08C200880F9695879597F9089521
:1008CC000E94DD0688F09F5798F0B92F9927B751F1
:1008DC00B0F0E1F0660F771F881F991F1AF0BA95D8
:1008EC00C9F714C0B13091F00E941108B1E008951D
:1008FC000C941108672F782F8827B85F39F0B93F0F
:10090C00CCF3869577956795B395D9F73EF490958A
:0E091C008095709561957F4F8F4F9F4F089586
:10092A001F920F920FB60F9211242F933F934F935A
:10093A005F936F937F938F939F93AF93BF93EF933D
:10094A00FF930E945E07FF91EF91BF91AF919F9134
:10095A008F917F916F915F914F913F912F910F905E
:08096A000FBE0F901F901895BD
:100972001F920F920FB60F9211242F933F934F9312
:100982005F936F937F938F939F93AF93BF93EF93F5
:10099200FF930E946907FF91EF91BF91AF919F91E1
:1009A2008F917F916F915F914F913F912F910F9016
:0809B2000FBE0F901F90189575
:1009BA001F920F920FB60F9211242F933F934F93CA
:1009CA005F936F937F938F939F93AF93BF93EF93AD
:1009DA00FF930E947407FF91EF91BF91AF919F918E
:1009EA008F917F916F915F914F913F912F910F90CE
:0809FA000FBE0F901F9018952D
:100A02001F920F920FB60F9211242F933F934F9381
:100A12005F936F937F938F939F93AF93BF93EF9364
:100A2200FF930E94CA07FF91EF91BF91AF919F91EF
:100A32008F917F916F915F914F913F912F910F9085
:080A42000FBE0F901F901895E4
:100A4A001F920F920FB60F9211242F933F934F9339
:100A5A005F936F937F938F939F93AF93BF93EF931C
:100A6A00FF930E944207FF91EF91BF91AF919F912F
:100A7A008F917F916F915F914F913F912F910F903D
:080A8A000FBE0F901F9018959C
:100A92001F920F920FB60F9211242F933F934F93F1
:100AA2005F936F937F938F939F93AF93BF93EF93D4
:100AB200FF930E947F07FF91EF91BF91AF919F91AA
:100AC2008F917F916F915F914F913F912F910F90F5
:080AD2000FBE0F901F90189554
:100ADA001F920F920FB60F9211242F933F934F93A9
:100AEA005F936F937F938F939F93AF93BF93EF938C
:100AFA00FF930E942007FF91EF91BF91AF919F91C1
:100B0A008F917F916F915F914F913F912F910F90AC
:080B1A000FBE0F901F9018950B
:100B22001F920F920FB60F9211242F933F934F9360
:100B32005F936F937F938F939F93AF93BF93EF9343
:100B4200FF930E948A07FF91EF91BF91AF919F910E
:100B52008F917F916F915F914F913F912F910F9064
:080B62000FBE0F901F901895C3
:100B6A001F920F920FB60F9211242F933F934F9318
:100B7A005F936F937F938F939F93AF93BF93EF93FB
:100B8A00FF930E949507FF91EF91BF91AF919F91BB
:100B9A008F917F916F915F914F913F912F910F901C
:080BAA000FBE0F901F9018957B
:100BB2001F920F920FB60F9211242F933F934F93D0
:100BC2005F936F937F938F939F93AF93BF93EF93B3
:100BD200FF930E94A007FF91EF91BF91AF919F9168
:100BE2008F917F916F915F914F913F912F910F90D4
:080BF2000FBE0F901F90189533
:100BFA001F920F920FB60F9211242F933F934F9388
:100C0A005F936F937F938F939F93AF93BF93EF936A
:100C1A00FF930E945007FF91EF91BF91AF919F916F
:100C2A008F917F916F915F914F913F912F910F908B
:080C3A000FBE0F901F901895EA
:100C42001F920F920FB60F9211242F933F934F933F
:100C52005F936F937F938F939F93AF93BF93EF9322
:100C6200FF930E94AB07FF91EF91BF91AF919F91CC
:100C72008F917F916F915F914F913F912F910F9043
:080C82000FBE0F901F901895A2
:100C8A001F920F920FB60F9211242F933F934F93F7
:100C9A005F936F937F938F939F93AF93BF93EF93DA
:100CAA00FF930E94D307FF91EF91BF91AF919F915C
:100CBA008F917F916F915F914F913F912F910F90FB
:080CCA000FBE0F901F9018955A
:100CD2001F920F920FB60F9211242F933F934F93AF
:100CE2005F936F937F938F939F93AF93BF93EF9392
:100CF200FF930E94ED07FF91EF91BF91AF919F91FA
:100D02008F917F916F915F914F913F912F910F90B2
:080D12000FBE0F901F90189511
:100D1A001F920F920FB60F9211242F933F934F9366
:100D2A005F936F937F938F939F93AF93BF93EF9349
:100D3A00FF930E94F706FF91EF91BF91AF919F91A8
:100D4A008F917F916F915F914F913F912F910F906A
:080D5A000FBE0F901F901895C9
:100D62001F920F920FB60F9211242F933F934F931E
:100D72005F936F937F938F939F93AF93BF93EF9301
:100D8200FF930E94DC07FF91EF91BF91AF919F917A
:100D92008F917F916F915F914F913F912F910F9022
:080DA2000FBE0F901F90189581
:100DAA0057FD9058440F551F59F05F3F71F0479512
:100DBA00880F97FB991F61F09F3F79F087950895F7
:100DCA00121613061406551FF2CF4695F1DF08C016
:100DDA00161617061806991FF1CF86957105610533
:040DEA0008940895CC
:100DEE00E091A200F091A300309709F00995E091EF
:100DFE00A000F091A100309709F00995E0919E00B6
:0C0E0E00F0919F00309709F009950895BD
:100E1A00CF93DF93009759F0EC010E94A0036881F9
:100E2A0067FB662760F9CE010E94E70301C080E0F4
:060E3A00DF91CF91089545
:100E400088B7846088BF80919800909199009DBD7B
:100E50008CBDE0919600F0919700309709F00995CC
:020E60000895F3
:100E6200092E0394000C11F4882352F0BB0F40F4B6
:100E7200BF2B11F460FF04C06F5F7F4F8F4F9F4FF6
:020E82000895D1
:100E840088B7816088BF8091AB0082BFE0919400F5
:0C0E9400F0919500309709F00995089541
:100EA00088B7806488BF8091AC0084BDE0919A00CF
:0C0EB000F0919B00309709F0099508951F
:100EBC008AB780648ABFE0919200F09193003097DA
:060ECC0009F009950895EC
:100ED2008AB780688ABFE0919000F09191003097C4
:060EE20009F009950895D6
:100EE8008AB780628ABFE0918E00F0918F003097B8
:060EF80009F009950895C0
:100EFE0088B7826088BFE0919400F091950030979A
:060F0E0009F009950895A9
:100F140088B7806188BFE0919600F0919700309780
:060F240009F00995089593
:100F2A0088B7886088BFE0919600F0919700309763
:060F3A0009F0099508957D
:100F400088B7806288BFE0919600F0919700309753
:060F500009F00995089567
:100F560088B7806888BFE0919A00F0919B0030972F
:060F660009F00995089551
:100F6C00EC010E942F080E942E08CE010E9430082E
:060F7C00CE010E942B08CB
:100F82000E94F5076AEA70E080E690E00E9446035C
:020F9200F9CF95
:100F9400349AE0918C00F0918D00309709F0099516
:020FA4000895AE
:100FA6005E9AE091A600F091A700309709F00995A6
:020FB60008959C
:100FB8008FB1E091A800F091A900309709F0099548
:020FC80008958A
:100FCA00892B21F05498549A81E0089580E008957D
:100FDA00E091A400F091A500309709F009950895D1
:0E0FEA000E942D0880E690E00E9460000895AD
:0E0FF8005058BB27AA270E94DF020C94310735
:0E10060000240A941616170618060906089507
:0E10140000240A941216130614060506089509
:0E102200E894BB2766277727CB0197F908953E
:0C10300097F99F6780E870E060E0089589
:08103C000E9406020C9431072A
:081044000E9475020C943107B3
:06104C009FEF80EC089507
:041052000C940000FA
:041056000E945E0096
:02105A000895F7
:02105C000895F5
:02105E000895F3
:021060000895F1
:10106200000000000000010000000000000001007C
:0C107200802500000003000000000000CA
:08107E003B0038003500320090
:081086003A003700340031008C
:02108E00414BD4
:00000001FF
