:04000000EBEF01F031
:100008005082F2A20AEF00F00CEF00F015EF00F0BA
:10001800F2A811EF00F013EF00F015EF00F098ECE4
:1000280008F09EA41AEF00F01CEF00F025EF00F096
:100038009DA421EF00F023EF00F025EF00F09CECE9
:1000480008F0A1A02AEF00F02CEF00F035EF00F047
:10005800A0A031EF00F033EF00F035EF00F09AEC9C
:1000680008F09EAC3AEF00F03CEF00F045EF00F0EE
:100078009DAC41EF00F043EF00F045EF00F09EEC3F
:1000880008F0F2A44AEF00F04CEF00F055EF00F052
:10009800F2AA51EF00F053EF00F055EF00F086ECB4
:1000A80008F09EA05AEF00F05CEF00F065EF00F05A
:1000B8009DA061EF00F063EF00F065EF00F080ECC9
:1000C80008F09EA26AEF00F06CEF00F075EF00F008
:1000D8009DA271EF00F073EF00F075EF00F090EC67
:1000E80008F0A1A27AEF00F07CEF00F085EF00F0B5
:1000F800A0A281EF00F083EF00F085EF00F07AEC2A
:1001080008F0F0A08AEF00F08CEF00F095EF00F017
:10011800F0A691EF00F093EF00F095EF00F096EC69
:1001280008F0F0A29AEF00F09CEF00F0A5EF00F0C5
:10013800F0A8A1EF00F0A3EF00F0A5EF00F094EC19
:1001480008F0F2A0AAEF00F0ACEF00F0CDEF00F05D
:10015800F2A6B1EF00F0B3EF00F0CDEF00F07DA80C
:10016800B8EF00F0BAEF00F0CDEF00F081A8BFEFD4
:1001780000F0C1EF00F0CDEF00F04104D8A4C7EFC4
:1001880000F0C9EF00F0CDEF00F0416A010E6DEC10
:1001980008F0F2A0D2EF00F0D4EF00F0F6EF00F094
:1001A800F2A6D9EF00F0DBEF00F0F6EF00F07DA843
:1001B800E0EF00F0E2EF00F0F6EF00F081B8E7EFD3
:1001C80000F0E9EF00F0F6EF00F04150D8A4EFEFAF
:1001D80000F0F1EF00F0F6EF00F0010E416E000EB6
:1001E8006DEC08F0F2A0FBEF00F0FDEF00F01EEF61
:1001F80001F0F2A602EF01F004EF01F01EEF01F0AA
:100208007DAA09EF01F00BEF01F01EEF01F081AAC2
:1002180010EF01F012EF01F01EEF01F04004D8A436
:1002280018EF01F01AEF01F01EEF01F0406A010E1D
:1002380060EC08F0F2A023EF01F025EF01F047EFA2
:1002480001F0F2A62AEF01F02CEF01F047EF01F0E0
:100258007DAA31EF01F033EF01F047EF01F081BAE9
:1002680038EF01F03AEF01F047EF01F04050D8A421
:1002780040EF01F042EF01F047EF01F0010E406E50
:10028800000E60EC08F0F2A04CEF01F04EEF01F028
:100298006FEF01F0F2A653EF01F055EF01F06FEFA9
:1002A80001F07DAC5AEF01F05CEF01F06FEF01F067
:1002B80081AC61EF01F063EF01F06FEF01F03F04F3
:1002C800D8A469EF01F06BEF01F06FEF01F03F6A1E
:1002D800010E53EC08F0F2A074EF01F076EF01F094
:1002E80098EF01F0F2A67BEF01F07DEF01F098EFB7
:1002F80001F07DAC82EF01F084EF01F098EF01F09E
:1003080081BC89EF01F08BEF01F098EF01F03F50CD
:10031800D8A491EF01F093EF01F098EF01F0010EEE
:100328003F6E000E53EC08F0F2A09DEF01F09FEF36
:1003380001F0C0EF01F0F2A6A4EF01F0A6EF01F082
:10034800C0EF01F07DAEABEF01F0ADEF01F0C0EF13
:1003580001F081AEB2EF01F0B4EF01F0C0EF01F0AF
:100368003E04D8A4BAEF01F0BCEF01F0C0EF01F0F1
:100378003E6A010E46EC08F0F2A0C5EF01F0C7EFA7
:1003880001F0E9EF01F0F2A6CCEF01F0CEEF01F0B9
:10039800E9EF01F07DAED3EF01F0D5EF01F0E9EF21
:1003A80001F081BEDAEF01F0DCEF01F0E9EF01F0D6
:1003B8003E50D8A4E2EF01F0E4EF01F0E9EF01F0DC
:1003C800010E3E6E000E46EC08F0509211001AEF36
:0203D80008F02B
:10100000003738392F3435362A3132332D43303DCD
:101010002B890F8A0F8B0F8C0F8D0F800F810F8202
:101020000F830F840F920F930F940F950F960F2538
:0310300069000054
:101034006A0EF66E100EF76E000EF86E00EE2EF0CD
:1010440010EE21F00900F5CFEEFFE550E150FAE192
:1010540000EE01F02D0EEE6AE806FDE1509050928C
:1010640000018CEF08F003000100010100121212CC
:10107400124A5242426001010101416149595154ED
:071084004C4468585048403D
:10108C004F6EF2904F04D8A44EEF08F050EF08F0DA
:10109C0052EF08F052EF08F012004F6EF2904F042E
:1010AC00D8A45BEF08F05DEF08F05FEF08F05FEF9E
:1010BC0008F012004F6EF2904F04D8A468EF08F0BD
:1010CC006AEF08F06CEF08F06CEF08F012004F6E4E
:1010DC00F2904F04D8A475EF08F077EF08F079EF91
:1010EC0008F079EF08F01200A1920850B36E07C017
:1010FC00B2FF12009E900E50CF6E0DC0CEFF1200AC
:10110C00F2941250D76E11C0D6FF12008CEF08F07B
:10111C00EBEF01F09E922DC0CCFF1200F09212006A
:10112C00F0901200F2921200A19012009E94120004
:04113C009E9C120063
:020000040030CA
:0E000000FF02091EFF8181FF0FC00FE00F40BD
:00000001FF
