:04000000FEEF7FF0A0
:10100000003738392F3435362A3132332D43303DCD
:101010002B890F8A0F8B0F8C0F8D0F800F810F8202
:101020000F830F840F920F930F940F950F960F3429
:101030002D626974204C434400382D626974204C41
:10104000434400576F726C640048656C6C6F0025F8
:0310500069000034
:10105400930E136EBEEC0BF0536E880E126E49ECB9
:101064000BF0536E930E106E010E116E95EC0FF093
:10107400536E880E0C6E010E0D6EEDEC0EF0536E79
:101084001A0E326EF80EE82EFED7322EFCD700F080
:1010940000F0930E106E410E116E61EC0FF0880E8D
:1010A4000C6E420E0D6EAEEC0EF00B0E336E260E71
:1010B400326E5E0EE82EFED7322EFCD7332EFAD7D0
:1010C400930E176E580E186E010E196E050E1A6ED9
:1010D40092EC11F0536E880E166E590E176E020EB6
:1010E400186E070E196E75EC11F0536E0B0E336EFD
:1010F400260E326E5E0EE82EFED7322EFCD7332E2D
:10110400FAD7930E136E2F0E146E1450D8A4100E2B
:10111400156E20EC0EF0880E126E390E136E1350FD
:10112400D8A4100E146ED6EC0DF00B0E336E260EF2
:10113400326E5E0EE82EFED7322EFCD7332EFAD74F
:10114400930E176E490E186E1850D8A4100E196E0F
:10115400020E1A6E010E1B6EA5EC10F0880E166EB0
:10116400430E176E1750D8A4100E186E010E196E88
:10117400030E1A6E7EEC10F00B0E336E260E326EDA
:101184005E0EE82EFED7322EFCD7332EFAD720EE91
:1011940080F010EE40F0070EDBCFE3FFE806FCE240
:1011A400930E1C6E400E1D6E010E1E6E010E1F6E00
:1011B400000E206E2CEC0FF0880E1B6E400E1C6E81
:1011C400020E1D6E010E1E6E000E1F6E69EC0EF0F7
:1011D4000B0E336E260E326E5E0EE82EFED7322EC6
:1011E400FCD7332EFAD74E0E2C6E7B0EF1EC10F09A
:1011F400930E176E4E0E186E196A020E1A6E060EB4
:101204001B6EA5EC10F0110E2D6ED70E2C6E480E31
:101214002E6ECCEC10F0880E166E480E176E186AFF
:10122400010E196E0A0E1A6E7EEC10F0840E2C6EEE
:10123400030E2D6E000E2E6E000E2F6E340E306EC9
:1012440055EC10F0880E166E340E176E186A020EE6
:10125400196E050E1A6E7EEC10F00B0E336E260E10
:10126400326E5E0EE82EFED7322EFCD7332EFAD71E
:10127400930E106E010E116E95EC0FF0880E0C6E2D
:10128400010E0D6EEDEC0EF046EF09F0FEEF7FF06F
:101294000C50D96EDA6ADFCFF6FF100EF76E080035
:1012A400F550250AD8A459EF09F05BEF09F014EFC3
:1012B4000AF00C50D96EDA6ADF2A000E556E000E61
:1012C400546E54C05AF0566857680C50D96EDA6A96
:1012D400DF50106E10C0F6FF100EF76E0800F550C8
:1012E400640AD8B478EF09F07AEF09F088EF09F0CE
:1012F40010C0F6FF100EF76E0800F550690AD8A466
:1013040086EF09F088EF09F00EEF0AF00D50D96E60
:10131400DA6A020EDF26DF5CD96EDA6ADECF11F0FC
:10132400DECF12F00C50D96EDA6A1028DF6E200E70
:10133400156E12BEA0EF09F0A3EF09F0010EA4EFA1
:1013440009F0000E0F6E15061550600FD96EDA6A9B
:1013540011C001F012C002F0000E046E0A0E036EFA
:1013640094EC0CF001C007F002C008F0C9EC11F0D5
:101374000750300FDF6E11C001F012C002F0000EF2
:10138400046E0A0E036E33EC0CF001C011F002C0BF
:1013940012F011501210D8B4D2EF09F0D4EF09F0C2
:1013A400DCEF09F01550D8A4DAEF09F0DCEF09F00E
:1013B400A5EF09F01550D8B4E2EF09F0E4EF09F015
:1013C40003EF0AF00F50D8B4EAEF09F0ECEF09F09C
:1013D40003EF0AF015061550600FD96EDA6A2D0E68
:1013E400DF6E03EF0AF01550600FD96EDA6ADF5032
:1013F4000E6E0E50016E026A0BC003F0EBEC0CF0A3
:10140400152A200E1518D8A40AEF0AF00CEF0AF0DA
:10141400F5EF09F025EF0AF00C50D96EDA6ADF2AED
:1014240025EF0AF00C50D96EDA6ADFCFF6FF100E02
:10143400F76E0800F550016E026A0BC003F0EBEC86
:101444000CF00EEF0AF01200010E086E0150D8B431
:101454002EEF0AF030EF0AF040EF0AF00150D96E97
:10146400DA6ADF30E832E832070B026E070E0264F4
:101474003EEF0AF040EF0AF0A0EF0AF0086AB6EF78
:101484000AF00150D96EDA6ADF30E832E832070B2D
:10149400026E010E036E022A52EF0AF0D890033650
:1014A400022E50EF0AF00350FF0A046E0150D96E69
:1014B400DA6ADF50070B020DF350250F056E05C0E5
:1014C400F6FF100EF76E0900F5CF06F00900F5CF10
:1014D40007F006C0D9FF07C0DAFF0450DF16B6EFE5
:1014E4000AF00150D96EDA6ADF30E832E832070BCD
:1014F400026E010E036E022A82EF0AF0D8900336C0
:10150400022E80EF0AF00150D96EDA6ADF50070B21
:10151400020DF350250F046E04C0F6FF100EF76E93
:101524000900F5CF05F00900F5CF06F005C0D9FF95
:1015340006C0DAFF0350DF12B6EF0AF00150D96E8D
:10154400DA6ADFBCA8EF0AF0ABEF0AF0010EACEFE9
:101554000AF0000E000AD8B443EF0AF0010AD8B426
:1015640073EF0AF040EF0AF008501200010E096E02
:101574000150D8B4C0EF0AF0C2EF0AF0D2EF0AF07B
:101584000150D96EDA6ADF30E832E832070B036EB5
:10159400070E0364D0EF0AF0D2EF0AF032EF0BF03B
:1015A400096A47EF0BF00150D96EDA6ADF30E8328E
:1015B400E832070B036E010E046E032AE4EF0AF00F
:1015C400D8900436032EE2EF0AF00450FF0A056EA9
:1015D4000150D96EDA6ADF50070B020DF350110F78
:1015E400066E06C0F6FF100EF76E0900F5CF07F081
:1015F4000900F5CF08F007C0D9FF08C0DAFF05508D
:10160400DF1647EF0BF00150D96EDA6ADF30E832AB
:10161400E832070B036E010E046E032A14EF0BF07D
:10162400D8900436032E12EF0BF00150D96EDA6A0B
:10163400DF50070B020DF350110F056E05C0F6FFC6
:10164400100EF76E0900F5CF06F00900F5CF07F08C
:1016540006C0D9FF07C0DAFF0450DF1247EF0BF0D2
:101664000250036E046A0450000AD8B43CEF0BF035
:10167400D2EF0AF00350000AD8B4D5EF0AF0010AF9
:10168400D8B405EF0BF0D2EF0AF009501200125053
:10169400D8A44FEF0BF051EF0BF054EF0BF0156A99
:1016A400BCEF0BF012C00AF0FAEC0FF0156E122822
:1016B4000A6EFAEC0FF0156E1250020F0A6EFAEC75
:1016C4000FF0156E146A12501424030F0A6EFAEC0C
:1016D4000FF0142A070E146472EF0BF074EF0BF082
:1016E40065EF0BF0340E136EF20EE82EFED7132EB8
:1016F400FCD712C00CF0380E0D6EEDEC0EF00D0E92
:10170400136EFC0EE82EFED7132EFCD712C00CF07D
:10171400380E0D6EEDEC0EF0640EE82EFED712C0FE
:101724000CF0380E0D6EEDEC0EF012C00CF0010E44
:101734000D6EEDEC0EF012C00CF0020E0D6EEDEC21
:101744000EF012C00CF0060E0D6EEDEC0EF012C091
:101754000CF00C0E0D6EEDEC0EF012C00CF0380E09
:101764000D6EEDEC0EF012C00CF0800E0D6EEDEC73
:101774000EF0156E155012001350D8A4C4EF0BF0E0
:10178400C6EF0BF0C9EF0BF0166A31EF0CF013C083
:101794000AF0FAEC0FF0166E13280A6EFAEC0FF04A
:1017A400166E1350020F0A6EFAEC0FF0166E156ADD
:1017B40013501524030F0A6EFAEC0FF0152A030ECA
:1017C4001564E7EF0BF0E9EF0BF0DAEF0BF0340EF2
:1017D400146EF20EE82EFED7142EFCD713C010F0B0
:1017E400380E116E95EC0FF00D0E146EFC0EE82EF3
:1017F400FED7142EFCD713C010F0380E116E95ECE2
:101804000FF0640EE82EFED713C010F0380E116EE0
:1018140095EC0FF013C010F0010E116E95EC0FF063
:1018240013C010F0020E116E95EC0FF013C010F0FF
:10183400060E116E95EC0FF013C010F00C0E116E25
:1018440095EC0FF013C010F0280E116E95EC0FF00C
:1018540013C010F0800E116E95EC0FF0166E16503A
:101864001200066A04BE3BEF0CF039EF0CF041EFB6
:101874000CF0036C041ED8B0042A010E066E02BEDE
:1018840048EF0CF046EF0CF04EEF0CF0016C021E2A
:10189400D8B0022A010E061A000E086E000E076E5A
:1018A40003500410D8B459EF0CF05BEF0CF083EF45
:1018B4000CF0010E056E63EF0CF0D890033604367D
:1018C400052A04AE68EF0CF06AEF0CF05FEF0CF041
:1018D400D890073608360350015C04500258D8A04B
:1018E40076EF0CF078EF0CF07DEF0CF00350015E16
:1018F4000450025A0780D89004320332052E6AEF4E
:101904000CF00650D8B489EF0CF08BEF0CF08FEF8D
:101914000CF0076C081ED8B0082A07C001F008C0F4
:1019240002F01200066A02BE9CEF0CF09AEF0CF073
:10193400A2EF0CF0016C021ED8B0022A010E066E52
:1019440004BEA9EF0CF0A7EF0CF0ADEF0CF0036CA4
:10195400041ED8B0042A03500410D8B4B4EF0CF019
:10196400B6EF0CF0DAEF0CF0010E056EBEEF0CF0E2
:10197400D89003360436052A04AEC3EF0CF0C5EF45
:101984000CF0BAEF0CF00350015C04500258D8A0DC
:10199400CEEF0CF0D0EF0CF0D4EF0CF00350015E5E
:1019A4000450025AD89004320332052EC5EF0CF0CD
:1019B4000650D8B4E0EF0CF0E2EF0CF0E6EF0CF0D8
:1019C400016C021ED8B0022A01C001F002C002F06C
:1019D40012000350D8B4F1EF0CF0F3EF0CF0FBEF6E
:1019E4000CF00350D8A4F9EF0CF0FBEF0CF000EF6F
:1019F4000DF001500AEC12F03FEF0DF00350D96ED8
:101A0400DA6A090ED926DE50DE10D8B40CEF0DF0D8
:101A14000EEF0DF027EF0DF00350D96EDA6A090EC0
:101A2400D9260350E16EE26A020EE126DE50E65C3E
:101A3400E650800A086EDE50800A0858D8B025EFB8
:101A44000DF027EF0DF03FEF0DF00350D96EDA6A79
:101A5400020ED926DF50046E0350D96EDA6ADF50C5
:101A64000424D96EDA6A01C0DFFF0350D96EDA6A42
:101A7400020ED926DE2A000EDD2212001250D8A44E
:101A840046EF0DF048EF0DF04BEF0DF0156A89EFBE
:101A94000DF0140676EF0DF012C00CF01450800F08
:101AA4000D6EEDEC0EF0156E89EF0DF012C00CF01A
:101AB4001450C00F0D6EEDEC0EF0156E89EF0DF0A5
:101AC40012C00CF01450940F0D6EEDEC0EF0156E68
:101AD40089EF0DF012C00CF01450D40F0D6EEDEC24
:101AE4000EF0156E89EF0DF01350010AD8B44EEFC5
:101AF4000DF0030AD8B458EF0DF0010AD8B462EF20
:101B04000DF0070AD8B46CEF0DF048EF0DF0155046
:101B140012001350D8A491EF0DF093EF0DF096EF4F
:101B24000DF0166AD4EF0DF01506C1EF0DF013C0D9
:101B340010F01550800F116E95EC0FF0166ED4EF67
:101B44000DF013C010F01550C00F116E95EC0FF08E
:101B5400166ED4EF0DF013C010F01550940F116EE3
:101B640095EC0FF0166ED4EF0DF013C010F0155075
:101B7400D40F116E95EC0FF0166ED4EF0DF01450D7
:101B8400010AD8B499EF0DF0030AD8B4A3EF0DF00D
:101B9400010AD8B4ADEF0DF0070AD8B4B7EF0DF0D1
:101BA40093EF0DF016501200010E156E1250D8B4BA
:101BB400DEEF0DF0E0EF0DF0E9EF0DF0135014102F
:101BC400D8A4E7EF0DF0E9EF0DF005EF0EF0156A7C
:101BD4001EEF0EF012C00CF013C0F6FF14C0F7FF96
:101BE400000EF86E0F0EF76403D00800F55005D010
:101BF400F6CFE9FFF7CFEAFFEF500D6EAEEC0EF033
:101C0400156E134A142A13C0F6FF14C0F7FF000E12
:101C1400F86E0F0EF76403D00800F55005D0F6CF28
:101C2400E9FFF7CFEAFFEF500009D8A41CEF0EF04C
:101C34001EEF0EF0ECEF0DF015501200010E166EB3
:101C44001350D8B428EF0EF02AEF0EF033EF0EF055
:101C540014501510D8A431EF0EF033EF0EF04EEF00
:101C64000EF0166A67EF0EF013C010F014C0F6FF02
:101C740015C0F7FF000EF86E0F0EF76403D00800CE
:101C8400F55005D0F6CFE9FFF7CFEAFFEF50116E1C
:101C940061EC0FF0144A152A14C0F6FF15C0F7FFC3
:101CA400000EF86E0F0EF76403D00800F55005D04F
:101CB400F6CFE9FFF7CFEAFFEF500009D8A465EFAC
:101CC4000EF067EF0EF036EF0EF0165012001B50B8
:101CD400D8B46FEF0EF071EF0EF081EF0EF01C50E0
:101CE400D8B477EF0EF079EF0EF081EF0EF0070E17
:101CF4001F647FEF0EF081EF0EF084EF0EF0206A88
:101D0400ACEF0EF01BC00CF01F50080DF350400F49
:101D14000D6EEDEC0EF0216A1BC00CF01C5021245A
:101D2400D96EDA6ADF500D6EAEEC0EF0212A070E82
:101D340021649FEF0EF0A1EF0EF08EEF0EF01BC0AA
:101D440016F01FC017F01DC018F01EC019F075EC76
:101D540011F0206E205012000C50D8A4B4EF0EF0F5
:101D6400B6EF0EF0B9EF0EF0106AEBEF0EF00CC008
:101D740001F0010E026EB8EC0AF0106E0C28016E30
:101D8400000E026EB8EC0AF0106E116A0C501124A9
:101D9400030F016E11C00EF00DC00FF00E2AD5EF27
:101DA4000EF0D8900F320E2ED3EF0EF00F50010B21
:101DB400026EB8EC0AF0112A070E1164E4EF0EF07B
:101DC400E6EF0EF0C8EF0EF00CC00AF016EC11F0BE
:101DD400106E105012000C50D8A4F3EF0EF0F5EF73
:101DE4000EF0F8EF0EF0106A2AEF0FF00CC001F0BD
:101DF400000E026EB8EC0AF0106E0C28016E000E94
:101E0400026EB8EC0AF0106E116A0C501124030F24
:101E1400016E11C00EF00DC00FF00E2A14EF0FF07A
:101E2400D8900F320E2E12EF0FF00F50010B026EEE
:101E3400B8EC0AF0112A070E116423EF0FF025EF16
:101E44000FF007EF0FF00CC00AF016EC11F0106E53
:101E5400105012001C50D8A432EF0FF034EF0FF0E2
:101E640037EF0FF0216A5FEF0FF01CC010F0205025
:101E7400080DF350400F116E95EC0FF0226A1CC050
:101E840010F01D502224D96EDA6ADF50116E61EC15
:101E94000FF0222A070E226452EF0FF054EF0FF0D6
:101EA40041EF0FF01CC017F020C018F01EC019F04D
:101EB4001FC01AF092EC11F0216E21501200105044
:101EC400D8A467EF0FF069EF0FF06CEF0FF0126A10
:101ED40093EF0FF010C001F0010E026EB8EC0AF09F
:101EE400126E1028016E000E026EB8EC0AF0126E2B
:101EF40010C00AF011380F0B0B6E28EC10F0126EA4
:101F040010C00AF036EC11F0126E10C00AF011C0C5
:101F14000BF028EC10F0126E10C00AF036EC11F041
:101F2400126E125012001050D8A49BEF0FF09DEFC8
:101F34000FF0A0EF0FF0126AC7EF0FF010C001F01E
:101F4400000E026EB8EC0AF0126E1028016E000E3C
:101F5400026EB8EC0AF0126E10C00AF011380F0BC2
:101F64000B6E28EC10F0126E10C00AF036EC11F073
:101F7400126E10C00AF011C00BF028EC10F0126EB3
:101F840010C00AF036EC11F0126E12501200F60E68
:101F9400F66E230EF76E000EF86E00EE80F010EE73
:101FA4001AF00900F5CFEEFFE550E150FAE1100E0A
:101FB400F66E240EF76E000EF86E00EE5BF010EE77
:101FC40004F00900F5CFEEFFE550E150FAE100EE30
:101FD40060F0200EEE6AE806FDE100EE54F0070E14
:101FE400EE6AE806FDE1000EF86E00012AEF08F043
:101FF4000A50D8B400EF10F002EF10F012EF10F016
:102004000A50D96EDA6ADF30E832E832070B0B6E19
:10201400070E0B6410EF10F012EF10F015EF10F034
:102024000C6A26EF10F00AC001F026EC0AF00C6EE0
:102034000AC001F00A50D96EDA6A000EDFBE010E42
:10204400026EB8EC0AF00C6E0C5012000A50D8A4C0
:102054002EEF10F030EF10F033EF10F00E6A53EF64
:1020640010F00F6A0A500F24030F016E0FC00CF01A
:102074000BC00DF00C2A41EF10F0D8900D320C2E4D
:102084003FEF10F00D50010B026EB8EC0AF00E6E2B
:102094000F2A030E0F6451EF10F053EF10F034EFDA
:1020A40010F00E501200010E316E3050D8A45DEFC6
:1020B40010F05FEF10F062EF10F0316A7CEF10F077
:1020C40030C001F0000E036E000E026E000E056EAD
:1020D4000B0E046EE3EC11F030C01AF04F0E1B6EC1
:1020E4002CC01CF02DC01DF02EC01EF02FC01FF000
:1020F400AFEC11F0315012001650D8B484EF10F048
:1021040086EF10F08FEF10F017501810D8A48DEF51
:1021140010F08FEF10F092EF10F01B6AA3EF10F0A5
:1021240016C012F019C013F01AC014F040EC0DF0F0
:102134001B6E16C012F017C013F018C014F0D6ECC2
:102144000DF01B5012001750D8B4ABEF10F0ADEFE8
:1021540010F0B6EF10F018501910D8A4B4EF10F026
:10216400B6EF10F0B9EF10F01C6ACAEF10F017C008
:1021740013F01AC014F01BC015F08BEC0DF017C04F
:1021840013F018C014F019C015F020EC0EF01C6EFA
:102194001C501200010E2F6E2E50D8A4D4EF10F054
:1021A400D6EF10F0D9EF10F02F6AEFEF10F02EC039
:1021B40001F0000E036E000E026E000E056E060E98
:1021C400046EE3EC11F02EC01AF04F0E1B6E2CC0FF
:1021D4001CF02DC01DF0AFEC11F02F5012002D6E2D
:1021E400010E2E6E2C50D8A4FAEF10F0FCEF10F074
:1021F400FFEF10F02E6A14EF11F02CC001F0000E66
:10220400036E000E026E000E056E040E046EE3EC07
:1022140011F02CC01AF04F0E1B6E2DC01CF01D6A5D
:10222400AFEC11F02E5012000A50D8A41CEF11F09C
:102234001EEF11F021EF11F00B6A34EF11F00A5088
:10224400020F016E010E026EB8EC0AF0030EE82EC6
:10225400FED700000A50020F016E000E026EB8ECA9
:102264000AF00B6E0B5012000A50D8A43CEF11F088
:102274003EEF11F041EF11F00B6A54EF11F00A50E8
:10228400020F016E010E026EB8EC0AF0030EE82E86
:10229400FED700000A50020F016E000E026EB8EC69
:1022A4000AF00B6E0B50120017C019F062EF11F018
:1022B40016C00BF0190E0C6E18C00DF04AEC09F0A4
:1022C40019C0F6FF100EF76E0800F5500009D8A4E7
:1022D4006EEF11F070EF11F05AEF11F0000E176E5F
:1022E400000E166E12001650D8A47BEF11F07DEF8D
:1022F40011F080EF11F01A6A90EF11F016C012F08D
:1023040018C013F019C014F040EC0DF01A6E16C08A
:102314000CF017C00DF0AEEC0EF01A6E1A5012004D
:102324001750D8A498EF11F09AEF11F09DEF11F027
:102334001B6AADEF11F017C013F019C014F01AC0E6
:1023440015F08BEC0DF01B6E17C010F018C011F0D7
:1023540061EC0FF01B6E1B5012001C0E206E1AC095
:1023640021F0000E246E000E236E000E2B6E000E64
:102374002A6E210E166E1BC017F0200E186E56EC36
:1023840011F01A502324D96EDA6ADF6A120008BEEB
:10239400CEEF11F0D0EF11F0D6EF11F007C007F037
:1023A40008C008F0E2EF11F007C009F008C00AF015
:1023B400091E0A1E094A0A2A09C007F00AC008F0C1
:1023C400120001C006F0EDEF11F00650D96EDA6A82
:1023D40002C0DFFF062A0406D8A00506042806E189
:1023E4000528D8A4F8EF11F0FAEF11F0E7EF11F097
:1023F4001200000A0000110E0000192129030B131A
:102404001B232B333B010911020A121A000101009C
:022414001200B4
:04FFFC00C9EF0FF04A
:020000040030CA
:0E000000FF02091EFF8181FF0FC00FE00F40BD
:00000001FF
