:040000006FEF01F0AD
:06000800588207EF0AF028
:100018005880D8CF47F0E8CF48F0E0CF49F0F0A0BB
:1000280018EF00F01AEF00F023EF00F0F0A61FEF32
:1000380000F021EF00F023EF00F011EC0CF0F2A03B
:1000480028EF00F02AEF00F04BEF00F0F2A62FEFB8
:1000580000F031EF00F04BEF00F07DA836EF00F034
:1000680038EF00F04BEF00F081A83DEF00F03FEFD4
:1000780000F04BEF00F00904D8A445EF00F047EF7B
:1000880000F04BEF00F0096A010E04EC0CF0F2A04E
:1000980050EF00F052EF00F074EF00F0F2A657EFC7
:1000A80000F059EF00F074EF00F07DA85EEF00F06B
:1000B80060EF00F074EF00F081B865EF00F067EFD3
:1000C80000F074EF00F00950D8A46DEF00F06FEF66
:1000D80000F074EF00F0010E096E000E04EC0CF055
:1000E800F2A079EF00F07BEF00F09CEF00F0F2A6B1
:1000F80080EF00F082EF00F09CEF00F07DAA87EF20
:1001080000F089EF00F09CEF00F081AA8EEF00F07C
:1001180090EF00F09CEF00F00804D8A496EF00F0F0
:1001280098EF00F09CEF00F0086A010EF7EC0BF076
:10013800F2A0A1EF00F0A3EF00F0C5EF00F0F2A6E7
:10014800A8EF00F0AAEF00F0C5EF00F07DAAAFEF2E
:1001580000F0B1EF00F0C5EF00F081BAB6EF00F0A3
:10016800B8EF00F0C5EF00F00850D8A4BEEF00F0DB
:10017800C0EF00F0C5EF00F0010E086E000EF7ECBE
:100188000BF0F2A0CAEF00F0CCEF00F0EDEF00F0BA
:10019800F2A6D1EF00F0D3EF00F0EDEF00F07DAC68
:1001A800D8EF00F0DAEF00F0EDEF00F081ACDFEF10
:1001B80000F0E1EF00F0EDEF00F00704D8A4E7EF5E
:1001C80000F0E9EF00F0EDEF00F0076A010EEAEC4D
:1001D8000BF0F2A0F2EF00F0F4EF00F016EF01F0F0
:1001E800F2A6F9EF00F0FBEF00F016EF01F07DAC9E
:1001F80000EF01F002EF01F016EF01F081BC07EF0C
:1002080001F009EF01F016EF01F00750D8A40FEF45
:1002180001F011EF01F016EF01F0010E076E000E6C
:10022800EAEC0BF0F2A01BEF01F01DEF01F03EEF3E
:1002380001F0F2A622EF01F024EF01F03EEF01F009
:100248007DAE29EF01F02BEF01F03EEF01F081AE1A
:1002580030EF01F032EF01F03EEF01F00604D8A4D0
:1002680038EF01F03AEF01F03EEF01F0066A010EB7
:10027800DDEC0BF0F2A043EF01F045EF01F067EF82
:1002880001F0F2A64AEF01F04CEF01F067EF01F040
:100298007DAE51EF01F053EF01F067EF01F081BE41
:1002A80058EF01F05AEF01F067EF01F00650D8A4BB
:1002B80060EF01F062EF01F067EF01F0010E066EEA
:1002C800000EDDEC0BF049C0E0FF48C0E8FF47C076
:0A02D800D8FF5890100063EF0BF000
:10100000003738392F3435362A3132332D43303DCD
:101010002B890F8A0F8B0F8C0F8D0F800F810F8202
:101020000F830F840F920F930F940F950F960F2538
:0310300069000054
:10103400010E516E4A50D8B422EF08F024EF08F0A4
:1010440034EF08F04A50D96EDA6ADF30E832E83219
:10105400070B4B6E070E4B6432EF08F034EF08F0C9
:1010640096EF08F0516AACEF08F04A50D96EDA6A8C
:10107400DF30E832E832070B4B6E010E4C6E4B2A20
:1010840046EF08F0D8904C364B2E44EF08F04C5005
:10109400FF0A4D6E4A50D96EDA6ADF50070B020D13
:1010A400F350250F4E6E4EC0F6FF100EF76EF86A21
:1010B4000900F5CF4FF00900F5CF50F04FC0D9FF2C
:1010C40050C0DAFF4D50DF16ACEF08F04A50D96E2D
:1010D400DA6ADF30E832E832070B4B6E010E4C6EF1
:1010E4004B2A77EF08F0D8904C364B2E75EF08F06A
:1010F4004A50D96EDA6ADF50070B020DF350250F00
:101104004D6E4DC0F6FF100EF76EF86A0900F5CF6C
:101114004EF00900F5CF4FF04EC0D9FF4FC0DAFFB3
:101124004C50DF12ACEF08F04A50D96EDA6ADFBCDB
:101134009EEF08F0A1EF08F0010EA2EF08F0000EF8
:10114400000AD8B437EF08F0010AD8B468EF08F001
:1011540034EF08F051501200010E526E4A50D8B4C8
:10116400B6EF08F0B8EF08F0C8EF08F04A50D96EAF
:10117400DA6ADF30E832E832070B4C6E070E4C6453
:10118400C6EF08F0C8EF08F02AEF09F0526A3FEF03
:1011940009F04A50D96EDA6ADF30E832E832070BD8
:1011A4004C6E010E4D6E4C2ADAEF08F0D8904D3695
:1011B4004C2ED8EF08F04D50FF0A4E6E4A50D96EAF
:1011C400DA6ADF50070B020DF350110F4F6E4FC058
:1011D400F6FF100EF76EF86A0900F5CF50F009001B
:1011E400F5CF51F050C0D9FF51C0DAFF4E50DF1691
:1011F4003FEF09F04A50D96EDA6ADF30E832E8325C
:10120400070B4C6E010E4D6E4C2A0BEF09F0D89073
:101214004D364C2E09EF09F04A50D96EDA6ADF5088
:10122400070B020DF350110F4E6E4EC0F6FF100E59
:10123400F76EF86A0900F5CF4FF00900F5CF50F0CA
:101244004FC0D9FF50C0DAFF4D50DF123FEF09F015
:101254004B504C6E4D6A4D50000AD8B434EF09F02F
:10126400C8EF08F04C50000AD8B4CBEF08F0010ADC
:10127400D8B4FCEF08F0C8EF08F0525012005350F5
:10128400D8A447EF09F049EF09F04BEF09F0B2EFAA
:1012940009F053C04AF01AEC08F092EF09F05350E9
:1012A400D96EDA6A010ED926DF50D8A45CEF09F0B2
:1012B4005EEF09F062EF09F0010E566EACEF09F033
:1012C4005350D96EDA6A010ED926DE04D8A46DEF24
:1012D40009F06FEF09F072EF09F0566AACEF09F00C
:1012E400ACEF09F05350D96EDA6A010ED926DF50FB
:1012F400D8A47FEF09F081EF09F083EF09F06FEFD5
:1013040009F05350D96EDA6A010ED926DE04D8A446
:101314008EEF09F090EF09F072EF09F05EEF09F03B
:101324005350D96EDA6A020ED926DF50546E556ACC
:101334005550000AD8B4A1EF09F072EF09F05450E7
:10134400000AD8B451EF09F0010AD8B474EF09F0D7
:1013540072EF09F053C04AF056C04BF0AEEC08F0FF
:101364001200010E556E5250D8A4BBEF09F0BDEF28
:1013740009F0EBEF09F0556A05EF0AF0D59A05EF8D
:101384000AF0D58A05C056F0560E4A6E1AEC08F0DB
:10139400556E5250D96EDA6A080ED926DE04D8A4E6
:1013A400D6EF09F0D8EF09F0DBEF09F0D59805EF97
:1013B4000AF05250D96EDA6A080ED926DF50D8A442
:1013C400E6EF09F0E8EF09F0BDEF09F0D58805EF85
:1013D4000AF05250D96EDA6A070ED926DF50536EDE
:1013E400546A5450000AD8B4FAEF09F0BDEF09F07A
:1013F4005350000AD8B4C0EF09F0010AD8B4C3EFBF
:1014040009F0BDEF09F055501200FACF44F0FBCFBC
:1014140045F0F2A210EF0AF012EF0AF01BEF0AF007
:10142400F2A817EF0AF019EF0AF01BEF0AF015EC17
:101434000CF09EAC20EF0AF022EF0AF02BEF0AF03A
:101444009DAC27EF0AF029EF0AF02BEF0AF017EC16
:101454000CF0F2A430EF0AF032EF0AF03BEF0AF09E
:10146400F2AA37EF0AF039EF0AF03BEF0AF07EEC0C
:101474000BF0F0A240EF0AF042EF0AF04BEF0AF053
:10148400F0A847EF0AF049EF0AF04BEF0AF013EC2B
:101494000CF045C0FBFF44C0FAFF589211005750AE
:1014A400D8A457EF0AF059EF0AF05BEF0AF092EF75
:1014B4000AF057C04AF0CDEC0BF057C04AF00AECE2
:1014C4000BF057C052F0B3EC09F057C04AF0CFEC20
:1014D4000AF057C04AF093EC0AF05750D96EDA6A12
:1014E400030ED926DECF60F0DDCF61F061C060F07D
:1014F4000001616B6051D76E5750D96EDA6A030EE2
:10150400D926DF50D66E5750D96EDA6A030ED92623
:10151400DECF26F0DDCF27F057C04AF0BDEC0BF04C
:101524001200010E4C6E4A50D8A49BEF0AF09DEFB6
:101534000AF0A0EF0AF04C6ACDEF0AF0F294F28AB6
:10154400D08EF28EF28C4A50D96EDA6A020ED92607
:10155400DE04D8A4B0EF0AF0B2EF0AF0B5EF0AF057
:10156400F184C6EF0AF04A50D96EDA6A020ED9261F
:10157400DF50D8A4C0EF0AF0C2EF0AF0C5EF0AF0BA
:10158400F194C6EF0AF04C6A4A50D96EDA6ADECF9B
:1015940024F0DDCF25F04C501200010E4D6E4A5060
:1015A400D8A4D7EF0AF0D9EF0AF0EEEF0AF04D6AAB
:1015B40008EF0BF0D58608EF0BF0D5964A50D96E9C
:1015C400DA6A050ED926DF504B6ED5504B18F80B4E
:1015D4004B18D56E08EF0BF04A50D96EDA6A060E36
:1015E400D926DF504B6E4C6A4C50000AD8B4FDEF3C
:1015F4000AF0D9EF0AF04B50000AD8B4DCEF0AF035
:10160400010AD8B4DFEF0AF0D9EF0AF04D50120006
:10161400010E4D6E4A50D8A412EF0BF014EF0BF0EC
:101624001DEF0BF04D6A37EF0BF0D58C37EF0BF055
:10163400D59C37EF0BF04A50D96EDA6A090ED926D9
:10164400DF504B6E4C6A4C50000AD8B42CEF0BF0B0
:1016540014EF0BF04B50000AD8B417EF0BF0010A4B
:10166400D8B41AEF0BF014EF0BF04D5012004A509F
:10167400D8B43FEF0BF041EF0BF049EF0BF04B50B8
:10168400D8A447EF0BF049EF0BF04BEF0BF062EFF0
:101694000BF04E6A4F6AD7CF4EF0D6CF4FF04F5073
:1016A4004EC04CF04D6A4CC04DF04C6A4C12000ECA
:1016B4004D124B50D96EDA6A4CC0DEFF4DC0DDFFCF
:1016C4001200560EF66E170EF76E000EF86E00EE50
:1016D40001F010EE23F00900F5CFEEFFE550E150E4
:1016E400FAE100EE24F0200EEE6AE806FDE15890DF
:1016F4005892000199EF0BF0F2942750D76E26C050
:10170400D6FF24502510D8B48AEF0BF08CEF0BF0E1
:1017140098EF0BF002D898EF0BF00500FA6E245006
:10172400FD6E2550FE6EFF6AFA5012001200170E6D
:10173400576E51EC0AF0210E536E41EC09F0170E6E
:101744004A6E420E4B6E39EC0BF0A1EF0BF06FEFCB
:1017540001F0000101006001010101416149595199
:10176400544C4468585048403218010900000001A4
:0517740000010200016C
:10177A00010E4B6E4A50D8A4C5EF0BF0C7EF0BF021
:10178A00CAEF0BF04B6ACBEF0BF0D58E4B50120021
:10179A00010E4B6E4A50D8A4D5EF0BF0D7EF0BF0E1
:1017AA00DAEF0BF04B6ADBEF0BF0D59E4B501200D1
:1017BA00466EF2904604D8A4E5EF0BF0E7EF0BF083
:1017CA00E9EF0BF0E9EF0BF01200466EF2904604D7
:1017DA00D8A4F2EF0BF0F4EF0BF0F6EF0BF0F6EF04
:1017EA000BF01200466EF2904604D8A4FFEF0BF0FD
:1017FA0001EF0CF003EF0CF003EF0CF01200466E51
:10180A00F2904604D8A40CEF0CF00EEF0CF010EF97
:10181A000CF010EF0CF01200F0901200F09212008F
:0A182A00F29212009E9C12001200C0
:020000040030CA
:0E000000FF02091EFF8181FF0FC00FE00F40BD
:00000001FF
