:04000000FEEF7FF0A0
:1010000000890F8A0F8B0F8C0F8D0F800F810F823D
:101010000F830F840F920F930F940F950F960F006D
:101020001B0E0D6E87EC0BF0146E190E0D6E87EC17
:101030000BF0146E1B0E0A6E39EC0BF0146E190EC9
:101040000A6E39EC0BF0146E1B0E096E200E0A6E40
:101050000DEC0AF0190E096E1F0E0A6E0DEC0AF067
:101060001F0E136E710E126E1E0EE82EFED7122E7C
:10107000FCD7132EFAD700F000F01B0E0A6E60ECBE
:101080000BF0190E0A6E60EC0BF01B0E096E200EB1
:101090000A6E0DEC0AF0190E096E1F0E0A6E0DECA9
:1010A0000AF01F0E136E710E126E1E0EE82EFED782
:1010B000122EFCD7132EFAD700F000F01B0E0A6E8A
:1010C00012EC0BF0146E190E0A6E12EC0BF0146E8B
:1010D0001B0E096E200E0A6E0DEC0AF0190E096E39
:1010E0001F0E0A6E0DEC0AF01F0E136E710E126EBB
:1010F0001E0EE82EFED7122EFCD7132EFAD700F0C4
:1011000000F01B0E0A6E60EC0BF0190E0A6E60EC1C
:101110000BF01B0E096E200E0A6E0DEC0AF0190E74
:10112000096E1F0E0A6E0DEC0AF01F0E136E710E83
:10113000126E1E0EE82EFED7122EFCD7132EFAD7F3
:1011400000F000F01B0E0A6E39EC0BF0146E190E55
:101150000A6E12EC0BF0146E1B0E096E200E0A6E56
:101160000DEC0AF0190E096E1F0E0A6E0DEC0AF056
:101170001F0E136E710E126E1E0EE82EFED7122E6B
:10118000FCD7132EFAD700F000F01B0E0F6EEBEC1D
:101190000AF0190E0F6EEBEC0AF01B0E096E200E12
:1011A0000A6E0DEC0AF0190E096E1F0E0A6E0DEC98
:1011B0000AF01F0E136E710E126E1E0EE82EFED771
:1011C000122EFCD7132EFAD700F000F01AEF08F019
:1011D000FEEF7FF0010E086E0150D8B4F2EF08F078
:1011E000F4EF08F004EF09F00150D96EDA6ADF304D
:1011F000E832E832070B026E070E026402EF09F0D4
:1012000004EF09F064EF09F0086A7AEF09F0015081
:10121000D96EDA6ADF30E832E832070B026E010E6F
:10122000036E022A16EF09F0D8900336022E14EF4F
:1012300009F00350FF0A046E0150D96EDA6ADF50DC
:10124000070B020DF350150F056E05C0F6FF100ECB
:10125000F76E0900F5CF06F00900F5CF07F006C0DC
:10126000D9FF07C0DAFF0450DF167AEF09F001500A
:10127000D96EDA6ADF30E832E832070B026E010E0F
:10128000036E022A46EF09F0D8900336022E44EF8F
:1012900009F00150D96EDA6ADF50070B020DF350E6
:1012A000150F046E04C0F6FF100EF76E0900F5CF9F
:1012B00005F00900F5CF06F005C0D9FF06C0DAFF3A
:1012C0000350DF127AEF09F00150D96EDA6ADFBC01
:1012D0006CEF09F06FEF09F0010E70EF09F0000EEE
:1012E000000AD8B407EF09F0010AD8B437EF09F0C3
:1012F00004EF09F008501200010E096E0150D8B435
:1013000084EF09F086EF09F096EF09F00150D96EED
:10131000DA6ADF30E832E832070B036E070E036447
:1013200094EF09F096EF09F0F6EF09F0096A0BEF78
:101330000AF00150D96EDA6ADF30E832E832070B82
:10134000036E010E046E032AA8EF09F0D89004364C
:10135000032EA6EF09F00450FF0A056E0150D96E66
:10136000DA6ADF50070B020DF350010F066E06C05C
:10137000F6FF100EF76E0900F5CF07F00900F5CF64
:1013800008F007C0D9FF08C0DAFF0550DF160BEFE1
:101390000AF00150D96EDA6ADF30E832E832070B22
:1013A000036E010E046E032AD8EF09F0D8900436BC
:1013B000032ED6EF09F00150D96EDA6ADF50070B21
:1013C000020DF350010F056E05C0F6FF100EF76E0B
:1013D0000900F5CF06F00900F5CF07F006C0D9FFE8
:1013E00007C0DAFF0450DF120BEF0AF00250036E61
:1013F000046A0450000AD8B400EF0AF096EF09F02E
:101400000350000AD8B499EF09F0010AD8B4C9EF23
:1014100009F096EF09F0095012000950D8B413EF03
:101420000AF015EF0AF01DEF0AF00A50D8A41BEFDE
:101430000AF01DEF0AF020EF0AF00B6A65EF0AF0E0
:101440000E6A09500E24016E0E500C0F026E67ECEE
:101450000AF00B6E0E2A010E0E6431EF0AF033EF24
:101460000AF021EF0AF00C04D8A439EF0AF03BEFA0
:101470000AF04AEF0AF00D50D8A441EF0AF043EF0A
:101480000AF04AEF0AF00A50D96EDA6A010EDF6EEE
:1014900065EF0AF00C50D8A450EF0AF052EF0AF0B2
:1014A00061EF0AF00D04D8A458EF0AF05AEF0AF0E1
:1014B00061EF0AF00A50D96EDA6A020EDF6E65EF4C
:1014C0000AF00A50D96EDA6ADF6A0B501200010E78
:1014D000086E0150D8B46FEF0AF071EF0AF089EF8F
:1014E0000AF00150D96EDA6ADF30E832E832070BD1
:1014F000036E080E03607FEF0AF081EF0AF089EFB8
:101500000AF00250D8A487EF0AF089EF0AF08CEFB6
:101510000AF0086ABBEF0AF00250D96EDA6A01508D
:10152000E16EE26AE730E832E832070B036E015001
:10153000E16EE26AE750070B020DF3500B0F046EE9
:1015400004C0F6FF100EF76E0900F5CF05F0090094
:10155000F5CF06F005C0E1FF06C0E2FFE750076ED9
:10156000032AB5EF0AF0D8900732032EB3EF0AF042
:101570000750010BDF6E085012000A50D8B4C3EFB9
:101580000AF0C5EF0AF0D5EF0AF00A50D96EDA6A10
:10159000DF30E832E832070B0B6E070E0B64D3EF37
:1015A0000AF0D5EF0AF0D8EF0AF00C6AE9EF0AF07A
:1015B0000AC001F0EAEC08F00C6E0AC001F00A5013
:1015C000D96EDA6A000EDFBE010E026E7CEC09F005
:1015D0000C6E0C5012000F50D8A4F1EF0AF0F3EF8C
:1015E0000AF0F6EF0AF0106A10EF0BF00FC009F0E6
:1015F000110E0A6E0DEC0AF01104D8A402EF0BF0E4
:1016000004EF0BF00BEF0BF00FC00AF012EC0BF035
:10161000106E10EF0BF00FC00AF039EC0BF0106EEB
:10162000105012000A50D8A418EF0BF01AEF0BF06C
:101630001DEF0BF00D6A37EF0BF015C00BF016C065
:101640000CF00E6A0A500E24016E0E500B0FD96E6C
:10165000DA6ADF50026E7CEC09F00D6E0E2A010E84
:101660000E6435EF0BF037EF0BF022EF0BF00D505F
:1016700012000A50D8A43FEF0BF041EF0BF044EFFB
:101680000BF00D6A5EEF0BF017C00BF018C00CF0FA
:101690000E6A0A500E24016E0E500B0FD96EDA6AD4
:1016A000DF50026E7CEC09F00D6E0E2A010E0E6406
:1016B0005CEF0BF05EEF0BF049EF0BF00D501200FA
:1016C0000A50D8A466EF0BF068EF0BF06BEF0BF04D
:1016D0000D6A85EF0BF0000E0C6E000E0B6E0E6A9D
:1016E0000A500E24016E0E500B0FD96EDA6ADF50CD
:1016F000026E7CEC09F00D6E0E2A010E0E6483EF73
:101700000BF085EF0BF070EF0BF00D5012000D5049
:10171000D8A48DEF0BF08FEF0BF092EF0BF00E6A69
:10172000A2EF0BF00F6A0D500F240A6EBDEC0AF009
:101730000E6E0F2A010E0F64A0EF0BF0A2EF0BF05C
:1017400093EF0BF00E5012007A0EF66E170EF76E36
:10175000000EF86E00EE15F010EE08F00900F5CF5F
:10176000EEFFE550E150FAE1206A1F6A1E6A1D6A29
:10177000000EF86E000110EF08F000010100121ACF
:02178000020A5B
:04FFFC00A4EF0BF073
:020000040030CA
:0E000000FF02091EFF8181FF0FC00FE00F40BD
:00000001FF
