:04000000FEEF7FF0A0
:1010000000890F8A0F8B0F8C0F8D0F800F810F823D
:101010000F830F840F920F930F940F950F960F006D
:10102000010E086E0150D8B418EF08F01AEF08F05E
:101030002AEF08F00150D96EDA6ADF30E832E83280
:10104000070B026E070E026428EF08F02AEF08F083
:101050008AEF08F0086AA0EF08F00150D96EDA6A4A
:10106000DF30E832E832070B026E010E036E022A0F
:101070003CEF08F0D8900336022E3AEF08F0035008
:10108000FF0A046E0150D96EDA6ADF50070B020DB9
:10109000F350150F056E05C0F6FF100EF76E090030
:1010A000F5CF06F00900F5CF07F006C0D9FF07C05D
:1010B000DAFF0450DF16A0EF08F00150D96EDA6AAB
:1010C000DF30E832E832070B026E010E036E022AAF
:1010D0006CEF08F0D8900336022E6AEF08F001504A
:1010E000D96EDA6ADF50070B020DF350150F046E4C
:1010F00004C0F6FF100EF76E0900F5CF05F00900E9
:10110000F5CF06F005C0D9FF06C0DAFF0350DF12A5
:10111000A0EF08F00150D96EDA6ADFBC92EF08F058
:1011200095EF08F0010E96EF08F0000E000AD8B413
:101130002DEF08F0010AD8B45DEF08F02AEF08F0AF
:1011400008501200010E096E0150D8B4AAEF08F041
:10115000ACEF08F0BCEF08F00150D96EDA6ADF306E
:10116000E832E832070B036E070E0364BAEF08F0AB
:10117000BCEF08F01CEF09F0096A31EF09F00150EB
:10118000D96EDA6ADF30E832E832070B036E010EFF
:10119000046E032ACEEF08F0D8900436032ECCEF6D
:1011A00008F00450FF0A056E0150D96EDA6ADF506C
:1011B000070B020DF350010F066E06C0F6FF100E6E
:1011C000F76E0900F5CF07F00900F5CF08F007C06A
:1011D000D9FF08C0DAFF0550DF1631EF09F00150E2
:1011E000D96EDA6ADF30E832E832070B036E010E9F
:1011F000046E032AFEEF08F0D8900436032EFCEFAD
:1012000008F00150D96EDA6ADF50070B020DF35077
:10121000010F056E05C0F6FF100EF76E0900F5CF41
:1012200006F00900F5CF07F006C0D9FF07C0DAFFC6
:101230000450DF1231EF09F00250036E046A0450CB
:10124000000AD8B426EF09F0BCEF08F00350000AFA
:10125000D8B4BFEF08F0010AD8B4EFEF08F0BCEF44
:1012600008F0095012000A50D8A439EF09F03BEFFA
:1012700009F03EEF09F00E6AA6EF09F00AC001F08E
:1012800010EC08F085EF09F00A50D96EDA6A010E09
:10129000D926DF50D8A44FEF09F051EF09F055EFF0
:1012A00009F0010E0D6E9FEF09F00A50D96EDA6A4F
:1012B000010ED926DE04D8A460EF09F062EF09F030
:1012C00065EF09F00D6A9FEF09F09FEF09F00A50F2
:1012D000D96EDA6A010ED926DF50D8A472EF09F070
:1012E00074EF09F076EF09F062EF09F00A50D96E59
:1012F000DA6A010ED926DE04D8A481EF09F083EF63
:1013000009F065EF09F051EF09F00A50D96EDA6A79
:10131000020ED926DF500B6E0C6A0C50000AD8B4AE
:1013200094EF09F065EF09F00B50000AD8B444EFD0
:1013300009F0010AD8B467EF09F065EF09F00AC0B7
:1013400001F00DC002F0A2EC08F00E6E0E5012007B
:101350000950D8B4AEEF09F0B0EF09F0B8EF09F0DA
:101360000A50D8A4B6EF09F0B8EF09F0BBEF09F0C6
:101370000D6A10EF0AF00E6A09C001F00E0E026E3F
:1013800012EC0AF00D6EF6EF09F00E04D8A4CBEFC4
:1013900009F0CDEF09F0D3EF09F00A50D96EDA6AFF
:1013A000DF6A10EF0AF00E50D8A4D9EF09F0DBEF96
:1013B00009F0B8EF09F00A50D96EDA6A010EDF6E53
:1013C00010EF0AF00E04D8A4E8EF09F0EAEF09F0F4
:1013D000ECEF09F0DBEF09F00E50D8A4F2EF09F0C2
:1013E000F4EF09F0B8EF09F0CDEF09F00950D96E2C
:1013F000DA6A010ED926DF500B6E0C6A0C50000A17
:10140000D8B405EF0AF0B8EF09F00B50000AD8B4D1
:10141000C5EF09F0010AD8B4E2EF09F0B8EF09F01E
:101420000D501200010E086E0150D8B41AEF0AF0E8
:101430001CEF0AF034EF0AF00150D96EDA6ADF309F
:10144000E832E832070B036E080E03602AEF0AF059
:101450002CEF0AF034EF0AF00250D8A432EF0AF071
:1014600034EF0AF037EF0AF0086A66EF0AF002502C
:10147000D96EDA6A0150E16EE26AE730E832E832AA
:10148000070B036E0150E16EE26AE750070B020D95
:10149000F3500B0F046E04C0F6FF100EF76E090038
:1014A000F5CF05F00900F5CF06F005C0E1FF06C055
:1014B000E2FFE750076E032A60EF0AF0D890073288
:1014C000032E5EEF0AF00750010BDF6E085012008A
:1014D0000A50D8A46EEF0AF070EF0AF085EF0AF018
:1014E0000D6A9FEF0AF00AC001F0000E026EA2EC36
:1014F00008F00D6E9FEF0AF00AC001F0010E026EB7
:10150000A2EC08F00D6E9FEF0AF00A50D96EDA6A6D
:10151000020ED926DF500B6E0C6A0C50000AD8B4AC
:1015200094EF0AF070EF0AF00B50000AD8B473EF92
:101530000AF0010AD8B47CEF0AF070EF0AF00D50FF
:1015400012000A50D8A4A7EF0AF0A9EF0AF0BEEFE4
:101550000AF00D6AD8EF0AF00AC001F0010E026E1F
:10156000A2EC08F00D6ED8EF0AF00AC001F0000EF0
:10157000026EA2EC08F00D6ED8EF0AF00A50D96E98
:10158000DA6A020ED926DF500B6E0C6A0C50000A84
:10159000D8B4CDEF0AF0A9EF0AF00B50000AD8B486
:1015A000ACEF0AF0010AD8B4B5EF0AF0A9EF0AF0DF
:1015B0000D501200190E0A6E33EC09F00F6E160E64
:1015C0000A6E33EC09F00F6E130E096E21EC0BF06E
:1015D0000F6E100E096E21EC0BF00F6E100E096EDF
:1015E0001D0E0A6EA8EC09F01D04D8A4FAEF0AF04B
:1015F000FCEF0AF002EF0BF0160E0A6E68EC0AF030
:10160000EEEF0AF0160E0A6EA1EC0AF0EEEF0AF009
:10161000FEEF7FF0660EF66E160EF76E000EF86E99
:1016200000EE10F010EE0CF00900F5CFEEFFE550E3
:10163000E150FAE11D6A1C6A000EF86E0001DAEF53
:101640000AF00950D8A427EF0BF029EF0BF02CEF8C
:101650000BF00A6A31EF0BF009C001F010EC08F052
:101660000A6E0A501200C300005201000A00010273
:02167000000177
:04FFFC000AEF0BF00D
:020000040030CA
:0E000000FF02091EFF8181FF0FC00FE00F40BD
:00000001FF
