:04000000FEEF7FF0A0
:10100000003738392F3435362A3132332D43303DCD
:101010002B890F8A0F8B0F8C0F8D0F800F810F8202
:101020000F830F840F920F930F940F950F960F005D
:10103000010E086E0150D8B420EF08F022EF08F03E
:1010400032EF08F00150D96EDA6ADF30E832E83268
:10105000070B026E070E026430EF08F032EF08F063
:1010600092EF08F0086AA8EF08F00150D96EDA6A2A
:10107000DF30E832E832070B026E010E036E022AFF
:1010800044EF08F0D8900336022E42EF08F00350E8
:10109000FF0A046E0150D96EDA6ADF50070B020DA9
:1010A000F350250F056E05C0F6FF100EF76E090010
:1010B000F5CF06F00900F5CF07F006C0D9FF07C04D
:1010C000DAFF0450DF16A8EF08F00150D96EDA6A93
:1010D000DF30E832E832070B026E010E036E022A9F
:1010E00074EF08F0D8900336022E72EF08F001502A
:1010F000D96EDA6ADF50070B020DF350250F046E2C
:1011000004C0F6FF100EF76E0900F5CF05F00900D8
:10111000F5CF06F005C0D9FF06C0DAFF0350DF1295
:10112000A8EF08F00150D96EDA6ADFBC9AEF08F038
:101130009DEF08F0010E9EEF08F0000E000AD8B4F3
:1011400035EF08F0010AD8B465EF08F032EF08F087
:1011500008501200010E096E0150D8B4B2EF08F029
:10116000B4EF08F0C4EF08F00150D96EDA6ADF304E
:10117000E832E832070B036E070E0364C2EF08F093
:10118000C4EF08F024EF09F0096A39EF09F00150C3
:10119000D96EDA6ADF30E832E832070B036E010EEF
:1011A000046E032AD6EF08F0D8900436032ED4EF4D
:1011B00008F00450FF0A056E0150D96EDA6ADF505C
:1011C000070B020DF350110F066E06C0F6FF100E4E
:1011D000F76E0900F5CF07F00900F5CF08F007C05A
:1011E000D9FF08C0DAFF0550DF1639EF09F00150CA
:1011F000D96EDA6ADF30E832E832070B036E010E8F
:10120000046E032A06EF09F0D8900436032E04EF8B
:1012100009F00150D96EDA6ADF50070B020DF35066
:10122000110F056E05C0F6FF100EF76E0900F5CF21
:1012300006F00900F5CF07F006C0D9FF07C0DAFFB6
:101240000450DF1239EF09F00250036E046A0450B3
:10125000000AD8B42EEF09F0C4EF08F00350000ADA
:10126000D8B4C7EF08F0010AD8B4F7EF08F0C4EF1C
:1012700008F0095012000A50D8A441EF09F043EFDA
:1012800009F046EF09F00E6AAEEF09F00AC001F06E
:1012900018EC08F08DEF09F00A50D96EDA6A010EE9
:1012A000D926DF50D8A457EF09F059EF09F05DEFC8
:1012B00009F0010E0D6EA7EF09F00A50D96EDA6A37
:1012C000010ED926DE04D8A468EF09F06AEF09F010
:1012D0006DEF09F00D6AA7EF09F0A7EF09F00A50CA
:1012E000D96EDA6A010ED926DF50D8A47AEF09F058
:1012F0007CEF09F07EEF09F06AEF09F00A50D96E31
:10130000DA6A010ED926DE04D8A489EF09F08BEF42
:1013100009F06DEF09F059EF09F00A50D96EDA6A59
:10132000020ED926DF500B6E0C6A0C50000AD8B49E
:101330009CEF09F06DEF09F00B50000AD8B44CEFA8
:1013400009F0010AD8B46FEF09F06DEF09F00AC097
:1013500001F00DC002F0AAEC08F00E6E0E50120063
:101360000A50D8B4B6EF09F0B8EF09F0C0EF09F0B1
:101370000B50D8A4BEEF09F0C0EF09F0C3EF09F09D
:101380000F6A15EF0AF00D6A010E0E6E126A116AED
:101390000A501124016E0DC002F0AAEC08F0112AC7
:1013A000030E1164D6EF09F0D8EF09F0C8EF09F089
:1013B0000A501224016E0EC002F0AAEC08F0136A63
:1013C0000A501324040F016E100E026E17EC0AF07F
:1013D0000F6E1004D8A4EFEF09F0F1EF09F003EF5E
:1013E0000AF01250040DF350010F13240C6E0CC0C0
:1013F000F6FF100EF76E0B50D96EDA6A0800F5CFC3
:10140000DFFF0CEF0AF0132A030E13640AEF0AF051
:101410000CEF0AF0E0EF09F0122A030E126413EF4A
:101420000AF015EF0AF0C7EF09F00F501200010E95
:10143000086E0150D8B41FEF0AF021EF0AF039EF1F
:101440000AF00150D96EDA6ADF30E832E832070B71
:10145000036E080E03602FEF0AF031EF0AF039EF48
:101460000AF00250D8A437EF0AF039EF0AF03CEF47
:101470000AF0086A6BEF0AF00250D96EDA6A01507E
:10148000E16EE26AE730E832E832070B036E0150A2
:10149000E16EE26AE750070B020DF3501B0F046E7A
:1014A00004C0F6FF100EF76E0900F5CF05F0090035
:1014B000F5CF06F005C0E1FF06C0E2FFE750076E7A
:1014C000032A65EF0AF0D8900732032E63EF0AF083
:1014D0000750010BDF6E085012000A50D8A473EFBA
:1014E0000AF075EF0AF08AEF0AF00D6AA4EF0AF02D
:1014F0000AC001F0000E026EAAEC08F00D6EA4EF17
:101500000AF00AC001F0010E026EAAEC08F00D6E9E
:10151000A4EF0AF00A50D96EDA6A020ED926DF501B
:101520000B6E0C6A0C50000AD8B499EF0AF075EFF4
:101530000AF00B50000AD8B478EF0AF0010AD8B4C8
:1015400081EF0AF075EF0AF00D5012000A50D8A48E
:10155000ACEF0AF0AEEF0AF0C3EF0AF00D6ADDEF70
:101560000AF00AC001F0010E026EAAEC08F00D6E3E
:10157000DDEF0AF00AC001F0000E026EAAEC08F0DE
:101580000D6EDDEF0AF00A50D96EDA6A020ED92626
:10159000DF500B6E0C6A0C50000AD8B4D2EF0AF080
:1015A000AEEF0AF00B50000AD8B4B1EF0AF0010A0E
:1015B000D8B4BAEF0AF0AEEF0AF00D501200190ECF
:1015C0000D6E3DEC0BF0146E210E0A6E3BEC09F033
:1015D000146E190E0A6E260E0B6EB0EC09F0340E66
:1015E0002618D8A4F6EF0AF0F8EF0AF0FEEF0AF09A
:1015F000210E0A6E6DEC0AF0E9EF0AF0430E261890
:10160000D8A405EF0BF007EF0BF0E9EF0AF0210E7D
:101610000A6EA6EC0AF0E9EF0AF0FEEF7FF00A503E
:10162000D8B415EF0BF017EF0BF027EF0BF00A50C3
:10163000D96EDA6ADF30E832E832070B0B6E070E3C
:101640000B6425EF0BF027EF0BF02AEF0BF00C6A81
:101650003BEF0BF00AC001F018EC08F00C6E0AC06A
:1016600001F00A50D96EDA6A000EDFBE010E026E7A
:10167000AAEC08F00C6E0C5012000D50D8A443EFE9
:101680000BF045EF0BF048EF0BF00E6A68EF0BF034
:101690000F6A0D500F240A6E0FEC0BF00F2A030E89
:1016A0000F6455EF0BF057EF0BF049EF0BF0106A9A
:1016B0000D501024040F016E18EC08F00E6E102A65
:1016C000030E106466EF0BF068EF0BF058EF0BF0B1
:1016D0000E501200040EF66E170EF76E000EF86E26
:1016E00000EE15F010EE0FF00900F5CFEEFFE5501B
:1016F000E150FAE1266A256A246A000EF86E0001BC
:10170000DFEF0AF000010100020A121A626A727A1F
:03171000030001D2
:04FFFC006AEF0BF0AD
:020000040030CA
:0E000000FF02091EFF8181FF0FC00FE00F40BD
:00000001FF
